:0420000039EF1CF0A8
:08200800046ED8CF05F0E0CF13
:1020100006F00001E9CF0CF0EACF07F0E1CF08F0BD
:10202000E2CF09F0D9CF0AF0DACF0BF0F3CF12F0FC
:10203000F4CF13F0FACF14F0F5CF15F0F6CF16F079
:10204000F7CF17F000C00EF001C00FF002C010F083
:1020500003C011F0A0A230EF10F0A1B217EF11F001
:10206000A0AA36EF10F0A1BA0CEF19F00EC000F0E4
:102070000FC001F010C002F011C003F00CC0E9FF66
:1020800007C0EAFF078E08C0E1FF09C0E2FF0AC0EF
:10209000D9FF0BC0DAFF12C0F3FF13C0F4FF14C066
:1020A000FAFF15C0F5FF16C0F6FF17C0F7FF045082
:1020B00006C0E0FF05C0D8FF1000F76ACA0FF66E31
:1020C000200EF7220900F5501200000302FFFFFF67
:1020D000FFFFFFFFFFFFFFFFFFFFF76AEA0FF66E4C
:1020E000200EF7220900F550120000FF02FFFFFF4B
:1020F000FFFFFFFFFFFFFFFFFFFFF76A0A0FF66E0C
:10210000210EF7220900F550120040000B0040009C
:1021100000000000000000000000000000000000BF
:1021200000000000000000000000F76A3A0FF66EA1
:10213000210EF7220900F550120040000000400077
:10214000000000000000000000000000000000008F
:1021500000000000000000000000F76A6A0FF66E41
:10216000210EF7220900F550120009024300020176
:102170000080320904000001020201000524001061
:1021800001042402020524060001052401000107C0
:102190000581030B00FA09040100020A0000000790
:1021A0000502024000010705820240000100F76AB3
:1021B000BE0FF66E210EF7220900F5501200020044
:1021C000F76AD00FF66E210EF7220900F5501200C3
:1021D00012171B20FFFFFFFFF76AE80FF66E210EB4
:1021E000F7220900F5501200120110010200004010
:1021F00061043300000101020001F76A0A0FF66E64
:10220000220EF7220900F550120004030904080306
:102210004300430053001803530045005200490097
:1022200041004C002000440045004D004F00F60ED8
:10223000B36E9F0EB26E1AA008D029501C5C03E347
:1022400093908A8002D093908A901AA208D0295045
:102250001D5C03E393928A8202D093928A921AA41D
:1022600008D029501E5C03E393948A8402D093948F
:102270008A941AA608D029501F5C03E393968A8695
:1022800002D093968A961AA808D02950205C03E3BE
:1022900093988A8802D093988A981AAA08D02950CD
:1022A000215C03E3939A8A8A02D0939A8A9A1AACA1
:1022B00008D02950225C03E3939C8A8C02D0939C23
:1022C0008A9C1AAE08D02950235C03E3939E8A8E21
:1022D00002D0939E8A9E1BA008D02950245C03E361
:1022E00095908C8002D095908C901BA208D029509C
:1022F000265C03E395928C8202D095928C921BA46B
:1023000008D02950275C03E395948C8402D09594DF
:102310008C941BA608D02950285C03E392988988E6
:1023200002D092988998292A29500A0802E2010EBF
:10233000296EA19236EF10F06D92699468A402D0D4
:102340006894FCD718EF19F0400E0401016F040ED9
:10235000036F180E026F880E006F046B040E076F78
:10236000580E066F0001120070A002D0EDDF7090D1
:10237000689A21EF19F06A6A689227EF19F0010153
:10238000129111BF1281119F1151100803E2000E2A
:10239000016E1AD012A10DD0036A115100018DDE19
:1023A000FF0802E1000E01D0010E016E01010CD008
:1023B0000BD0036A1151000190DEFF0802E1000E0C
:1023C00001D0010E016E0101000112000101165140
:1023D0001803F3CF01F0F4CF00F01903F3500026F7
:1023E00017511803F3500020026E00011200036A17
:1023F00001011051700FE96E0F0E0320EA6EEF6AB3
:1024000010C111F10001BBDF015228E00101176B7F
:1024100010C116F1196B080E186F0001D7DF01010A
:1024200001C0E9FF040E0224EA6EEF6A176B10C1C7
:1024300016F1196B080E186F0001C8DF02C012F107
:1024400001C011F1040E01011127000E122311C168
:10245000E9FF040E1225EA6EEF6A00011200010E78
:1024600001010F6F0F510F0807E30FC110F10001B9
:10247000BEDF01010F2BF6D7000112000101096B2D
:10248000086B250E076F800E066FEA6A8B0EE96EE9
:10249000010EE26E060EE16E020E016EE6CFEEFF59
:1024A000012EFCD700018D6B8E6B0101066BEA6A71
:1024B0008F0EE96E010EE26E060EE16EE6CFEEFFC4
:1024C000066BEA6A900EE96E010EE26E060EE16E90
:1024D000E6CFEEFF080E066FEA6A910EE96E010E76
:1024E000E26E060EE16EE6CFEEFF0001DF6B1B9C95
:1024F000936B926BDB6BDC91E06B1200886B876BEC
:102500000101056B055101080AE3036A0551890FB2
:10251000E96E000E0320EA6EEF6A052BF3D7000187
:10252000ADDF7B6B010E7C6F7A6B12006896120038
:102530006A6A686A9F0E6B6E3D0E696E6E6A8FDF07
:10254000DDDF160E706E68A602D0F0DFFCD76D9846
:10255000FBDE030E826F2DEF19F0698468986D829F
:1025600033EF19F0689C39EF19F00AC183F01200BB
:10257000836912000101086B00018751881137E05F
:10258000010108513F08D8B002D0000130D000014D
:102590007D5105E0020A0AE0010A0FE014D086C06E
:1025A00003F08551DADDE8CF09F10DD086C003F0E4
:1025B000855123DEE8CF09F106D086C003F08551AE
:1025C0000BDEE8CF09F1852BD8B4862B8751D8B420
:1025D0008807870701010851082B580FE96E040E80
:1025E000EA6ED8B0EA2A09C1EFFFC6D700018751C9
:1025F000881109E1010108514008D8A402D0000166
:1026000002D000017A6B08C10AF1AFDF1200866BBD
:10261000856B7D6B04011B51010A000107E0030A71
:102620000BE0010A0DE0220A22E03AD0886B120E7C
:10263000876F030E7D6F36D0886B430E876F32D065
:10264000020E7D6F036A04011A517E0FE96E000EBF
:102650000320EA6E0001866BEFCF85F086C003F0A1
:102660008551CBDD036A876F03C088F01BD0036AF6
:1026700004011A510001A4DD036A856F03C086F0CE
:10268000853D02D086530AE086C003F0855165DDA2
:10269000036A876F03C088F005D002D069DF15D0C8
:1026A00067DF13D004011F530CE10001885305E1DB
:1026B000875104011E5D05E20001886B1EC487F08E
:1026C0000401010E00017A6F55DFB6EF14F001012D
:1026D000075306E1040E0001826FC1DEE9D001015B
:1026E000050E0001826F040E01010A6F980E096F3A
:1026F000010E086F08510F08D8A0DAD008C110F1F8
:10270000000175DE01010B6B036A08510001E5DC75
:10271000FF0865E0040E01010B6FD8900835036ACD
:10272000000103DD0900F5CF03F001010C6F03C0C8
:102730000DF1176B08C116F1196B080E186F000127
:1027400045DE01C00FF1010E01010124016E000EF2
:102750000220036E01C0E9FF040E0324EA6E0CC1DF
:10276000EFFF176B08C116F1196B080E186F000107
:102770002DDE01C00FF1020E01010124016E000ED9
:102780000220036E01C0E9FF040E0324EA6E0AC1B1
:10279000ECFFED5209C1EFFFD8900835036A000144
:1027A000C4DC0900F5CF03F00101092703500A2317
:1027B000880E0E6F0DB10E810DB30E83176B08C11D
:1027C00016F1196B080E186F000100DE010101C03F
:1027D000E9FF040E0224EA6E0EC1EFFF0001036A56
:1027E00001010851000169DCFF0847E001010B838A
:1027F000176B08C116F1196B080E186F0001E6DDA2
:1028000002C010F101C00FF1040E01010F27000EEC
:102810001023020E0F25016E000E1021036E01C061
:10282000E9FF040E0324EA6E0AC1ECFFED5209C170
:10283000EFFFD8900835036A00015FDC0900F5CF8F
:1028400003F00101092703500A23176B08C116F191
:10285000196B080E186F0001B9DD02C010F101C03C
:102860000FF1040E01010F27000E10230FC1E9FF25
:10287000040E1025EA6E400EEF6E01010B510608A2
:1028800002E10E0E0B6F036A0851000116DC01080D
:1028900003E001010B890001036A01010851700F77
:1028A000E96E0F0E0320EA6E0BC1EFFF082B22D753
:1028B0000001AFEF14F004011951000A00010DE00E
:1028C000010A15E0020A21E0060A2CE0030A33E0BF
:1028D0000E0A33E0010A39E048D07CC058F4040104
:1028E000596B020E01010A6F00013FDE3FD0040167
:1028F0001A2D08D0010E00017C1701010A6B00019E
:1029000034DE02D0000134DE31D004011A2D07D0AC
:1029100000017C8301010A6B000127DE02D0000167
:1029200027DE24D0020E7A6F1AC484F001010A6BEC
:1029300000011BDE1BD06BD619D07BC058F4010EF2
:1029400001010A6F000111DE11D004011A510108C2
:102950000AE31AC47BF01AC407F10001B8D60101DA
:102960000A6B000102DE000101D002DE4BEF16F01F
:102970007BC007F104011951000A000105E00A0AB1
:102980000CE0010A2BE03FD00401586B596B020E9A
:1029900001010A6F0001E9DD37D0010107531BE097
:1029A000010E075D036A000102DC016E04011C5D7B
:1029B000D8A002D001010FD0036A1C51890FE96E23
:1029C000000E0320EA6EEFCF58F4010E01010A6FEA
:1029D0000001CBDD02D00001CBDD16D00101075391
:1029E0000FE0036A04011C51890FE96E000E0320F9
:1029F000EA6E1AC4EFFF01010A6B0001B6DD02D0D6
:102A00000001B6DD01D0B4DD4BEF16F001010891F5
:102A100007BF0881079F08A119D0176B07C116F1DE
:102A2000196B080E186F0001D1DC02C00AF101C059
:102A300009F1040E01010927000E0A2309C1E9FF6B
:102A4000040E0A25EA6E880EEF6E0FD0176B07C1D1
:102A500016F1196B080E186F0001B8DC010101C0F6
:102A6000E9FF040E0224EA6EEF6A0001B8EF15F0E8
:102A70000101089107BF0881079F08A119D0176BB2
:102A800007C116F1196B080E186F00019FDC02C018
:102A90000AF101C009F1040E01010927000E0A2301
:102AA00009C1E9FF040E0A25EA6E840EEF6E10D00C
:102AB000176B07C116F1196B080E186F000186DC41
:102AC000010101C0E9FF040E0224EA6E840EEF6EDC
:102AD0000001C0EF15F00101089107BF0881079FB1
:102AE00008A119D0176B07C116F1196B080E186FE2
:102AF00000016CDC02C00BF101C00AF1040E0101FF
:102B00000A27000E0B230AC1E9FF040E0B25EA6E0B
:102B1000EFCF09F110D0176B07C116F1196B080E32
:102B2000186F000153DC010101C0E9FF040E02240B
:102B3000EA6EEFCF09F109AF02D009B502D0000E5D
:102B400001D0010E016E0001CCEF15F01CC411F193
:102B500016DC01522DE004011951010A000105E0C3
:102B6000020A0BE0030A11E022D01CC407F14ED781
:102B700001010A6B0001F9DC1BD01CC407F178D7F6
:102B800001010A6B0001F1DC13D00401586B596B91
:102B90001CC407F100019FD7015203E0010E04019C
:102BA000586F020E01010A6F0001DFDC01D0E0DC8A
:102BB0004BEF16F0FE0E836F120004011C2D01D0A6
:102BC00002D01C534EE11951000A00010BE0010A2A
:102BD0000DE0210A1CE0010A1FE0030A30E0010AAF
:102BE00035E03DD0010EE06FE5DF3AD0040EEA6E2D
:102BF000580EE96EE26A940EE16E080E016EE6CFA1
:102C0000EEFF012EFCD71EC40AF1AFDC29D0020E64
:102C1000E06F1B8CCFDF24D0040EEA6E580EE96EF5
:102C2000E26A8B0EE16E070E016EE6CFEEFF012E1B
:102C3000FCD7070E01010A6F000197DC11D01AC4FE
:102C4000DFF001010A6B000190DC0AD01AC493F096
:102C50001BC492F001010A6B000187DC01D088DC03
:102C6000040100014BEF16F07A6B040118517F0B41
:102C7000000A000107E0010A07E0030A07E0230A4F
:102C800007E008D018D607D073D605D05FD703D099
:102C900094D701D06DDCAEEF18F00101176B08C1BD
:102CA00016F1196B080E186F0001E6EC11F0010126
:102CB00001C0E9FF040E0224EA6EEFCF0AF10951C8
:102CC000020806E10AAD02D0096B02D0010E096FBD
:102CD000095103081CE1840E0A6F176B08C116F135
:102CE000196B080E186F0001E6EC11F002C00EF12E
:102CF00001C00DF1040E01010D27000E0E230DC1C0
:102D0000E9FF040E0E25EA6E840EEF6E07D0092D42
:102D100003D0C80E0A6F02D0880E0A6FD89008350B
:102D2000036A000195EC10F00900F5CF03F00101F2
:102D30000B6F03C00CF1176B08C116F1196B080E6D
:102D4000186F0001E6EC11F001C00DF1010E010158
:102D50000124016E000E0220036E01C0E9FF040E83
:102D60000324EA6E0BC1EFFF0CB10A810CB30A8396
:102D7000176B08C116F1196B080E186F0001E6EC0D
:102D800011F0010101C0E9FF040E0224EA6E0AC13C
:102D9000EFFF00011200036A01011551700FE96E87
:102DA0000F0E0320EA6EEF521BE0176B15C116F1F0
:102DB000196B080E186F0001E6EC11F002C017F154
:102DC00001C016F1040E01011627000E172316C1CB
:102DD000E9FF040E1725EA6EEFCF18F118AF02D005
:102DE000000E01D0010E016E0001120010C115F19C
:102DF000D2DF0152D8B485D00101176B10C116F192
:102E0000196B080E186F0001E6EC11F002C016F104
:102E100001C015F1040E01011527000E1623010E45
:102E20001525016E000E1621036E01C0E9FF040E88
:102E30000324EA6E11C1EFFF1351020820E1176B62
:102E400010C116F1196B080E186F0001E6EC11F0B5
:102E500002C016F101C015F1040E01011527000E84
:102E6000162315C1E9FF040E1625EA6EEFCF14F103
:102E700014AD02D0136B02D0010E136F1AD0135190
:102E8000040817E1176B10C116F1196B080E186FC3
:102E90000001E6EC11F0010101C0E9FF040E02247B
:102EA000EA6EEFCF14F114AD03D0010E136F01D011
:102EB000136B132D03D0C80E146F02D0880E146F3D
:102EC00012B1148112B31483176B10C116F1196B70
:102ED000080E186F0001E6EC11F002C016F101C0F7
:102EE00015F1040E01011527000E162315C1E9FF87
:102EF000040E1625EA6E14C1EFFF010E016E04D018
:102F00000001000E016E010100011200E051010AF2
:102F100003E0030A15E028D0EA6A940EE96E040E75
:102F2000E26E180EE16E080E016EE6CFEEFF012E86
:102F3000FCD701010A6B0001B5EC12F0E06B15D073
:102F4000EA6A8B0EE96E040EE26E180EE16E070E51
:102F5000016EE6CFEEFF012EFCD7E06B01010A6B9C
:102F60000001B5EC12F001D0E06BF5EF17F00101B4
:102F7000176B08C116F1196B080E186F0001E6EC0B
:102F800011F002C00AF101C009F1010E0101012492
:102F9000016E000E0220036E01C0E9FF040E03243F
:102FA000EA6E036AEFCF01F003C002F00001E9EF1F
:102FB00017F0DC91020E0101086F096F00016DDE50
:102FC000EEEF17F0DC81DE6B020E0101086F0001ED
:102FD000CED701C0DDF0DD5301E1EBD7FCEF17F0F8
:102FE0000101075304E1000191D706D00101075107
:102FF000020803E10001E6D701010001120008C147
:103000006EFF0101085305E0040E0001826F04D039
:103010000101020E0001826F13EF18F07B6B7A6BD7
:1030200084C008F1ECD787EF18F008C115F1B3DEC2
:10303000015247E00101176B08C116F1196B080E28
:10304000186F0001E6EC11F002C011F101C010F19F
:10305000040E01011027000E1123020E1025016E2F
:10306000000E1121036E01C0E9FF040E0324EA6E75
:10307000ECCF0FF1ED52EFCF0EF10FC1EAFF0EC111
:10308000E9FF0AC1E2FF09C1E1FF0CC102F00BC177
:1030900001F0015202E0022A02D0025206E0E6CF1D
:1030A000EEFF012EFCD7022EFAD708C110F10CC199
:1030B00012F10BC111F10DC113F1000197DE0150A6
:1030C00002D0000E016E1200DB5310E0020E01016F
:1030D000086F0A6B9C0E096F0C6BDBC00BF1020EC4
:1030E0000D6F0001A2DF015201E0DB6B1200ECDF8B
:1030F0008EEF18F0010107530CE100017A2D03D087
:10310000BAEC12F004D07A51020801E187D706D058
:1031100001010751020803E10001E9D701010001A3
:10312000120081310101056F053305331F0E0517AC
:10313000000181534FE1040100513C0B0101066F76
:10314000430E0401001701010651340825E1040172
:103150000451800B01E0046B000186D56D98833D1E
:1031600007D00101086B030E096F000196DD12D034
:103170000101086B020E096F00018FDD8351FE080B
:1031800009E00101106B126B83C011F1040E136F83
:1031900000012CDE1CD001010651040819E1076B67
:1031A00000011EDF0101086B020E096F000175DDD1
:1031B0008351FE080CE0833D01D009D00101106B62
:1031C000126B83C011F1010E136F00010FDE0101BC
:1031D00020D000018151040812E183690101076BCD
:1031E000000188DF833D01D009D00101106B126B13
:1031F00083C011F1020E136F0001F8DD09D081B513
:1032000004D005C107F1ECDE03D005C107F172DF80
:103210000101000145EF19F0A19A825301E13ED06E
:1032200068523CE068A404D069A402D09CEF11F07D
:103230006DA201D033D068AA04D069AA02D0B4EF3D
:1032400011F068A204D069A202D0BBEF11F068A00F
:1032500004D069A002D098EF12F068A804D069A841
:1032600002D0ADEF12F068AC04D069AC02D0B2EF7E
:1032700012F00101046B68A60AD069A608D06CCFD1
:1032800081F0000196EC12F04CD702D0010105D07C
:1032900001010451042B0308EEE2000136EF10F0A7
:1032A0004C6120686F72612065733A200A0D00003E
:1032B000486F72613A2020253032643A25303264FA
:1032C0002E253032640A0D00486F72613A202025A5
:1032D0003032643A253032642E253032640A0D00D3
:1032E00046656368613A20253032642F25303264A8
:1032F0002F253032640A0D0046656368613A202547
:103300003032642F253032642F253032640A0D00AC
:103310006D6A696A080E6F6E94503009946E826B04
:10332000196AF2BE198EF29E7EEC12F019BEF28E70
:103330009BEF19F0EDD7C1EF19F0196AF2BE198EA3
:10334000F29E7EEC12F019BEF28E6D6A140E6F6E54
:10335000696A6D86010E826FB1EF19F06DB601D00A
:10336000ECD7822D0BD06DBA09D0686A696AA08A41
:10337000C00EF212110E696E020E826FC2EF19F0CA
:10338000D9D7ECD782510208FCE1DCEF1CF0080E23
:10339000016E110E006E002EFED78A929392110ECE
:1033A000006E002EFED7ED378A90D8B09380D8A05B
:1033B0009390938281A2FED7012EEBD7110E006E5F
:1033C000002EFED78A92939200009380110E006E19
:1033D000002EFED7110E006E002EFED7938281A222
:1033E000FED7016A110E006E002EFED781B001805B
:1033F0008A9293928A9093901200080EEE6F00C00A
:10340000EFF09380110E006E002EFED7938281A202
:10341000FED781B0D88081A0D8900136110E006E01
:10342000002EFED793928A92EE2FEBD79380110E47
:10343000006E002EFED78A90EF51D8A49390000022
:10344000938281A2FED7110E006E002EFED78A92C3
:103450009392110E006E002EFED78A909390120068
:10346000EEC0EFF0D890EF33780EEF17EF31006E2B
:1034700000323F0E00160050EF25F06FEE510F0B9B
:10348000F025016E1200EBC0ECF0ED6BEC51090879
:1034900005E20A0EEC5F100EED2703D0EC51ED278C
:1034A00001D0F4D7EDC001F0C2EF1AF0EA6BF29C44
:1034B000F29EF2BEFDD79380110E006E002EFED755
:1034C0009382110E006E002EFED78A909390110EFB
:1034D000006E002EFED78A929392D00EED6F57DFCA
:1034E000ED6B55DF9380110E006E002EFED7938298
:1034F000110E006E002EFED781A2FED78A90939007
:10350000110E006E002EFED78A929392D10EED6FAF
:103510003EDF006A72DF01C0EBF001C0EEF0A0DF19
:1035200001C0EAF093900000938281A2FED7110EB1
:10353000006E002EFED700D000009380110E006EAA
:10354000002EFED7EA9F0B0E006E002EFED700D095
:103550009380110E006E002EFED79382110E006E26
:10356000002EFED78A909390110E006E002EFED78B
:103570008A929392D00EED6F0ADFED6B08DFEAC0FE
:10358000EBF081D701C0EBF001C0EDF000DF9380DC
:10359000110E006E002EFED79382110E006E002ECB
:1035A000FED781A2FED78A909390110E006E002E56
:1035B000FED78A929392D00EED6FE9DE070EED6F83
:1035C000E6DEE9C0EDF0E3DE93900000938281A295
:1035D000FED7110E006E002EFED700D000009380A3
:1035E000110E006E002EFED7C00EF212DEEF1CF0A0
:1035F000F291F2BEF281F29EDB513E0802E23E0EF3
:10360000DB6FDB51DB2B036A9C0FE96E000E03209E
:10361000EA6EF1C0EFFFF29EF2B1F28E13EF1BF0F3
:10362000F0C0F1F0E5D7196AF2BE198EF29E020ED3
:103630000101156F0001CBEC16F019BEF28E01529C
:1036400007E0196AF2BE198EF29E3EDD19BEF28EB7
:1036500031EF1BF0DB513E0801E2FCD7EFC0F0F088
:10366000DFD712000900F5520CE0F6CFE9F0F7CFF2
:10367000EAF0F5CFEFF0EEDFE9C0F6FFEAC0F7FFC2
:10368000F1D7B6EF1DF00900F6CFEAF0F7CFEBF077
:10369000F5CFEFF0DFDFEAC0F6FFEBC0F7FFE92F71
:1036A000F2D71200F051016AEF5D03E2EFC000F0C3
:1036B0000CD0006A080EF16FEF370036F051005C55
:1036C000D8B0006E0136F12FF7D71200200EEAA90C
:1036D000300EEB6FE9C000F0E9AF08D0001E002A01
:1036E00000C0E9F02D0EEB6FEA8FEA810150E9C0CE
:1036F000EFF0640EF06FD6DF00C0E9F0300E012469
:10370000EC6FE9C0EFF00A0EF06FCCDF300E002452
:10371000EE6F300E0124ED6FEBC000F0300EEC5D6B
:1037200004E0EA83EABFEA8512D0EAB510D0EBC024
:10373000ECF0EAB304D0300EED5D04E0EA81EABFBC
:10374000EA8305D0D8A4EA81D8B4ECC0EDF0EAB59C
:1037500005D0EAB306D0EAB107D009D0EBC0EFF04C
:1037600079DFECC0EFF076DFEDC0EFF073DFEEC095
:10377000EFF070DF12009EA8FED7EFC0ADFF120081
:103780000900F6CFEAF0F7CFEBF0F5CFEFF0F3DF7B
:10379000EAC0F6FFEBC0F7FFE92FF2D71200200EC8
:1037A000EAA9300EEB6FE9C000F0E9AF08D0001EC7
:1037B000002A00C0E9F02D0EEB6FEA8FEA8101507C
:1037C000E9C0EFF0640EF06F6DDF00C0E9F0300E7D
:1037D0000124EC6FE9C0EFF00A0EF06F63DF300EEA
:1037E0000024EE6F300E0124ED6FEBC000F0300EC0
:1037F000EC5D04E0EA83EABFEA8512D0EAB510D0B6
:10380000EBC0ECF0EAB304D0300EED5D04E0EA81E9
:10381000EABFEA8305D0D8A4EA81D8B4ECC0EDF0C1
:10382000EAB505D0EAB306D0EAB107D009D0EBC0BB
:10383000EFF0A1DFECC0EFF09EDFEDC0EFF09BDF1B
:10384000EEC0EFF098DF1200EA6AEA0EE96EEF5080
:103850000EE00F0E016E006A002EFED7012EFBD780
:103860008F0E006E002EFED70000EF2EF2D743EF32
:103870001EF0F86AD09E078EEA6AE96A1B981B9AC6
:10388000010E296E2A6A796B786BE16BB886E10EBE
:10389000AF6E040EB06EA60EAC6E900EAB6EC15045
:1038A000C00B0F09C16E070EB46E4C0E2B6E750E59
:1038B0002C6E6E0E2D6E650E2E6E730E2F6E306A90
:1038C000316A326A336A346A356A4D0E366E610E79
:1038D000376E720E386E740E396E650E3A6E730E58
:1038E0003B6E3C6A3D6A3E6A3F6A406A4D0E416EDD
:1038F000690E426EE90E436E720E446E630E456EA3
:103900006F0E466E6C0E476E650E486E730E496EF6
:103910004A6A4B6A4A0E4C6E750E4D6E650E4E6EBF
:10392000760E4F6E650E506E730E516E526A536A6C
:10393000546A556A566A560E576E690E586E650E71
:10394000596E720E5A6E6E0E5B6E650E5C6E730E65
:103950005D6E5E6A5F6A606B616B530E626FE10E53
:10396000636F620E646F610E656F640E666F6F0E3B
:10397000676F686B696B6A6B6B6B6C6B440E6D6F1A
:103980006F0E6E6F6D0E6F6F690E706F6E0E716FD2
:10399000670E726F6F0E736F746B756B7E6B040EB8
:1039A0007F6F0C0E806F196AF2BE198EF29E3EEC8C
:1039B00012F019BEF28EE4D4E96B78D5F29CF29E37
:1039C000F2BEFDD79380110E006E002EFED79382BB
:1039D000110E006E002EFED78A909390110E006E8D
:1039E000002EFED78A929392D00EED6FD0DC030E9C
:1039F000ED6FCDDC9380110E006E002EFED793820A
:103A0000110E006E002EFED781A2FED78A909390F1
:103A1000110E006E002EFED78A929392D10EED6F9A
:103A2000B6DC010E006EE9DC01507F0BE96FEE6F32
:103A300017DD01C0E8F0010E006EDFDC01503F0B26
:103A4000E96FEE6F0DDD01C0E5F0010E006ED5DC13
:103A500001501F0BE96FEE6F03DD01C0E6F0006A55
:103A6000CCDC01C0E9F001C0EEF0FADC01C0E7F007
:103A700093900000938281A2FED7110E006E002E5B
:103A8000FED700D000009380110E006E002EFED7EE
:103A9000C00EF212F29CF29EF2BEFDD79380110E80
:103AA000006E002EFED79382110E006E002EFED700
:103AB0008A909390110E006E002EFED78A929392F8
:103AC000D00EED6F64DCED6B62DC9380110E006E46
:103AD000002EFED79382110E006E002EFED781A21B
:103AE000FED78A909390110E006E002EFED78A9218
:103AF0009392D10EED6F4BDC010E006E7EDC015017
:103B00007F0BE96FEE6FACDC01C0E2F0010E006EDE
:103B100074DC01507F0BE96FEE6FA2DC01C0E3F0B3
:103B2000006A6BDC01503F0BE96FEE6F99DC01C05E
:103B3000E4F093900000938281A2FED7110E006EF4
:103B4000002EFED700D000009380110E006E002ED4
:103B5000FED7C00EF2120A0EEF6F7CDD0D0EEF6F76
:103B600079DDA00EF66E320EF76E7CD5B00EF66ED5
:103B7000320EF76E070EE96F86DDE4C0E9F0010E44
:103B8000EA6FA4DD3A0EEF6F65DDE3C0E9F0010EE8
:103B9000EA6F9CDD2E0EEF6F5DDDE2C0E9F0010EF5
:103BA000EA6F94DD0A0EEF6F55DD0D0EEF6F52DDFB
:103BB000C80EF66E320EF76E070EE96FE1DDE4C057
:103BC000E9F0010EEA6FEBDD3A0EEF6FD4DDE3C0F2
:103BD000E9F0010EEA6FE3DD2E0EEF6FCCDDE2C0FF
:103BE000E9F0010EEA6FDBDD0A0EEF6FC4DD0D0EAA
:103BF000EF6FC1DDE00EF66E320EF76E070EE96F65
:103C000042DDE5C0E9F0010EEA6F60DD2F0EEF6FD7
:103C100021DDE6C0E9F0010EEA6F58DD2F0EEF6FEF
:103C200019DDE7C0E9F0010EEA6F50DD0A0EEF6F13
:103C300011DD0D0EEF6F0EDDF80EF66E320EF76E23
:103C4000070EE96F9DDDE5C0E9F0010EEA6FA7DD23
:103C50002F0EEF6F90DDE6C0E9F0010EEA6F9FDDF9
:103C60002F0EEF6F88DDE7C0E9F0010EEA6F97DDF8
:103C70000A0EEF6F80DD0D0EEF6F7DDD0C0EE96F2C
:0E3C8000FA0EEA6FE1D5E92FFBD798D60300C4
:020000040030CA
:0E00000024CE3E1E0085A1000FC00FE00F4071
:00000001FF
;PIC18F4550
;CRC=42DA  CREATED="25-sep-14 20:33"
