:1000000002308A007C2A0000353084008313000807
:10001000031917280230F800F701F70B0D28F80B29
:100020000C289730F700F70B1328800B0A280800DC
:100030000030A00083168701831287018316860192
:100040000130831286000230B4009630B5000420DF
:10005000B40B252883168601023083128600B40073
:100060009630B5000420B40B302883168601043086
:10007000831286000230B4009630B5000420B40B21
:100080003C28831686010830831286000230B400B3
:100090009630B5000420B40B482883168601103032
:1000A000831286000230B400C830B5000420B40BBF
:1000B0005428831686012030831286000230B40053
:1000C000FA30B5000420B40B60288A110A12982A6D
:1000D0008E30F7003508F8003408F900FA01F80806
:1000E000031D7C287908F800F9010830F702F808A8
:1000F000031D7C28F70184280310F81B8328F90DC1
:10010000F80DF7037C28F8138A110A12C52A38085B
:100110000319F728C0003C080319F728C007031883
:1001200098287F30C002031CF7280319F7289C2861
:100130008130C0070318F7284008F700F801F901DB
:10014000FA013908C400C4173A08C3003B08C200CA
:100150001830C000C101421CC5283F08FA07031C23
:10016000B728F90A031DB728F80A0319C1173E0872
:10017000F907031CBE28F80A0319C1173D08BA0085
:10018000BA173A08F8070318C117C10DF80CF90C93
:10019000FA0CC40CC30CC20C0310C00BAA2801300B
:1001A000F7070318F728F81BDC28C40DFA0DF90D22
:1001B000F80DF7030319F728C41FED28FA0A031DE9
:1001C000ED28F90A031DED28F80A031DED28F80CA7
:1001D000F90CFA0CF70A0319F7283908C1003D0891
:1001E000C106C11FF528F817FB28F813FB28F701F3
:1001F000F801F901FA01080038080319C129C400FF
:100200003C080319C129C402031C0B297F30C40711
:100210000318C12911298130C402031CC129031903
:10022000C1294408F700F801F901FA01C3013908AE
:10023000C200C2173A08C1003B08C0001930C40010
:100240003F08C002031834290130C10203183429C1
:10025000C20203183429C30203183429C30AC20A8C
:10026000C10A3F08C00766293E08C10203184F298A
:100270000130C20203184F29C30203184F29C30AD1
:10028000C20A3E08C1073F08C007031C6629C10A0D
:10029000031D6629C20A031D6629C30A66293D0893
:1002A0008038C202031865290130C302031865298A
:1002B000C30A3D088038C2073E08C107031C432912
:1002C000C20A031D4329C30A43297A14C40B6929AE
:1002D00074290310C00DC10DC20DC30D0310FA0D1A
:1002E000F90DF80DC50D2029451C7C290310F80CCB
:1002F000F90CFA0CC50C7F29F7030319C129C51B9A
:10030000A8290310C00DC10DC20DC30D3F08C002C6
:10031000031894290130C10203189429C20203185A
:100320009429C302031CB7293E08C10203189F2960
:100330000130C20203189F29C302031CB7293D08DC
:100340008038C2020318A8290130C302031CB72950
:10035000FA0A031DB729F90A031DB729F80A031D74
:10036000B729F70A0319C129F80CF90CFA0C390856
:10037000C4003D08C406C41FBF29F817C529F813D7
:10038000C529F701F801F901FA018A110A12012BB6
:100390008E30F7003408F7023508F9003608F80007
:1003A000F917F7080319DF290310F908031DDB29E2
:1003B000F8080319DF29F90CF80CF70BD429B51F3D
:1003C000E629F809F909F80A0319F90A8A110A1243
:1003D0000A2B1030B800F701FA01B50CB40C031C5D
:1003E000F7293608F7070318FA0A3708FA07FA0C4C
:1003F000F70CF90CF80CB80BED298A110A126C2BCA
:10040000F801F901F701FA013908031D0A2A380831
:100410000319242A1030BA000310B60DB70DF70DDA
:10042000FA0D39087A02031D172A38087702031CCF
:10043000202A3808F702031CFA033908FA020314C9
:10044000F80DF90DBA0B0C2A08000030A000831635
:1004500087018312350887003408F63E03186D2A99
:100460000A3E6E2A831686013F30831286006D2A6B
:10047000831686010630831286006D2A8316860154
:100480005B30831286006D2A831686014F308312FB
:1004900086006D2A831686016630831286006D2AD7
:1004A000831686016D30831286006D2A83168601BD
:1004B0007D30831286006D2A8316860107308312F1
:1004C00086006D2A831686017F30831286006D2A8E
:1004D000831686016F308312860008000A108A1482
:1004E0000A118207322A382A3E2A442A4A2A502AE6
:1004F000562A5C2A622A682A840183131F308305E6
:10050000713083168F000F08FF308312A00083160E
:1005100003170908C039890003131F129F12003006
:1005200003178800831287018801890103131828A3
:100530001F179F1783169F1783121F148316031705
:100540000908C039890003131F129F1201300317D5
:100550008800031397010030F80083121F08C33985
:1005600078049F000630F700F70BB42A00009F14B0
:100570009F18B82A83161E088312A1001E08A20025
:100580002208B5002108B4006828BB01BA01203058
:10059000B9008130B8007A08BF007908BE00780839
:1005A000BD007708BC0087207708B4007808B50044
:1005B0007908B6007A08B700BB007908BA00780855
:1005C000B9007708B800BF01BE014830BD008530D2
:1005D000BC0087207708B4007808B5007908B60019
:1005E0007A08B700BB007908BA007808B900770824
:1005F000B800BF01C030BE007F30BD008830BC00F5
:10060000FC287A08B7007908B6007808B5007708A2
:10061000B400C8297908A4007808A3001F10240892
:10062000AC002308AB002C08AA002B08A9002A085C
:10063000A8002908A7002808AE002708AD00270851
:100640002D07B4002E08B50028080318280FB50799
:100650002908B4072A0803182A0FB5072B08B4077E
:100660002C0803182C0FB507350CB000340CAF0064
:10067000B00CAF0C3F30B0051F179F1783169F17A4
:1006800083121F14831603170908C0398900031346
:100690001F129F12023003178800031397010430C2
:1006A000F80083121F08C33978049F000630F70052
:1006B000F70B582B00009F149F185C2B83161E0805
:1006C0008312A5001E08A6002608B5002508B40060
:1006D000B7016330B600E9297908B5007808B4009D
:1006E0007908B7007808B6000330B900FF30B800C9
:1006F00000227908A6007808A5001F1030082602FD
:10070000031C8D2B031D882B2F082502031C8D2B0A
:100710008316051183120511912B8316051183127F
:1007200005153008B7002F08B600B9010A30B80027
:1007300000227908B5007808B4007908B700780875
:10074000B600B9010A30B80000227708B1003008BD
:10075000B7002F08B600B9010A30B80000227708A8
:10076000B200B3013308C83C031CC82B3208B400E4
:100770002030B50025220A30B50004203108B4002D
:100780001030B50025220A30B5000420B30AB22B80
:04079000982A630040
:04400E00D420FF3F7C
:00000001FF
;PIC16F886
;CRC=3344  CREATED="04-sep-13 20:07"
