:1000000000308A0071280000233084008313000828
:10001000031917280230F800F701F70B0D28F80B29
:100020000C289730F700F70B1328800B0A280800DC
:100030000030A0008316870183122308870022085E
:10004000F63E031860280A3E6328831686013F3077
:10005000831286006028831686010630831286008C
:100060006028831686015B30831286006028831621
:1000700086014F3083128600602883168601663021
:10008000831286006028831686016D3083128600F5
:100090006028831686017D308312860060288316CF
:1000A00086010730831286006028831686017F3020
:1000B000831286006028831686016F3083128600C3
:1000C0008A110A12B3280A108A100A1182072528F9
:1000D0002B28312837283D28432849284F285528E0
:1000E0005B28840183131F308305713083168F00D2
:1000F0000F08FF308312A000831603170908C039C8
:10010000890003131F129F12003003178800831207
:1001100087018801890103131F179F1783169F17F3
:1001200083121F14831603170908C03989000313AB
:100130001F129F120130031788000313970100302C
:10014000F80083121F08C33978049F000530A3000C
:100150000420A1012108093C031CBC282108A2009D
:100160002030A30018280830A200FA30A300042091
:0C017000A20BB528A10AAA28A928630048
:04400E00D420FF3F7C
:00000001FF
;PIC16F886
;CRC=2A5A  CREATED="08-dic-13 20:43"
