:0420000042EF19F0A2
:08200800046ED8CF05F0E0CF13
:1020100006F00001E9CF0CF0EACF07F0E1CF08F0BD
:10202000E2CF09F0D9CF0AF0DACF0BF0F3CF12F0FC
:10203000F4CF13F0FACF14F0F5CF15F0F6CF16F079
:10204000F7CF17F000C00EF001C00FF002C010F083
:1020500003C011F0A0A230EF10F0A1B217EF11F001
:10206000A0AA36EF10F0A1BA30EF18F00EC000F0C1
:102070000FC001F010C002F011C003F00CC0E9FF66
:1020800007C0EAFF078E08C0E1FF09C0E2FF0AC0EF
:10209000D9FF0BC0DAFF12C0F3FF13C0F4FF14C066
:1020A000FAFF15C0F5FF16C0F6FF17C0F7FF045082
:1020B00006C0E0FF05C0D8FF1000F76ACA0FF66E31
:1020C000200EF7220900F5501200000302FFFFFF67
:1020D000FFFFFFFFFFFFFFFFFFFFF76AEA0FF66E4C
:1020E000200EF7220900F550120000FF02FFFFFF4B
:1020F000FFFFFFFFFFFFFFFFFFFFF76A0A0FF66E0C
:10210000210EF7220900F550120040000B0040009C
:1021100000000000000000000000000000000000BF
:1021200000000000000000000000F76A3A0FF66EA1
:10213000210EF7220900F550120040000000400077
:10214000000000000000000000000000000000008F
:1021500000000000000000000000F76A6A0FF66E41
:10216000210EF7220900F550120009024300020176
:102170000080320904000001020201000524001061
:1021800001042402020524060001052401000107C0
:102190000581030B00FA09040100020A0000000790
:1021A0000502024000010705820240000100F76AB3
:1021B000BE0FF66E210EF7220900F5501200020044
:1021C000F76AD00FF66E210EF7220900F5501200C3
:1021D00012171B20FFFFFFFFF76AE80FF66E210EB4
:1021E000F7220900F5501200120110010200004010
:1021F00061043300000101020001F76A0A0FF66E64
:10220000220EF7220900F550120004030904080306
:102210004300430053001803530045005200490097
:1022200041004C002000440045004D004F00F60ED8
:10223000B36E9F0EB26E1AA008D029501C5C03E347
:1022400093908A8002D093908A901AA208D0295045
:102250001D5C03E393928A8202D093928A921AA41D
:1022600008D029501E5C03E393948A8402D093948F
:102270008A941AA608D029501F5C03E393968A8695
:1022800002D093968A961AA808D02950205C03E3BE
:1022900093988A8802D093988A981AAA08D02950CD
:1022A000215C03E3939A8A8A02D0939A8A9A1AACA1
:1022B00008D02950225C03E3939C8A8C02D0939C23
:1022C0008A9C1AAE08D02950235C03E3939E8A8E21
:1022D00002D0939E8A9E1BA008D02950245C03E361
:1022E00095908C8002D095908C901BA208D029509C
:1022F000265C03E395928C8202D095928C921BA46B
:1023000008D02950275C03E395948C8402D09594DF
:102310008C941BA608D02950285C03E392988988E6
:1023200002D092988998292A29500A0802E2010EBF
:10233000296EA19236EF10F06D92699468A402D0D4
:102340006894FCD73CEF18F0400E0401016F040EB6
:10235000036F180E026F880E006F046B040E076F78
:10236000580E066F0001120070A002D0EDDF7090D1
:10237000689A45EF18F06A6A68924BEF18F0BA91C4
:10238000B9BFBA81B99FB951100803E2000E016EBE
:1023900016D0BAA10BD0036AB9518FDEFF0802E153
:1023A000000E01D0010E016E0AD009D0036AB951A6
:1023B00094DEFF0802E1000E01D0010E016E120052
:1023C000BE51C003F3CF01F0F4CF00F0C103F350CE
:1023D0000026BF51C003F3500020026E1200036AB2
:1023E000B851700FE96E0F0E0320EA6EEF6AB8C0A5
:1023F000B9F0C5DF015222E0BF6BB8C0BEF0C16BBF
:10240000080EC06FDDDF01C0E9FF040E0224EA6E92
:10241000EF6ABF6BB8C0BEF0C16B080EC06FD0DFF3
:1024200002C0BAF001C0B9F0040EB927000EBA23F9
:10243000B9C0E9FF040EBA25EA6EEF6A1200010E78
:10244000B76FB7510F0805E3B7C0B8F0C8DFB72BB7
:10245000F8D71200B16BB06B250EAF6F800EAE6F68
:10246000EA6A3C0EE96EE26AAE0EE16E020E016EA1
:10247000E6CFEEFF012EFCD73E6A3F6AAE6BEA6AFA
:10248000400EE96EE26AAE0EE16EE6CFEEFFAE6B95
:10249000EA6A410EE96EE26AAE0EE16EE6CFEEFF49
:1024A000080EAE6FEA6A420EE96EE26AAE0EE16EA7
:1024B000E6CFEEFF906B1B9C446A436A8C6B8D9158
:1024C000916B1200396A386AAD6BAD5101080AE3AD
:1024D000036AAD513A0FE96E000E0320EA6EEF6A0F
:1024E000AD2BF3D7B7DF2C6A010E2D6E2B6A1200CD
:1024F000689612006A6A686A9F0E6B6E3D0E696E7E
:102500006E6A9DDFDFDF160E706E68A602D0F0DF08
:10251000FCD76D9819DF030E336E51EF18F0698404
:1025200068986D8257EF18F0689C5DEF18F0B2C0A4
:1025300034F0120034681200B06B385039102DE0BE
:10254000B0513F082AE32E5005E0020A09E0010AD3
:102550000DE011D037C003F03650FFDDB16F0BD066
:1025600037C003F0365049DEB16F05D037C003F0F5
:10257000365032DEB16F362AD8B4372A3850D8B444
:1025800039063806B051B02B580FE96E040EEA6ECA
:10259000D8B0EA2AB1C0EFFFD0D73850391004E1E3
:1025A000B051400801E02B6AB0C0B2F0C0DF1200A9
:1025B000376A366A2E6A04011B51010A000107E0DE
:1025C000030A0BE0010A0DE0220A22E03AD0396A40
:1025D000120E386E030E2E6E36D0396A430E386EE8
:1025E00032D0020E2E6E036A04011A512F0FE96ECB
:1025F000000E0320EA6E376AEFCF36F037C003F0E3
:1026000036500001FADD036A386E03C039F01BD082
:10261000036A04011A510001D3DD036A366E03C058
:1026200037F0363C02D037520AE037C003F036505C
:1026300094DD036A386E03C039F005D002D07ADF2A
:1026400011D078DF0FD004011F5308E1395203E1A4
:1026500038501E5D03E2396A1EC438F0010E2B6E3D
:1026600000016ADF55EF14F0AF5304E1040E336E3E
:10267000E6DEC9D0050E336E040EB26F980EB16F50
:10268000010EB06FB0510F08D8A0BDD0B0C0B8F0E7
:10269000A6DEB36B036AB05120DDFF0859E0040EDB
:1026A000B36FD890B035036A40DD0900F5CF03F071
:1026B000B46F03C0B5F0BF6BB0C0BEF0C16B080E05
:1026C000C06F7EDE01C0B7F0010E0124016E000E66
:1026D0000220036E01C0E9FF040E0324EA6EB4C0B9
:1026E000EFFFBF6BB0C0BEF0C16B080EC06F68DEFD
:1026F00001C0B7F0020E0124016E000E0220036E2D
:1027000001C0E9FF040E0324EA6EB2C0ECFFED52F3
:10271000B1C0EFFFD890B035036A07DD0900F5CFEF
:1027200003F0B1270350B223880EB66FB5B1B6815E
:10273000B5B3B683BF6BB0C0BEF0C16B080EC06F3F
:102740003FDE01C0E9FF040E0224EA6EB6C0EFFFCF
:10275000036AB051B2DCFF0840E0B383BF6BB0C086
:10276000BEF0C16B080EC06F2BDE02C0B8F001C016
:10277000B7F0040EB727000EB823020EB725016E7E
:10278000000EB821036E01C0E9FF040E0324EA6EB7
:10279000B2C0ECFFED52B1C0EFFFD890B035036A84
:1027A000ACDC0900F5CF03F0B1270350B223BF6BB7
:1027B000B0C0BEF0C16B080EC06F02DE02C0B8F040
:1027C00001C0B7F0040EB727000EB823B7C0E9FF69
:1027D000040EB825EA6E400EEF6EB351060802E112
:1027E0000E0EB36F036AB05168DC0108D8A4B38938
:1027F000036AB051700FE96E0F0E0320EA6EB3C08A
:10280000EFFFB02B3FD750EF14F004011951000A2D
:1028100000010DE0010A14E0020A1EE0060A27E0AA
:10282000030A2CE00E0A2CE0010A30E03DD02DC056
:1028300058F40401596B020E0001B26F78DE35D0F6
:1028400004011A2D06D0010E2D160001B26B6FDEA9
:1028500002D000016FDE29D004011A2D05D02D828F
:102860000001B26B64DE02D0000164DE1ED0020EF5
:102870002B6E1AC435F0B26B5ADE17D099D615D02C
:102880002CC058F4010EB26F52DE0FD004011A5161
:10289000010808E31AC42CF01AC4AFF00001E4D612
:1028A000B26B45DE000101D045DEC5EF15F02CC04E
:1028B000AFF004011951000A000105E00A0A0BE01B
:1028C000010A26E037D00401586B596B020E000153
:1028D000B26F2DDE30D0AF5319E0010EAF5D036A49
:1028E00066DC016E04011C5DD8A002D000010ED090
:1028F000036A1C513A0FE96E000E0320EA6EEFCF17
:1029000058F4010E0001B26F12DE01D013DE13D0B5
:10291000AF530EE0036A04011C513A0FE96E000E3A
:102920000320EA6E1AC4EFFF0001B26B00DE01D093
:1029300001DE01D0FFDDC5EF15F0B091AFBFB08172
:10294000AF9FB0A117D0BF6BAFC0BEF0C16B080E78
:10295000C06F36DD02C0B2F001C0B1F0040EB12785
:10296000000EB223B1C0E9FF040EB225EA6E880E54
:10297000EF6E0DD0BF6BAFC0BEF0C16B080EC06F65
:102980001FDD01C0E9FF040E0224EA6EEF6A3DEF8D
:1029900015F0B091AFBFB081AF9FB0A117D0BF6BA2
:1029A000AFC0BEF0C16B080EC06F0ADD02C0B2F04E
:1029B00001C0B1F0040EB127000EB223B1C0E9FF8F
:1029C000040EB225EA6E840EEF6E0ED0BF6BAFC060
:1029D000BEF0C16B080EC06FF3DC01C0E9FF040E4E
:1029E0000224EA6E840EEF6E43EF15F0B091AFBF94
:1029F000B081AF9FB0A117D0BF6BAFC0BEF0C16BAD
:102A0000080EC06FDDDC02C0B3F001C0B2F0040EEE
:102A1000B227000EB323B2C0E9FF040EB325EA6E5D
:102A2000EFCFB1F00ED0BF6BAFC0BEF0C16B080EE0
:102A3000C06FC6DC01C0E9FF040E0224EA6EEFCFCE
:102A4000B1F0B1AF02D0B1B502D0000E01D0010E8D
:102A5000016E4DEF15F01CC4B9F091DC015228E075
:102A600004011951010A000105E0020A09E0030A04
:102A70000DE01DD01CC4AFF060D7B26B58DD18D08C
:102A80001CC4AFF086D7B26B52DD12D00401586B74
:102A9000596B1CC4AFF00001A9D7015204E0010E2C
:102AA0000401586F0001020EB26F41DD01D042DD1A
:102AB000C5EF15F0FE0E346E120004011C2D01D07E
:102AC00002D01C5348E11951000A00010BE0010A31
:102AD0000DE0210A1CE0010A1FE0030A2EE0010AB2
:102AE00031E037D0010E916FE5DF34D0040EEA6E8D
:102AF000580EE96EE26A450EE16E080E016EE6CFF1
:102B0000EEFF012EFCD71EC4B2F011DD23D0020E61
:102B1000916F1B8CCFDF1ED0040EEA6E580EE96E4B
:102B2000E26A3C0EE16E070E016EE6CFEEFF012E6B
:102B3000FCD7070EB26FFBDC0DD01AC490F0B26B5D
:102B4000F6DC08D01AC444F01BC443F0B26BEFDCCF
:102B500001D0F0DC04010001C5EF15F02B6A04017F
:102B600018517F0B000A000107E0010A07E0030A81
:102B700007E0230A07E008D048D607D098D605D04A
:102B80006AD703D09AD701D0D5DCE6EF17F0BF6B38
:102B9000B0C0BEF0C16B080EC06F12DC01C0E9FF0F
:102BA000040E0224EA6EEFCFB2F0B151020806E142
:102BB000B2AD02D0B16B02D0010EB16FB1510308BA
:102BC0001AE1840EB26FBF6BB0C0BEF0C16B080ECD
:102BD000C06FE0EC11F002C0B6F001C0B5F0040E19
:102BE000B527000EB623B5C0E9FF040EB625EA6E80
:102BF000840EEF6E07D0B12D03D0C80EB26F02D095
:102C0000880EB26FD890B035036A95EC10F00900C9
:102C1000F5CF03F0B36F03C0B4F0BF6BB0C0BEF02C
:102C2000C16B080EC06FE0EC11F001C0B5F0010EF1
:102C30000124016E000E0220036E01C0E9FF040EA4
:102C40000324EA6EB3C0EFFFB4B1B281B4B3B28370
:102C5000BF6BB0C0BEF0C16B080EC06FE0EC11F0EE
:102C600001C0E9FF040E0224EA6EB2C0EFFF1200B9
:102C7000036ABD51700FE96E0F0E0320EA6EEF522A
:102C800019E0BF6BBDC0BEF0C16B080EC06FE0ECB9
:102C900011F002C0BFF001C0BEF0040EBE27000E4E
:102CA000BF23BEC0E9FF040EBF25EA6EEFCFC0F020
:102CB000C0AF02D0000E01D0010E016E1200B8C0EC
:102CC000BDF0D6DF0152D8B47BD0BF6BB8C0BEF028
:102CD000C16B080EC06FE0EC11F002C0BEF001C085
:102CE000BDF0040EBD27000EBE23010EBD25016EF2
:102CF000000EBE21036E01C0E9FF040E0324EA6E3C
:102D0000B9C0EFFFBB5102081EE1BF6BB8C0BEF0F7
:102D1000C16B080EC06FE0EC11F002C0BEF001C044
:102D2000BDF0040EBD27000EBE23BDC0E9FF040E9A
:102D3000BE25EA6EEFCFBCF0BCAD02D0BB6B02D0BB
:102D4000010EBB6F18D0BB51040815E1BF6BB8C0B2
:102D5000BEF0C16B080EC06FE0EC11F001C0E9FFDE
:102D6000040E0224EA6EEFCFBCF0BCAD03D0010E1E
:102D7000BB6F01D0BB6BBB2D03D0C80EBC6F02D0A4
:102D8000880EBC6FBAB1BC81BAB3BC83BF6BB8C08C
:102D9000BEF0C16B080EC06FE0EC11F002C0BEF0D7
:102DA00001C0BDF0040EBD27000EBE23BDC0E9FF6B
:102DB000040EBE25EA6EBCC0EFFF010E016E02D00C
:102DC000000E016E12009151010A03E0030A13E0A4
:102DD00024D0EA6A450EE96E040EE26E180EE16E2A
:102DE000080E016EE6CFEEFF012EFCD7B26B97EC1A
:102DF00012F0916B13D0EA6A3C0EE96E040EE26E9B
:102E0000180EE16E070E016EE6CFEEFF012EFCD725
:102E1000916BB26B97EC12F001D0916B43EF17F00E
:102E2000BF6BB0C0BEF0C16B080EC06FE0EC11F01C
:102E300002C0B2F001C0B1F0010E0124016E000E1B
:102E40000220036E01C0E9FF040E0324EA6E036A48
:102E5000EFCF01F003C002F039EF17F08D91020EB1
:102E6000B06FB16F94DE12008D818F6B020EB06F68
:102E7000D7D701C08EF08E5301E1F0DF48EF17F095
:102E8000AF5302E1A0D704D0AF51020801E1ECD763
:102E90001200B0C06EFFB05303E0040E336E02D0D8
:102EA000020E336E59EF17F02C6A2B6A35C0B0F062
:102EB000F0D7C5EF17F0B0C0BDF0DADE015243E045
:102EC000BF6BB0C0BEF0C16B080EC06FE0EC11F07C
:102ED00002C0B9F001C0B8F0040EB827000EB92343
:102EE000020EB825016E000EB921036E01C0E9FF84
:102EF000040E0324EA6EECCFB7F0ED52EFCFB6F03C
:102F0000B7C0EAFFB6C0E9FFB2C0E2FFB1C0E1FF5F
:102F1000B4C002F0B3C001F0015202E0022A02D0B4
:102F2000025206E0E6CFEEFF012EFCD7022EFAD7C2
:102F3000B0C0B8F0B4C0BAF0B3C0B9F0B5C0BBF01F
:102F4000BEDE015002D0000E016E12008C530EE066
:102F5000020EB06FB26B4D0EB16FB46B8CC0B3F09C
:102F6000020EB56FA8DF015201E08C6B1200EEDF9C
:102F7000CAEF17F0AF530AE12B2C03D09CEC12F0F0
:102F800004D02B50020801E18FD704D0AF510208C2
:102F900001E1EDD712003230AD6FAD33AD331F0E0E
:102FA000AD17325241E1040100513C0B0001AE6FFC
:102FB000430E040100170001AE5134081EE1040164
:102FC0000451800B01E0046B0001C8D56D98343CBE
:102FD00005D0B06B030EB16FDADD0ED0B06B020E10
:102FE000B16FD5DD3450FE0807E0B86BBA6B34C062
:102FF000B9F0040EBB6F63DE16D0AE51040813E1C6
:10300000AF6B3EDFB06B020EB16FC1DD3450FE0816
:103010000AE0343C01D007D0B86BBA6B34C0B9F0C9
:10302000010EBB6F4CDE1AD0325004080EE134683A
:10303000AF6BA0DF343C01D007D0B86BBA6B34C0A3
:10304000B9F0020EBB6F3BDE09D032B404D0ADC084
:10305000AFF016DF03D0ADC0AFF08CDF67EF18F034
:10306000A19A335201E139D0685237E068A404D004
:1030700069A402D09CEF11F06DA201D02ED068AAF5
:1030800004D069AA02D0B4EF11F068A204D069A2FA
:1030900002D0BBEF11F068A004D069A002D07AEF93
:1030A00012F068A804D069A802D08FEF12F068ACC3
:1030B00004D069AC02D094EF12F0AC6B68A608D0D3
:1030C00069A606D06CCF32F078EC12F064D701D04C
:1030D00004D0AC51AC2B0308F1E236EF10F00A0D2E
:1030E0004C4544203120656E63656E6469646F00F1
:1030F0000A0D4C4544203220656E63656E64696438
:103100006F000A0D4C4544203320656E63656E6484
:1031100069646F000A0D4C4544203420656E636578
:103120006E6469646F000A0D4C4544203520656E5D
:1031300063656E6469646F006D6A696A080E6F6E1C
:1031400094503009946E336A196AF2BE198EF29E59
:1031500062EC12F019BEF28EAFEF18F0EDD7D5EF9A
:1031600018F0196AF2BE198EF29E62EC12F019BEC6
:10317000F28E6D6A140E6F6E696A6D86010E336E83
:10318000C5EF18F06DB601D0ECD7332C0BD06DBA6B
:1031900009D0686A696AA08AC00EF212110E696EBF
:1031A000020E336ED6EF18F0D9D7ECD733500208A1
:1031B000FCE158EF19F02C50016E69EF19F08DB158
:1031C00001D0FDD78F518F2BA30FE96E040EEA6E4D
:1031D000D8B0EA2AEFCF95F08E518F5D07E3196AD8
:1031E000F2BE198EF29E3ADE19BEF28E95C001F043
:1031F0006CEF19F09A91F2BE9A81F29E8C513E08C2
:1032000002E23E0E8C6F8C518C2B036A4D0FE96EDF
:10321000000E0320EA6E99C0EFFFF29E9AB1F28E83
:1032200015EF19F098C099F0E5D7196AF2BE198E1A
:10323000F29E020EBD6F1CDD19BEF28E015207E038
:10324000196AF2BE198EF29E81DE19BEF28E30EF3F
:1032500019F08C513E0801E2FCD797C098F0E2D7F4
:103260003CEF19F00900F5520CE0F6CF95F0F7CFDE
:1032700096F0F5CF97F0EDD795C0F6FF96C0F7FF23
:10328000F1D71200F86AD09E078EEA6AE96A1B98A5
:103290001B9A010E296E2A6AC150C00B0F09C16E1C
:1032A000070EB46E2F6A040E306E0C0E316E7CD792
:1032B000C050C00B0709C06EC09EC280C150C00B79
:1032C0000E09C16E000E016EC250C30B0110C26E1A
:1032D00072D7015238E073D701C094F0945333E0B1
:1032E000010E945DFB0F2FE2050FA5EF19F0DE0E26
:1032F000F66E300EF76EB6DF936A010E8A6E23D03B
:10330000F00EF66E300EF76EADDF936A040E8A6E25
:103310001AD0020EF66E310EF76EA4DF936A080E15
:103320008A6E11D0140EF66E310EF76E9BDF936A23
:10333000100E8A6E08D0260EF66E310EF76E92DFF2
:10334000936A200E8A6EC4D70300E824F76AF73622
:10335000650FF66E330EF7220A00F550FA6E08007C
:0E336000F550F96EEE3200331233243336335B
:020000040030CA
:0E00000024CE3E1E0085A1000FC00FE00F4071
:00000001FF
;PIC18F4550
;CRC=5101  CREATED="30-abr-15 20:58"
