:1000000000EF08F062961200046ED8CF05F0E0CF42
:1000100006F00001E9CF0CF0EACF07F0E1CF08F0DD
:10002000E2CF09F0D9CF0AF0DACF0BF0F3CF12F01C
:10003000F4CF13F0FACF14F0F5CF15F0F6CF16F099
:10004000F7CF17F000C00EF001C00FF002C010F0A3
:1000500003C011F0A0A430EF00F0A1B449EF07F005
:100060000EC000F00FC001F010C002F011C003F08C
:100070000CC0E9FF07C0EAFF078E08C0E1FF09C016
:10008000E2FF0AC0D9FF0BC0DAFF12C0F3FF13C0B2
:10009000F4FF14C0FAFF15C0F5FF16C0F6FF17C035
:1000A000F7FF045006C0E0FF05C0D8FF1000F76A54
:1000B000BE0FF66E000EF7220900F5501200000385
:1000C00002FFFFFFFFFFFFFFFFFFFFFFFFFFF76ADA
:1000D000DE0FF66E000EF7220900F550120000FF49
:1000E00002FFFFFFFFFFFFFFFFFFFFFFFFFFF76ABA
:1000F000FE0FF66E000EF7220900F5501200080000
:1001000008004000000000000000000000000000A7
:100110000000000000000000000000000000F76A7E
:100120002E0FF66E010EF7220900F550120008009E
:10013000000040000000000000000000000000007F
:100140000000000000000000000000000000F76A4E
:100150005E0FF66E010EF7220900F550120009023B
:10016000430002010080FA090400000102020100BC
:1001700005240010010424020205240600010524C0
:10018000010001070581030800FA09040100020AC1
:10019000000000070502024000010705820240003E
:1001A0000100F76AB20FF66E010EF7220900F55052
:1001B00012000200F76AC40FF66E010EF722090062
:1001C000F550120012171B20FFFFFFFFF76ADC0F2C
:1001D000F66E010EF7220900F5501200120110010F
:1001E00002000008D8040200000101020001F76AC1
:1001F000FE0FF66E010EF7220900F55012000403FF
:1002000009040C0347002D005000690043002C0333
:1002100047002D00500069004300200044006F009B
:100220006F007200200043006F006E0074007200C7
:100230006F006C006C00650072006492609462A4B0
:1002400002D06294FCD755EF07F0080E0201016F4F
:10025000020E036F180E026F880E006F046B020E01
:10026000076F200E066F000112000F0153A104D08A
:100270000001EBDF0F015391629A00015EEF07F07E
:100280000F015F6B6292000164EF07F09A9199BFD2
:100290009A81999F9951100803E2000E016E16D0C1
:1002A0009AA10BD0036A995102DFFF0802E1000E08
:1002B00001D0010E016E0AD009D0036A995107DFFF
:1002C000FF0802E1000E01D0010E016E1200036A68
:1002D0009851530FE96E0F0E0320EA6EEF6A98C033
:1002E00099F0D4DF015218E09851080DF3509A6B41
:1002F000E96E020E9A25EA6EEF6A9851080DF350E6
:100300009A6B996F040E9927000E9A2399C0E9FF02
:10031000020E9A25EA6EEF6A1200010E976F97514E
:10032000070805E397C098F0D2DF972BF8D71200A3
:10033000916B906B250E8F6F800E8E6FEA6A290E7F
:10034000E96EE26A8E0EE16E020E016EE6CFEEFFFE
:10035000012EFCD72B6A2C6A8E6BEA6A2D0EE96E91
:10036000E26A8E0EE16EE6CFEEFF8E6BEA6A2E0E2B
:10037000E96EE26A8E0EE16EE6CFEEFF080E8E6F3A
:10038000EA6A2F0EE96EE26A8E0EE16EE6CFEEFFAC
:100390007E6B7D91316A306A796B7A9112008D6B38
:1003A0008D5101080AE3036A8D51270FE96E000E93
:1003B0000320EA6EEF6A8D2BF3D7BADF1B6A010EBA
:1003C0001C6E1A6A12000F015F6B626A9F0E5B6FF0
:1003D0003D0E606E5C6B0001A0DFE1DF160E0F01C9
:1003E000536F62A604D000010DDE0F01FAD76498A6
:1003F00000012BDF030E226E6AEF07F06084629823
:10040000648270EF07F0629C76EF07F092C023F0F1
:10041000120023681200906B265225E090510708C5
:1004200022E31D5005E0020A08E0010A0BE00ED0AD
:10043000036A25508CDE916F09D0036A2550D7DE00
:10044000916F04D0036A2550C1DE916F252A2606DC
:100450009051902B036A200FE96E020E0320EA6E82
:1004600091C0EFFFD9D7265204E19051080801E06E
:100470001A6A90C092F0CADF1200256A1D6A020152
:100480001B51010A000107E0030A0AE0010A0BE020
:10049000220A1BE02BD0120E266E030E1D6E28D0F2
:1004A000430E266E25D0020E1D6E036A02011A51FC
:1004B0001E0FE96E000E0320EA6EEFCF25F0036AEF
:1004C0002550000194DE266E13D0036A02011A51F2
:1004D000000170DE256E253C01D006D0036A255050
:1004E00036DE266E05D002D094DF0ED092DF0CD01F
:1004F00002011F5305E126501E5D02E21EC226F0D6
:10050000010E1A6E000187DF8FEF03F08F5304E1B5
:10051000040E226E02DFB1D0050E226E020E926F23
:10052000280E916F010E906F90510708D8A0A5D0AA
:1005300090C098F0CCDE936B036A9051C8DDFF0841
:100540004DE0040E936FD8909035036AE8DD090002
:10055000F5CF03F0946F03C095F09051080DF35060
:10056000986B976F010E9725016E000E9821036E10
:1005700001C0E9FF020E0324EA6E94C0EFFF905120
:10058000080DF350986B976F020E9725016E000EC1
:100590009821036E01C0E9FF020E0324EA6E92C0A7
:1005A000ECFFED5291C0EFFFD8909035036AB7DDB4
:1005B0000900F5CF03F0912703509223880E966F20
:1005C00095B1968195B396839051080DF350986B31
:1005D000E96E020E9825EA6E96C0EFFF036A90510D
:1005E00066DDFF0834E093839051080DF350986B5B
:1005F000976F040E9727000E9823020E9725016E21
:10060000000E9821036E01C0E9FF020E0324EA6E7A
:1006100092C0ECFFED5291C0EFFFD8909035036A85
:1006200066DD0900F5CF03F0912703509223905126
:10063000080DF350986B976F040E9727000E9823C0
:1006400097C0E9FF020E9825EA6E400EEF6E9351B7
:10065000060802E10E0E936F036A905128DD01082F
:10066000D8A49389036A9051530FE96E0F0E0320AB
:10067000EA6E93C0EFFF902B57D78AEF03F0020189
:100680001951000A00010DE0010A14E0020A1EE0FF
:10069000060A27E0030A2CE00E0A2CE0010A30E0EB
:1006A0003DD01CC020F20201216B020E0001926FAE
:1006B000ADDE35D002011A2D06D0010E1C16000148
:1006C000926BA4DE02D00001A4DE29D002011A2D13
:1006D00005D01C820001926B99DE02D0000199DEE8
:1006E0001ED0020E1A6E1AC224F0926B8FDE17D043
:1006F000C4D615D01BC020F2010E926F87DE0FD03A
:1007000002011A51010808E31AC21BF01AC28FF045
:100710000001FCD6926B7ADE000101D07ADEE1EFB7
:1007200004F01BC08FF002011951000A000105E01E
:100730000A0A0BE0010A26E037D00201206B216B88
:10074000020E0001926F62DE30D08F5319E0010E6D
:100750008F5D036A26DD016E02011C5DD8A002D008
:1007600000010ED0036A1C51270FE96E000E032012
:10077000EA6EEFCF20F2010E0001926F47DE01D04A
:1007800048DE13D08F530EE0036A02011C51270F7D
:10079000E96E000E0320EA6E1AC2EFFF0001926BB1
:1007A00035DE01D036DE01D034DEE1EF04F0909189
:1007B0008FBF90818F9F90A111D08F51080DF35062
:1007C000926B916F040E9127000E922391C0E9FF66
:1007D000020E9225EA6E880EEF6E09D08F51080D39
:1007E000F350926BE96E020E9225EA6EEF6A59EFB2
:1007F00004F090918FBF90818F9F90A111D08F5165
:10080000080DF350926B916F040E9127000E922306
:1008100091C0E9FF020E9225EA6E840EEF6E0AD0B7
:100820008F51080DF350926BE96E020E9225EA6E1D
:10083000840EEF6E5FEF04F090918FBF90818F9FD9
:1008400090A111D08F51080DF350936B926F040E4D
:100850009227000E932392C0E9FF020E9325EA6EC1
:10086000EFCF91F00AD08F51080DF350936BE96EE2
:10087000020E9325EA6EEFCF91F091AF02D091B5C1
:1008800002D0000E01D0010E016E69EF04F01CC20F
:1008900099F0FCDC015228E002011951010A000123
:1008A00005E0020A09E0030A0DE01DD01CC28FF02A
:1008B0007ED7926BABDD18D01CC28FF09AD7926BAB
:1008C000A5DD12D00201206B216B1CC28FF000014C
:1008D000B3D7015204E0010E0201206F0001020EA5
:1008E000926F94DD01D095DDE1EF04F0FE0E236EF2
:1008F000120002011C2D01D002D01C5348E11951F5
:10090000000A00010BE0010A0DE0210A1CE0010AC7
:100910001FE0030A2EE0010A31E037D0010E806F9C
:10092000E5DF34D0020EEA6E200EE96EE26A320E86
:10093000E16E080E016EE6CFEEFF012EFCD71EC25F
:1009400092F064DD23D0020E806F7D81CFDF1ED058
:10095000020EEA6E200EE96EE26A290EE16E070EC3
:10096000016EE6CFEEFF012EFCD7070E926F4EDD33
:100970000DD01AC27EF0926B49DD08D01AC231F058
:100980001BC230F0926B42DD01D043DD0201000159
:10099000E1EF04F01A6A020118517F0B000A00010E
:1009A00007E0010A07E0030A07E0230A07E008D08E
:1009B00066D607D0B6D605D06AD703D09AD701D06D
:1009C00028DDC3EF06F09051080DF350966BE96EE9
:1009D000020E9625EA6EEFCF92F09151020806E1E1
:1009E00092AD02D0916B02D0010E916F915103082C
:1009F00013E1840E926F9051080DF350966B956F32
:100A0000040E9527000E962395C0E9FF020E962549
:100A1000EA6E840EEF6E07D0912D03D0C80E926F50
:100A200002D0880E926FD8909035036A8FEC00F058
:100A30000900F5CF03F0936F03C094F09051080DB7
:100A4000F350966B956F010E9525016E000E962161
:100A5000036E01C0E9FF020E0324EA6E93C0EFFFAC
:100A600094B1928194B392839051080DF350966B98
:100A7000E96E020E9625EA6E92C0EFFF1200036A3D
:100A80009D51530FE96E0F0E0320EA6EEF5212E0F4
:100A90009D51080DF3509F6B9E6F040E9E27000E14
:100AA0009F239EC0E9FF020E9F25EA6EEFCFA0F0C4
:100AB000A0AF02D0000E01D0010E016E120098C04E
:100AC0009DF0DDDF015261E09851080DF3509E6BFF
:100AD0009D6F040E9D27000E9E23010E9D25016E25
:100AE000000E9E21036E01C0E9FF020E0324EA6E90
:100AF00099C0EFFF9B51020817E19851080DF35080
:100B00009E6B9D6F040E9D27000E9E239DC0E9FFE6
:100B1000020E9E25EA6EEFCF9CF09CAD02D09B6B3F
:100B200002D0010E9B6F13D09B51040810E1985125
:100B3000080DF3509E6BE96E020E9E25EA6EEFCF14
:100B40009CF09CAD03D0010E9B6F01D09B6B9B2D45
:100B500003D0C80E9C6F02D0880E9C6F9AB19C8106
:100B60009AB39C839851080DF3509E6B9D6F040EB1
:100B70009D27000E9E239DC0E9FF020E9E25EA6E72
:100B80009CC0EFFF010E016E02D0000E016E12003C
:100B90008051010A05E0020A14E0010A16E026D09D
:100BA000EA6A320EE96E020EE26E180EE16E080E6F
:100BB000016EE6CFEEFF012EFCD7030E806F96DEAE
:100BC00016D0926B23DC806B12D0EA6A290EE96E94
:100BD000020EE26E180EE16E070E016EE6CFEEFF1A
:100BE000012EFCD7806B926B11DC01D0806B25EF5E
:100BF00006F09051080DF350926B916F010E912504
:100C0000016E000E9221036E01C0E9FF020E032463
:100C1000EA6E036AEFCF01F003C002F01BEF06F0AB
:100C20007A91020E906F916FCEDE12007A817C6B0A
:100C3000020E906FDED701C07BF07B5301E1F0DF45
:100C40002AEF06F08F5302E1A3D704D08F51020898
:100C500001E1ECD7120090C05CFF905303E0040E5A
:100C6000226E02D0020E226E3BEF06F01B6A1A6A59
:100C700024C090F0F0D7A2EF06F090C09DF0FFDE08
:100C800001523CE09051080DF350996B986F040E9F
:100C90009827000E9923020E9825016E000E9921C7
:100CA000036E01C0E9FF020E0324EA6EECCF97F059
:100CB000ED52EFCF96F097C0EAFF96C0E9FF92C0E1
:100CC000E2FF91C0E1FF94C002F093C001F0015235
:100CD00002E0022A02D0025206E0E6CFEEFF012E29
:100CE000FCD7022EFAD790C098F094C09AF093C027
:100CF00099F095C09BF0E3DE015002D0000E016E2A
:100D00008DEF06F0020E906F926B3A0E916F946B1E
:100D100079C093F0020E956FB0D779C07FF0796BF0
:100D200095EF06F0795301E0EDD7A7EF06F08F536A
:100D30000AE11A2C03D00BEC02F004D01A5002087E
:100D400001E194D704D08F51020801E1EBD71200E2
:100D500021308D6F8D338D331F0E8D17215241E160
:100D6000020100513C0B00018E6F430E020100177F
:100D700000018E5134081EE102010451800B01E094
:100D8000046B000107D66498233C05D0906B030EDA
:100D9000916F19DE0ED0906B020E916F14DE23500E
:100DA000FE0807E0986B9A6B23C099F0040E9B6FC6
:100DB00086DE16D08E51040813E18F6B43DF906BF3
:100DC000020E916F00DE2350FE080AE0233C01D0A2
:100DD00007D0986B9A6B23C099F0010E9B6F6FDE62
:100DE00056D02150040812E1430E02010417236873
:100DF00000018F6B9CDF233C01D007D0986B9A6B6E
:100E000023C099F0020E9B6F5ADE41D021B41BD053
:100E10008D51080DF350906B016E020E9025036EFC
:100E20008D51080DF350946BE96E020E9425EA6E15
:100E3000EF50430B03C0EAFF01C0E9FFEF6E8DC026
:100E40008FF000DF24D08D51080DF350906B8F6F21
:100E5000040E8F27000E9023020E9025036E8D51F5
:100E6000080DF350946B936F040E9327000E942398
:100E700093C0E9FF020E9425EA6EEF50430B03C0C6
:100E8000EAFF8FC0E9FFEF6E8DC08FF050DF80EF7B
:100E900007F0A194225201E139D0625237E062A4F6
:100EA00004D060A402D01DEF01F064A201D02ED0C6
:100EB00062AA04D060AA02D035EF01F062A204D089
:100EC00060A202D040EF01F062A004D060A002D086
:100ED000E3EF01F062A804D060A802D0FEEF01F0B9
:100EE00062AC04D060AC02D003EF02F08C6B62A65F
:100EF00008D060A606D063CF21F002EC00F028D71E
:100F000001D004D08C518C2B0308F1E230EF00F0BB
:100F1000EA6A830EE96EEF500EE00F0E016E006A72
:100F2000002EFED7012EFBD78F0E006E002EFED7AF
:100F30000000EF2EF2D71DEF08F0646A606A616A64
:100F400092500309926E226A196AF2BE198EF29EBD
:100F5000CFEC01F019BEF28EAFEF07F0EED7D5EF70
:100F600007F0196AF2BE198EF29ECFEC01F019BE9D
:100F7000F28E646A140E616E606A6486010E226EDF
:100F8000C5EF07F064B601D0ECD7222C0BD064BAC1
:100F900009D0626A606AA084C00EF212110E606EFF
:100FA000020E226ED6EF07F0D9D7ECD722500208F6
:100FB000FCE1E2EF07F01B5202E10400FCD7E3EF93
:100FC00007F0F2D7F8D724EF08F07AB101D0FDD7B7
:100FD0007C517C2B036A300FE96E020E0320EA6E0F
:100FE000EFCF82F07B517C5D07E3196AF2BE198E68
:100FF000F29E16DE19BEF28E82C001F027EF08F0D5
:10100000F86AD09E078EEA6AE96A226A266A796BD4
:10101000806B7D93000E7E6EC190C192C194C1968B
:101020007F6E6B6A6D6A1E6A040E1F6E0C0E206E58
:10103000040E826FFA0E836F6BD7822FFBD7949CBE
:101040008B9C949E8B9EBDD77AA117D0BED701C032
:1010500081F0812D01D003D08151310805E1949CAC
:101060008B8C949E8B8E09D0815303E08151300884
:0E10700004E1949C8B9C949E8B9EE6D703001B
:020000040030CA
:0E00000020F2181E0008890003C003E0034030
:00000001FF
;PIC18F14K50
;CRC=6440  CREATED="27-jun-13 20:32"
