:04200000C9EF19F01B
:08200800046ED8CF05F0E0CF13
:1020100006F00001E9CF0CF0EACF07F0E1CF08F0BD
:10202000E2CF09F0D9CF0AF0DACF0BF0F3CF12F0FC
:10203000F4CF13F0FACF14F0F5CF15F0F6CF16F079
:10204000F7CF17F000C00EF001C00FF002C010F083
:1020500003C011F0A0A230EF10F0A1B28FEF11F089
:10206000A0AA36EF10F0A1BA26EF17F00EC000F0CC
:102070000FC001F010C002F011C003F00CC0E9FF66
:1020800007C0EAFF078E08C0E1FF09C0E2FF0AC0EF
:10209000D9FF0BC0DAFF12C0F3FF13C0F4FF14C066
:1020A000FAFF15C0F5FF16C0F6FF17C0F7FF045082
:1020B00006C0E0FF05C0D8FF1000F76ACA0FF66E31
:1020C000200EF7220900F5501200000303FFFFFF66
:1020D000FFFFFFFFFFFFFFFFFFFFF76AEA0FF66E4C
:1020E000200EF7220900F550120000FF03FFFFFF4A
:1020F000FFFFFFFFFFFFFFFFFFFFF76A0A0FF66E0C
:10210000210EF7220900F5501200400008000800D7
:1021100000000000000000000000000000000000BF
:1021200000000000000000000000F76A3A0FF66EA1
:10213000210EF7220900F5501200400000000400B3
:10214000000000000000000000000000000000008F
:1021500000000000000000000000F76A6A0FF66E41
:10216000210EF7220900F550120005010902A10114
:102170000901A1000509190129031500250195038D
:10218000750181029501750581010501093009314B
:1021900009381581257F750895038106C0C00501A2
:1021A0000906A101050719E029E7150025017501B8
:1021B000950881029501750881019505750105084D
:1021C000190129059102950175039101950575087D
:1021D000150025650507190029658100C000F76A0B
:1021E000EE0FF66E210EF7220900F55012000000E6
:1021F0003400F76A020FF66E220EF7220900F5503E
:10220000120034003F00F76A160FF66E220EF72216
:102210000900F55012000902420002010080FA098B
:102220000400000103010200092100010001223421
:10223000000705810308000A0904010002030101E7
:1022400000092100010001223F0007058203080068
:102250000A0705020304000AF76A680FF66E220EE9
:10226000F7220900F55012000200F76A7A0FF66EA5
:10227000220EF7220900F550120012002B00F76A17
:102280008E0FF66E220EF7220900F5501200120191
:10229000100100000040610455000001010200012E
:1022A000F76AB00FF66E220EF7220900F550120001
:1022B00000040C00F76AC40FF66E220EF722090024
:1022C000F550120004030A080C0347002D005000CB
:1022D000690043002E0347002D00500069004300B1
:1022E000200055005300420020004B00650079009B
:1022F00062006F006100720064002F004D006F00EB
:10230000750073006500F76A160FF66E230EF7224C
:102310000900F55012002076656365732100F60E02
:10232000B36E9F0EB26E1AA008D029501C5C03E356
:1023300093908A8002D093908A901AA208D0295054
:102340001D5C03E393928A8202D093928A921AA42C
:1023500008D029501E5C03E393948A8402D093949E
:102360008A941AA608D029501F5C03E393968A86A4
:1023700002D093968A961AA808D02950205C03E3CD
:1023800093988A8802D093988A981AAA08D02950DC
:10239000215C03E3939A8A8A02D0939A8A9A1AACB0
:1023A00008D02950225C03E3939C8A8C02D0939C32
:1023B0008A9C1AAE08D02950235C03E3939E8A8E30
:1023C00002D0939E8A9E1BA008D02950245C03E370
:1023D00095908C8002D095908C901BA208D02950AB
:1023E000265C03E395928C8202D095928C921BA47A
:1023F00008D02950275C03E395948C8402D09594EF
:102400008C941BA608D02950285C03E392988988F5
:1024100002D092988998292A29500A0802E2010ECE
:10242000296EA19236EF10F06D92699468A402D0E3
:102430006894FCD732EF17F0400E0401016F040ED0
:10244000036F180E026F880E006F046B040E076F87
:10245000580E066F0001120070A002D0EDDF7090E0
:10246000689A3BEF17F06A6A689241EF17F09B9108
:102470009ABF9B819A9F9A51100803E2000E016E49
:1024800016D09BA10BD0036A9A5117DEFF0802E118
:10249000000E01D0010E016E0AD009D0036A9A51D4
:1024A0001CDEFF0802E1000E01D0010E016E1200D9
:1024B000036A9951700FE96E0F0E0320EA6EEF6AFE
:1024C00099C09AF0D4DF015218E09951080DF350E9
:1024D0009B6BE96E040E9B25EA6EEF6A9951080D1D
:1024E000F3509B6B9A6F040E9A27000E9B239AC0A1
:1024F000E9FF040E9B25EA6EEF6A1200010E986F49
:1025000098510F0805E398C099F0D2DF982BF8D7BF
:1025100012008E6B8E5101080AE3036A8E51350F4B
:10252000E96E000E0320EA6EEF6A8E2BF3D72C6A59
:10253000010E2D6E2B6A1200689612006A6A686A94
:102540009F0E6B6E3D0E696E6E6AD8DFE2DF160E6F
:10255000706E68A602D0F0DFFCD76D986DDF030EB9
:10256000306E47EF17F0698468986D824DEF17F071
:10257000689C53EF17F093C031F0120031681200DD
:10258000916B345229E091513F0826E32E50FC0F05
:1025900016E2040FF6EF12F0036A335034DE926F46
:1025A0000ED0036A3350D9DD926F09D0036A3350DD
:1025B00081DE926F04D0036A335061DE926F332A5A
:1025C00034069151912B036A580FE96E040E0320D3
:1025D000EA6E92C0EFFFD5D7345204E19151400822
:1025E00001E02B6A91C093F0C6DF1200E824F76A7D
:1025F000F736070FF66E260EF7220A00F550FA6E30
:102600000800F550F96E9825A225AC25B625336A49
:102610002E6A04011B51010A000109E0030A0CE0C3
:10262000010A0DE0220A18E0030A2BE047D0120E3F
:10263000346E030E2E6E44D0420E346E41D0020E24
:102640002E6E036A04011A5100012ADE336E036AFA
:10265000335030DE346E34D0D89004011A35036A1A
:10266000000103DE0900F5CF03F0336E333C01D0E7
:1026700006D0036A3350C7DD346E22D002D07EDF2D
:102680002BD0D89004011C35036A0001A8DD090095
:10269000F5CF03F0336E333C01D00ED0010E2E6E19
:1026A000D89004011C35036A0001A3DD0900F5CFB1
:1026B00003F0346E05D002D061DF0ED05FDF0CD0A6
:1026C00004011F5305E134501E5D02E21EC434F0C4
:1026D000010E2B6E000154DF1200905304E1040E32
:1026E000306E0CDFB1D0050E306E040E936F980E75
:1026F000926F010E916F91510F08D8A0A5D091C093
:1027000099F0D6DE946B036A9151E7DCFF084DE047
:10271000040E946FD8909135036A07DD0900F5CF58
:1027200003F0956F03C096F09151080DF350996B2B
:10273000986F010E9825016E000E9921036E01C05D
:10274000E9FF040E0324EA6E95C0EFFF9151080DD6
:10275000F350996B986F020E9825016E000E992127
:10276000036E01C0E9FF040E0324EA6E93C0ECFF80
:10277000ED5292C0EFFFD8909135036AD6DC090084
:10278000F5CF03F0922703509323880E976F96B1ED
:10279000978196B397839151080DF350996BE96E29
:1027A000040E9925EA6E97C0EFFF036A915185DC0C
:1027B000FF0834E094839151080DF350996B986FA2
:1027C000040E9827000E9923020E9825016E000E24
:1027D0009921036E01C0E9FF040E0324EA6E93C041
:1027E000ECFFED5292C0EFFFD8909135036A85DC83
:1027F0000900F5CF03F09227035093239151080D60
:10280000F350996B986F040E9827000E992398C087
:10281000E9FF040E9925EA6E400EEF6E945106080A
:1028200002E10E0E946F036A915147DC0108D8A4AF
:102830009489036A9151700FE96E0F0E0320EA6EBE
:1028400094C0EFFF912B57D771EF14F00401195189
:10285000000A00010DE0010A14E0020A1EE0060A67
:1028600027E0030A2CE00E0A2CE0010A30E03DD0FC
:102870002DC058F40401596B020E0001936F7BDEEA
:1028800035D004011A2D06D0010E2D160001936BD0
:1028900072DE02D0000172DE29D004011A2D05D0AB
:1028A0002D820001936B67DE02D0000167DE1ED02F
:1028B000020E2B6E1AC432F0936B5DDE17D0A7DECA
:1028C00015D02CC058F4010E936F55DE0FD00401C3
:1028D0001A51010808E31AC42CF01AC490F0000140
:1028E000FCD6936B48DE000101D048DE7EEF15F088
:1028F0002CC090F004011951000A000107E00A0AF7
:102900000DE0010A28E00D0A38E039D00401586BC7
:10291000596B020E0001936F2EDE32D0905319E0F6
:10292000010E905D036A98DC016E04011C5DD8A065
:1029300002D000010ED0036A1C51350FE96E000E63
:102940000320EA6EEFCF58F4010E0001936F13DEFF
:1029500001D014DE15D090530EE0036A04011C511F
:10296000350FE96E000E0320EA6E1AC4EFFF000176
:10297000936B01DE01D002DE03D049DE01D0FEDD23
:102980007EEF15F0919190BF9181909F91A111D010
:102990009051080DF350936B926F040E9227000E26
:1029A000932392C0E9FF040E9325EA6E880EEF6E22
:1029B00009D09051080DF350936BE96E040E9325E6
:1029C000EA6EEF6A44EF15F0919190BF9181909F6C
:1029D00091A111D09051080DF350936B926F040E9A
:1029E0009227000E932392C0E9FF040E9325EA6E0E
:1029F000840EEF6E0AD09051080DF350936BE96E80
:102A0000040E9325EA6E840EEF6E4AEF15F0919155
:102A100090BF9181909F91A111D09051080DF350DA
:102A2000946B936F040E9327000E942393C0E9FFD9
:102A3000040E9425EA6EEFCF92F00AD09051080D63
:102A4000F350946BE96E040E9425EA6EEFCF92F08A
:102A500092AF02D092B502D0000E01D0010E016EED
:102A600054EF15F01CC49AF002DD015228E0040175
:102A70001951010A000105E0020A09E0030A0DE00C
:102A80001DD01CC490F07ED7936B75DD18D01CC48C
:102A900090F09AD7936B6FDD12D00401586B596B8D
:102AA0001CC490F00001B3D7015204E0010E0401F0
:102AB000586F0001020E936F5EDD01D05FDD7EEF87
:102AC00015F004011951000159DD7EEF15F02B6A54
:102AD000040118517F0B000A000107E0010A07E01A
:102AE000030A07E0230A07E008D0B0D607D000D7D2
:102AF00005D0B8D703D0E5D701D040DDA0EF16F060
:102B00009051080DF350966BE96E040E9625EA6E0F
:102B1000EFCF92F09151020806E192AD02D0916B95
:102B200002D0010E916F9151030813E1840E926F50
:102B30009051080DF350966B956F040E9527000E7B
:102B4000962395C0E9FF040E9625EA6E840EEF6E7B
:102B500007D0912D03D0C80E926F02D0880E926FCD
:102B6000D8909035036A95EC10F00900F5CF03F08A
:102B7000936F03C094F09051080DF350966B956FCE
:102B8000010E9525016E000E9621036E01C0E9FF2E
:102B9000040E0324EA6E93C0EFFF94B1928194B3C4
:102BA00092839051080DF350966BE96E040E9625B2
:102BB000EA6E92C0EFFF1200036A9551700FE96E42
:102BC0000F0E0320EA6EEF5212E09551080DF350FC
:102BD000976B966F040E9627000E972396C0E9FF19
:102BE000040E9725EA6EEFCF98F098AF02D0000E52
:102BF00001D0010E016E120090C095F0DDDF015290
:102C000061E09051080DF350966B956F040E952777
:102C1000000E9623010E9525016E000E9621036E7F
:102C200001C0E9FF040E0324EA6E91C0EFFF935147
:102C3000020817E19051080DF350966B956F040E42
:102C40009527000E962395C0E9FF040E9625EA6E9F
:102C5000EFCF94F094AD02D0936B02D0010E936F3E
:102C600013D09351040810E19051080DF350966B66
:102C7000E96E040E9625EA6EEFCF94F094AD03D082
:102C8000010E936F01D0936B932D03D0C80E946FF8
:102C900002D0880E946F92B1948192B39483905134
:102CA000080DF350966B956F040E9527000E962332
:102CB00095C0E9FF040E9625EA6E94C0EFFF010E61
:102CC000016E02D0000E016E1200905300E112005E
:102CD00091C06EFF915303E0040E306E02D0020EDD
:102CE000306E78EF16F02C6A2B6A32C091F0F0D774
:102CF00084EF16F0905308E12B2C02D041DC04D075
:102D00002B50020801E1EFD712002F308E6F8E3367
:102D10008E331F0E8E172F5241E1040100513C0BE0
:102D200000018F6F430E0401001700018F5134081A
:102D30001EE104010451800B01E0046B0001C7D6C1
:102D40006D98313C05D0906B030E916FD9DE0ED09B
:102D5000906B020E916FD4DE3150FE0807E0906B4D
:102D6000926B31C091F0040E936F46DF16D08F51F5
:102D7000040813E1906BA9DF906B020E916FC0DE27
:102D80003150FE080AE0313C01D007D0906B926BC5
:102D900031C091F0010E936F2FDF56D02F500408F1
:102DA00012E1430E0401041731680001906BA2DFA9
:102DB000313C01D007D0906B926B31C091F0020E84
:102DC000936F1ADF41D02FB41BD08E51080DF350F2
:102DD000916B016E040E9125036E8E51080DF35018
:102DE000956BE96E040E9525EA6EEF50430B03C018
:102DF000EAFF01C0E9FFEF6E8EC090F066DF24D0DD
:102E00008E51080DF350916B906F040E9027000EB9
:102E10009123040E9125036E8E51080DF350956B8E
:102E2000946F040E9427000E952394C0E9FF040EBE
:102E30009525EA6EEF50430B03C0EAFF90C0E9FF0F
:102E4000EF6E8EC090F056DF5DEF17F0A19A305212
:102E500001E139D0685237E068A404D069A402D0F7
:102E600014EF12F06DA201D02ED068AA04D069AA86
:102E700002D02CEF12F068A204D069A202D033EF86
:102E800012F068A004D069A002D09EEF12F068A8EA
:102E900004D069A802D0B3EF12F068AC04D069ACDA
:102EA00002D0B8EF12F08D6B68A608D069A606D0E4
:102EB0006CCF2FF09CEC12F028D701D004D08D51AC
:102EC0008D2B0308F1E236EF10F06D6A696A080E87
:102ED0006F6E94503009946E306A196AF2BE198E82
:102EE000F29E89EC12F019BEF28E78EF17F0EDD752
:102EF0009EEF17F0196AF2BE198EF29E89EC12F05D
:102F000019BEF28E6D6A140E6F6E696A6D86010EBF
:102F1000306E8EEF17F06DB601D0ECD7302C0BD0A1
:102F20006DBA09D0686A696AA08AC00EF212110EE1
:102F3000696E020E306E9FEF17F0D9D7ECD7305084
:102F40000208FCE1B9EF17F0EA6A7C0EE96EEF5077
:102F50000EE00F0E016E006A002EFED7012EFBD789
:102F60008F0E006E002EFED70000EF2EF2D712005B
:102F7000E4D7020E786FFA0E7C6FE6DF782FFBD76E
:102F8000ECEF19F037827C51210804E11E0E016E2E
:102F9000DFD083D07C51220804E1340E016ED8D0FA
:102FA0007CD07C51230804E1200E016ED1D075D075
:102FB0007C51240804E1210E016ECAD06ED07C51F0
:102FC000250804E1220E016EC3D067D07C5126088B
:102FD00004E1240E016EBCD060D07C512F0804E1C6
:102FE000540E016EB5D059D07C51280804E1260E4C
:102FF000016EAED052D07C51290804E1270E016E3B
:10300000A7D04BD07C515F0804E12D0E016EA0D0FB
:1030100044D07C512B0804E1570E016E99D03DD06D
:103020007C517B0804E12F0E016E92D036D07C518A
:103030007D0804E1300E016E8BD02FD07C517C08CE
:1030400004E1310E016E84D028D07C513A0804E1AD
:10305000330E016E7DD021D07C513C0804E1360E48
:10306000016E76D01AD07C513E0804E1370E016E15
:103070006FD013D07C513F0804E1380E016E68D048
:103080000CD07C51400808E27C515A0805E33D0E03
:103090007C5D016E5DD001D037927C51600807E203
:1030A0007C517A0804E35D0E7C5D016E51D07C5149
:1030B000300807E27C51390804E3130E7C5D016E91
:1030C00047D07C51300803E1270E016E41D07C517E
:1030D000200803E12C0E016E3BD07C512D0803E14A
:1030E0002D0E016E35D07C513D0803E12E0E016E90
:1030F0002FD07C515B0803E12F0E016E29D07C514B
:103100005D0803E1300E016E23D07C515C0803E1C1
:10311000310E016E1DD07C513B0803E1330E016E70
:1031200017D07C51270803E1340E016E11D07C5179
:103130002C0803E1360E016E0BD07C512E0803E102
:10314000370E016E05D07C512A0802E1550E016E42
:1031500013EF19F0196AF2BE198EF29E7CC095F039
:103160002BDD19BEF28E015242E07C51080DF35066
:10317000856B846F040E8427000E8523020E842540
:10318000016E000E8521036E01C0E9FF040E0324C9
:10319000EA6EECCF83F0ED52EFCF82F083C0EAFF0E
:1031A00082C0E9FF7EC0E2FF7DC0E1FF80C002F087
:1031B0007FC001F0015202E0022A02D0025206E072
:1031C000E6CFEEFF012EFCD7022EFAD7196AF2BE27
:1031D000198EF29E7CC090F080C092F07FC091F07A
:1031E00081C093F009DD19BEF28E015002D0000EAD
:1031F000016E12007B2D01D009D07B51020806E040
:103200007B51040803E07B51080803E17B5137261A
:103210000CD07B517F0804E2640E7B5D396E05D0D3
:103220007BC07CF0AFD601C039F0020E7C6F7E6BA4
:10323000370E7D6F806B070E7F6F020E816F8ADF06
:103240000F0E7C6F81DE1200376A396A020E7C6FC6
:103250007E6B370E7D6F806B070E7F6F020E816F66
:1032600079DF0F0E7C6F70DE1200426A036A4250F3
:103270007825E96E79510320EA6EEF520EE0036A79
:1032800042507825E96E79510320EA6EEFCF7AF04B
:103290007AC07BF0AFDF422AE9D7D6DF12007B513C
:1032A000016A7A5D03E27AC000F00CD0006A080E71
:1032B0007C6F7A3700367B51005CD8B0006E0136E7
:1032C0007C2FF7D7120044C0EAFF43C0E9FF7AC061
:1032D000EFFFE92AD8B4EA2AEF6A432AD8B4442A8D
:1032E0001200015078C07AF0640E7B6FD8DF00C006
:1032F00078F00150300E07E179A30CD079B70AD0ED
:1033000079B9200E03D0799779997981012601C086
:103310007AF0D9DF78C07AF00A0E7B6FC0DF00C088
:1033200078F00150300E06E179B708D079A106D0C7
:1033300079B9200E012601C07AF0C5DF300E78275A
:1033400078C07AF0C0DF2DEF1AF07AC07BF052DF40
:103350007BDFC7EF19F0426A036A42507825E96EB5
:1033600079510320EA6EEF520EE0036A425078254D
:10337000E96E79510320EA6EEFCF7AF07AC07BF0E4
:1033800039DF422AE9D760DF8C0E7A6FDED741EF52
:103390001AF0F86AD09E078EEA6AE96A1B981B9AAF
:1033A000010E296E2A6AB886E10EAF6E040EB06E69
:1033B000A60EAC6E900EAB6E95988C88959C8C8CFE
:1033C000306A346A446A436AC150C00B0F09C16E47
:1033D000070EB46E456ACCD5928880B859D0452A7C
:1033E000480E466E610E476E730E486E200E496E93
:1033F000700E4A6E720E4B6E650E4C6E730E4D6EF5
:10340000690E4E6E6F0E4F6E6E0E506E610E516EE7
:10341000640E526E6F0E536E200E546E650E556E16
:103420006C0E566E200E576E620E586E6F0E596EF1
:10343000740E5A6E6F0E5B6E6E0E5C6E200E5D6EBD
:103440005E6A796B460E786F10DF446A460E436EF3
:1034500045C078F01B0E796F44D7796B460E786FB4
:1034600004DFEA6A460EE96E000E83EC11F00A00F2
:103470000900F550EE6E0009FBE1796B460E786F9E
:103480006AD7020E786FFA0E7C6F5EDD782FFBD75D
:04349000A3D70300BB
:020000040030CA
:0E00000024CE3E1E0085A1000FC00FE00F4071
:00000001FF
;PIC18F4550
;CRC=DF4A  CREATED="18-Feb-13 11:07"
