:1000000016EF00F0EA6A070EE96EEF500EE00F0EF1
:10001000016E006A002EFED7012EFBD78F0E006EF8
:10002000002EFED70000EF2EF2D71200F86AD09E05
:10003000EA6AE96A000E7E6EC190C192C194C196CF
:100040007F6E6B6A6D6A040E066EFA0E076EDADF5B
:10005000062EFBD7939E8A9E100E016EC250C30BD4
:100060000110C26E100E7E6EC190C192C194C196F5
:10007000000E7F6EC050C00B0709C06EC08EC280DC
:10008000010E076EBFDFC282C2B2FED7C3CF04F03B
:10009000C4CF05F0010E076EB5DF0550020807E377
:1000A00003E10450000803E3939E8A8E02D0939EDE
:0600B0008A9EE9D703005F
:020000040030CA
:0E00000020F2181E0008890003C003E0034030
:00000001FF
;PIC18F14K50
;CRC=C4E9  CREATED="28-jun-13 16:51"
