:0420000068EF17F07E
:08200800046ED8CF05F0E0CF13
:1020100006F00001E9CF0CF0EACF07F0E1CF08F0BD
:10202000E2CF09F0D9CF0AF0DACF0BF0F3CF12F0FC
:10203000F4CF13F0FACF14F0F5CF15F0F6CF16F079
:10204000F7CF17F000C00EF001C00FF002C010F083
:1020500003C011F0A0A230EF10F0A1B20BEF11F00D
:10206000A0AA36EF10F0A1BA90EF16F00EC000F063
:102070000FC001F010C002F011C003F00CC0E9FF66
:1020800007C0EAFF078E08C0E1FF09C0E2FF0AC0EF
:10209000D9FF0BC0DAFF12C0F3FF13C0F4FF14C066
:1020A000FAFF15C0F5FF16C0F6FF17C0F7FF045082
:1020B00006C0E0FF05C0D8FF1000F76ACA0FF66E31
:1020C000200EF7220900F55012000003FFFFFFFF6A
:1020D000FFFFFFFFFFFFFFFFFFFFF76AEA0FF66E4C
:1020E000200EF7220900F550120040000900000000
:1020F00000000000000000000000000000000000E0
:1021000000000000000000000000F76A1A0FF66EE1
:10211000210EF7220900F55012000600FF0901A167
:1021200001190129081580257F7508950881021974
:10213000012908750895089102C0F76A4A0FF66EE2
:10214000210EF7220900F55012000000F76A5C0F1B
:10215000F66E210EF7220900F55012002000F76AF2
:102160006E0FF66E210EF7220900F55012000902DB
:102170002900010100803209040000020300000070
:102180000921000100012220000705810309000A3E
:102190000705010309000A00F76AA80FF66E210E71
:1021A000F7220900F55012000100F76ABA0FF66E27
:1021B000210EF7220900F55012001200F76ACC0F29
:1021C000F66E210EF7220900F550120012011001DF
:1021D0000000004061042000000101020001F76AD4
:1021E000EE0FF66E210EF7220900F55012000403DF
:1021F00009040A034D00540043001C034800490031
:102200004400200049006E00740065007200660002
:10221000610063006500F60EB36E9F0EB26E1AA0E9
:1022200008D029501C5C03E393908A8002D09390DD
:102230008A901AA208D029501D5C03E393928A82E7
:1022400002D093928A921AA408D029501E5C03E30C
:1022500093948A8402D093948A941AA608D0295021
:102260001F5C03E393968A8602D093968A961AA8F7
:1022700008D02950205C03E393988A8802D0939871
:102280008A981AAA08D02950215C03E3939A8A8A73
:1022900002D0939A8A9A1AAC08D02950225C03E3A0
:1022A000939C8A8C02D0939C8A9C1AAE08D02950A9
:1022B000235C03E3939E8A8E02D0939E8A9E1BA08A
:1022C00008D02950245C03E395908C8002D095902F
:1022D0008C901BA208D02950265C03E395928C8237
:1022E00002D095928C921BA408D02950275C03E35E
:1022F00095948C8402D095948C941BA608D0295078
:10230000285C03E39298898802D092988998292AB8
:1023100029500A0802E2010E296EA19236EF10F050
:102320006D92699468A402D06894FCD79CEF16F073
:10233000400E0401016F040E036F100E026F880E31
:10234000006F046B040E076F500E066F0001120041
:1023500070A002D0EDDF7090689AA5EF16F06A6A5F
:102360006892ABEF16F0629161BF6281619F61512B
:10237000100803E2000E016E16D062A10BD0036AB2
:1023800061519BDEFF0802E1000E01D0010E016EDB
:102390000AD009D0036A615190DEFF0802E1000E05
:1023A00001D0010E016E1200036A6051700FE96ED8
:1023B0000F0E0320EA6EEF6A60C061F0D4DF0152B5
:1023C00018E06051080DF350626BE96E040E62254F
:1023D000EA6EEF6A6051080DF350626B616F040E94
:1023E0006127000E622361C0E9FF040E6225EA6ED8
:1023F000EF6A1200010E5F6E5F500F0805E35FC0C9
:1024000060F0D2DF5F2AF8D71200396A386A556A5D
:1024100055520AE1036A55503A0FE96E000E032047
:10242000EA6EEF6A552AF4D72C6A010E2D6E2B6ADC
:102430001200689612006A6A686A9F0E6B6E3D0E03
:10244000696E6E6AD7DFE1DF160E706E68A602D085
:10245000F0DFFCD76D986CDF030E336EB1EF16F032
:10246000698468986D82B7EF16F0689CBDEF16F02E
:102470005AC034F0120034681200586A38503910CB
:1024800032E058503F082FE32E50FC0F1AE2040FA1
:102490007EEF12F037C003F0365061DE596E11D076
:1024A00037C003F0365031DE596E0BD037C003F021
:1024B000365095DE596E05D037C003F036507EDEBB
:1024C000596E362AD8B4372A3850D8B43906380667
:1024D0005850582A036A500FE96E040E0320EA6E22
:1024E00059C0EFFFCBD73850391004E1585040089D
:1024F00001E02B6A58C05AF0BBDF1200E824F76AEB
:10250000F736170FF66E250EF7220A00F550FA6E11
:102510000800F550F96E9424A024AC24B824376A3E
:10252000366A2E6A04011351010A000109E0030A08
:102530000DE0010A0FE0220A24E0030A3EE05FD02A
:10254000396A120E386E030E2E6E5BD0396A290E70
:10255000386E57D0020E2E6E036A040112512F0FEF
:10256000E96E000E0320EA6E376AEFCF36F037C00F
:1025700003F03650000133DE036A386E03C039F0D1
:1025800040D0D89004011235036A00010EDE090024
:10259000F5CF03F0366E03C037F0363C02D0375229
:1025A0000AE037C003F03650DADD036A386E03C044
:1025B00039F027D002D05FDF33D0D8900401143532
:1025C000036A0001BADD0900F5CF03F0366E03C0DF
:1025D00037F0363C02D0375210E0010E2E6ED89004
:1025E00004011435036A0001B1DD0900F5CF03F0E1
:1025F000386E03C039F005D002D03DDF11D03BDF8B
:102600000FD00401175308E1395203E13850165D29
:1026100003E2396A16C438F0010E2B6E00012DDF7B
:102620001200575204E1040E336EE4DEB1D0050E01
:10263000336E040E5A6E900E596E010E586E58503D
:102640000F08D8A0A5D058C060F0AEDE5B6A036A60
:10265000585033DDFF084DE0040E5B6ED8905834BF
:10266000036A3BDD0900F5CF03F05C6E03C05DF04B
:102670005850080DF350606B5F6E010E5F24016EC1
:10268000000E6021036E01C0E9FF040E0324EA6E10
:102690005CC0EFFF5850080DF350606B5F6E020E88
:1026A0005F24016E000E6021036E01C0E9FF040E7D
:1026B0000324EA6E5AC0ECFFED5259C0EFFFD890E8
:1026C0005834036A0ADD0900F5CF03F05926035098
:1026D0005A22880E5E6E5DB05E805DB25E8258509A
:1026E000080DF350606BE96E040E6025EA6E5EC063
:1026F000EFFF036A5850E1DCFF0834E05B8258507A
:10270000080DF350606B5F6E040E5F26000E6023B1
:10271000020E5F24016E000E6021036E01C0E9FF0E
:10272000040E0324EA6E5AC0ECFFED5259C0EFFFCD
:10273000D8905834036AD1DC0900F5CF03F059264C
:1027400003505A225850080DF350606B5F6E040E10
:102750005F26000E60235FC0E9FF040E6025EA6E6D
:10276000400EEF6E5B50060802E10E0E5B6E036AD0
:102770005850A3DC0108D8A45B88036A5850700F36
:10278000E96E0F0E0320EA6E5BC0EFFF582A57D7A1
:1027900015EF14F004011151000A00010DE0010AC7
:1027A00014E0020A1EE0060A27E0030A2CE00E0AE3
:1027B0002CE0010A30E03DD02DC050F40401516BF3
:1027C000020E5A6E000154DE35D00401122D06D0DF
:1027D000010E2D165A6A00014BDE02D000014BDEBD
:1027E00029D00401122D05D02D825A6A000140DE45
:1027F00002D0000140DE1ED0020E2B6E12C435F056
:102800005A6A36DE17D08BDE15D02CC050F4010E7C
:102810005A6E2EDE0FD004011251010808E312C4D3
:102820002CF012C457F00001FCD65A6A21DE0001D8
:1028300001D021DE22EF15F02CC057F00401115118
:10284000000A000107E00A0A0DE0010A28E00D0A6B
:1028500038E039D00401506B516B020E5A6E000102
:1028600007DE32D0575219E0010E575C036A94DC40
:10287000016E0401145DD8A002D000010ED0036ADD
:1028800014513A0FE96E000E0320EA6EEFCF50F4B8
:10289000010E5A6E0001ECDD01D0EDDD15D057526E
:1028A0000EE0036A040114513A0FE96E000E032092
:1028B000EA6E12C4EFFF5A6A0001DADD01D0DBDDF7
:1028C00003D02DDE01D0D7DD22EF15F0589057BE92
:1028D0005880579E58A011D05750080DF3505A6A8F
:1028E000596E040E5926000E5A2259C0E9FF040EF3
:1028F0005A24EA6E880EEF6E09D05750080DF35037
:102900005A6AE96E040E5A24EA6EEF6AE8EF14F090
:10291000589057BE5880579E58A011D05750080D58
:10292000F3505A6A596E040E5926000E5A2259C0A5
:10293000E9FF040E5A24EA6E840EEF6E0AD0575057
:10294000080DF3505A6AE96E040E5A24EA6E840E9A
:10295000EF6EEEEF14F0589057BE5880579E58A077
:1029600011D05750080DF3505B6A5A6E040E5A2668
:10297000000E5B225AC0E9FF040E5B24EA6EEFCF23
:1029800059F00AD05750080DF3505B6AE96E040EF7
:102990005B24EA6EEFCF59F059AE02D059B402D0A1
:1029A000000E01D0010E016EF8EF14F014C461F0B6
:1029B000DADC015228E004011151010A000105E0AE
:1029C000020A09E0030A0DE01DD014C457F07ED7B7
:1029D0005A6A4EDD18D014C457F09AD75A6A48DDA7
:1029E00012D00401506B516B14C457F00001B3D7DF
:1029F000015204E0010E0401506F0001020E5A6EF4
:102A000037DD01D038DD22EF15F00401115100014E
:102A100032DD22EF15F02B6A040110517F0B000A02
:102A2000000107E0010A07E0030A07E0230A07E0C4
:102A300008D0B0D607D000D705D0B8D703D0E5D797
:102A400001D019DD40EF16F05750080DF3505D6AC4
:102A5000E96E040E5D24EA6EEFCF59F0585002087B
:102A600006E159AC02D0586A02D0010E586E585097
:102A7000030813E1840E596E5750080DF3505D6A38
:102A80005C6E040E5C26000E5D225CC0E9FF040E45
:102A90005D24EA6E840EEF6E07D0582C03D0C80E6A
:102AA000596E02D0880E596ED8905734036A6DEC77
:102AB00010F00900F5CF03F05A6E03C05BF05750D9
:102AC000080DF3505D6A5C6E010E5C24016E000E11
:102AD0005D20036E01C0E9FF040E0324EA6E5AC0B4
:102AE000EFFF5BB059805BB259825750080DF3502D
:102AF0005D6AE96E040E5D24EA6E59C0EFFF1200B4
:102B0000036A5C50700FE96E0F0E0320EA6EEF52FD
:102B100012E05C50080DF3505E6A5D6E040E5D2697
:102B2000000E5E225DC0E9FF040E5E24EA6EEFCF68
:102B30005FF05FAE02D0000E01D0010E016E1200F8
:102B400057C05CF0DDDF015261E05750080DF350D3
:102B50005D6A5C6E040E5C26000E5D22010E5C2434
:102B6000016E000E5D20036E01C0E9FF040E032418
:102B7000EA6E58C0EFFF5A50020817E15750080D8F
:102B8000F3505D6A5C6E040E5C26000E5D225CC034
:102B9000E9FF040E5D24EA6EEFCF5BF05BAC02D080
:102BA0005A6A02D0010E5A6E13D05A50040810E12E
:102BB0005750080DF3505D6AE96E040E5D24EA6E0D
:102BC000EFCF5BF05BAC03D0010E5A6E01D05A6AB6
:102BD0005A2C03D0C80E5B6E02D0880E5B6E59B0C3
:102BE0005B8059B25B825750080DF3505D6A5C6E92
:102BF000040E5C26000E5D225CC0E9FF040E5D241D
:102C0000EA6E5BC0EFFF010E016E02D0000E016E96
:102C10001200575200E1120058C06EFF585203E0F4
:102C2000040E336E02D0020E336E1CEF16F02C6AC7
:102C30002B6A35C058F0F0D728EF16F0575208E14C
:102C40002B2C02D01ADC04D02B50020801E1EFD764
:102C500012003230556E553255321F0E5516325213
:102C600041E1040100513C0B566E430E00175650D3
:102C700034081EE10451800B01E0046B0001CBD647
:102C80006D98343C05D0576A030E586EDDDE0ED0C9
:102C9000576A020E586ED8DE3450FE0807E0576AB5
:102CA000596A34C058F0040E5A6E4ADF18D0040135
:102CB0005650040815E1576A0001ABDF576A020E4F
:102CC000586EC2DE3450FE080AE0343C01D007D012
:102CD000576A596A34C058F0010E5A6E31DF040148
:102CE0001CD00001325004080EE13468576AA6DF98
:102CF000343C01D007D0576A596A34C058F0020EEC
:102D00005A6E1EDF09D032B404D055C057F081DFAF
:102D100003D055C057F092DF04010001C7EF16F051
:102D2000A19A335201E139D0685237E068A404D047
:102D300069A402D090EF11F06DA201D02ED068AA44
:102D400004D069AA02D0A8EF11F068A204D069A249
:102D500002D0AFEF11F068A004D069A002D01BEF41
:102D600012F068A804D069A802D030EF12F068AC65
:102D700004D069AC02D035EF12F0546A68A608D0CE
:102D800069A606D06CCF32F019EC12F062D701D0F0
:102D900004D05450542A0308F1E236EF10F06D6A63
:102DA000696A080E6F6E94503009946E336A196A1E
:102DB000F2BE198EF29E05EC12F019BEF28EE2EF11
:102DC00016F0EDD707EF17F0196AF2BE198EF29ED2
:102DD00005EC12F019BEF28E6D6A140E6F6E696A00
:102DE0006D86010E336EF8EF16F06DB601D0ECD79C
:102DF000332C0BD06DBA09D0686A696AA08AC00EFC
:102E0000F212110E696E020E336E1200DAD7EDDF88
:102E100033500208FCE194EF17F02C5202E1040059
:102E2000FCD798EF17F02C50016E9BEF17F0196A42
:102E3000F2BE198EF29E43C05CF062DE19BEF28EC5
:102E4000015242E04350080DF3504C6A4B6E040EA1
:102E50004B26000E4C22020E4B24016E000E4C201D
:102E6000036E01C0E9FF040E0324EA6EECCF4AF0C2
:102E7000ED52EFCF49F04AC0EAFF49C0E9FF45C033
:102E8000E2FF44C0E1FF47C002F046C001F001523A
:102E900002E0022A02D0025206E0E6CFEEFF012E47
:102EA000FCD7022EFAD7196AF2BE198EF29E43C0E1
:102EB00057F047C059F046C058F048C05AF040DEBD
:102EC00019BEF28E015002D0000E016EA9EF17F06C
:102ED000F86AD09E078EEA6AE96A1B981B9A010E6F
:102EE000296E2A6AB886E10EAF6E040EB06EA60E89
:102EF000AC6E900EAB6E95988C88959C8C8CC15066
:102F0000C00B0F09C16E070EB46E2F6A040E306E2F
:102F10000C0E316E3B6A3C6A3D6A3E6A3F6A406A0B
:102F2000416A010E426E72D7C00EF212A08A75D7A6
:102F3000939C8A8C78D701520CE057DF010E436EC8
:102F4000456A3B0E446E476A080E466E020E486E96
:062F50006ED7F0D703006C
:020000040030CA
:0E00000020CE3E1E0005A1000FC00FE00F40F5
:00000001FF
;PIC18F4550
;CRC=602D  CREATED="15-jul-13 12:43"
