:04180000E8EF0DF010
:08180800046ED8CF05F0E0CF1B
:1018100006F00001E9CF0CF0EACF07F0E1CF08F0C5
:10182000E2CF09F0D9CF0AF0DACF0BF0F3CF12F004
:10183000F4CF13F0FACF14F0F5CF15F0F6CF16F081
:10184000F7CF17F000C00EF001C00FF002C010F08B
:1018500003C011F0A0A230EF0CF0A1B257EF0CF0D2
:101860000EC000F00FC001F010C002F011C003F074
:101870000CC0E9FF07C0EAFF078E08C0E1FF09C0FE
:10188000E2FF0AC0D9FF0BC0DAFF12C0F3FF13C09A
:10189000F4FF14C0FAFF15C0F5FF16C0F6FF17C01D
:1018A000F7FF045006C0E0FF05C0D8FF1000F60E99
:1018B000B36E9F0EB26E19A008D027501B5C03E3D5
:1018C00093908A8002D093908A9019A208D02750D2
:1018D0001C5C03E393928A8202D093928A9219A4A9
:1018E00008D027501D5C03E393948A8402D093941C
:1018F0008A9419A608D027501E5C03E393968A8623
:1019000002D093968A9619A808D027501F5C03E34B
:1019100093988A8802D093988A9819AA08D0275059
:10192000205C03E3939A8A8A02D0939A8A9A19AC2C
:1019300008D02750215C03E3939C8A8C02D0939CAF
:101940008A9C19AE08D02750225C03E3939E8A8EAE
:1019500002D0939E8A9E1AA008D02750235C03E3EE
:1019600095908C8002D095908C901AA208D0275028
:10197000245C03E395928C8202D095928C921AA4F7
:1019800008D02750255C03E395948C8402D095946D
:101990008C941AA608D02750265C03E39298898875
:1019A00002D092988998272A27500A0802E2010E4D
:1019B000276EA19230EF0CF02D50016A2C5C03E2EF
:1019C0002CC000F00CD0006A080E2E6E2C360036AB
:1019D0002D50005CD8B0006E01362E2EF7D70EEFDA
:1019E0000DF01AB810D02A5011080DE02A50120834
:1019F0000AE0950EB16EF60EB36E9F0EB26EC00E7B
:101A0000F212A0821A882A5011080BE02A501208FC
:101A100008E02BC02CF00A0E2D6ECED701C02BF0A3
:101A200008D01ABA06D0000E0509CA6E640ECB6E35
:101A30001A8A2B52D8A458D02A501BE0010A1DE064
:101A4000030A1FE0010A21E0070A23E0010A25E05A
:101A5000030A27E0010A29E00F0A2BE0010A2DE022
:101A6000030A2FE0010A31E01A0A33E0030A36E0E4
:101A70003AD0199093908A9036D0199293928A9284
:101A800032D0199493948A942ED0199693968A966C
:101A90002AD0199893988A9826D0199A939A8A9A54
:101AA00022D0199C939C8A9C1ED0199E939E8A9E3C
:101AB0001AD01A9095908C9016D01A9295928C927A
:101AC00012D01A9495948C940ED01A969298899864
:101AD0000AD0F00EBA1694928B9205D0F00EBD1675
:101AE00094948B9400D05DD02A501BE0010A1DE035
:101AF000030A1FE0010A21E0070A23E0010A25E0AA
:101B0000030A27E0010A29E00F0A2BE0010A2DE071
:101B1000030A2FE0010A31E01A0A33E0030A38E031
:101B200040D019802BC01BF03CD019822BC01CF078
:101B300038D019842BC01DF034D019862BC01EF06C
:101B400030D019882BC01FF02CD0198A2BC020F060
:101B500028D0198C2BC021F024D0198E2BC022F054
:101B600020D01A802BC023F01CD01A822BC024F066
:101B700018D01A842BC025F014D01A862BC026F05A
:101B800010D094928B920C0EBA6E2BC0BBFF09D072
:101B900094948B940C0EBD6EB76AB66A2BC0BEFFD0
:101BA00000D0FEEF0DF0EA6A2A0EE96EEF500EE06B
:101BB0000F0E016E006A002EFED7012EFBD78F0E8E
:101BC000006E002EFED70000EF2EF2D707EF0EF0CA
:101BD000F86AD09E078EEA6AE96A1A981A9A010E84
:101BE000276E286A296AC150C00B0F09C16E070E03
:101BF000B46E1D0E2A6E29C02BF0F3D6030E2926D3
:101C000029506408D8A0296A640E2A6ECCD7F1D76F
:021C10000300CF
:020000040030CA
:0E00000024CE3E1E0085A1000FC00FE00F4071
:00000001FF
;PIC18F4550
;CRC=5043  CREATED="25-sep-14 20:11"
