:042000007FEF1CF062
:08200800046ED8CF05F0E0CF13
:1020100006F00001E9CF0CF0EACF07F0E1CF08F0BD
:10202000E2CF09F0D9CF0AF0DACF0BF0F3CF12F0FC
:10203000F4CF13F0FACF14F0F5CF15F0F6CF16F079
:10204000F7CF17F000C00EF001C00FF002C010F083
:1020500003C011F0A0A230EF10F0A1B217EF11F001
:10206000A0AA36EF10F0A1BA31EF18F00EC000F0C0
:102070000FC001F010C002F011C003F00CC0E9FF66
:1020800007C0EAFF078E08C0E1FF09C0E2FF0AC0EF
:10209000D9FF0BC0DAFF12C0F3FF13C0F4FF14C066
:1020A000FAFF15C0F5FF16C0F6FF17C0F7FF045082
:1020B00006C0E0FF05C0D8FF1000F76ACA0FF66E31
:1020C000200EF7220900F5501200000302FFFFFF67
:1020D000FFFFFFFFFFFFFFFFFFFFF76AEA0FF66E4C
:1020E000200EF7220900F550120000FF02FFFFFF4B
:1020F000FFFFFFFFFFFFFFFFFFFFF76A0A0FF66E0C
:10210000210EF7220900F550120040000B0040009C
:1021100000000000000000000000000000000000BF
:1021200000000000000000000000F76A3A0FF66EA1
:10213000210EF7220900F550120040000000400077
:10214000000000000000000000000000000000008F
:1021500000000000000000000000F76A6A0FF66E41
:10216000210EF7220900F550120009024300020176
:102170000080320904000001020201000524001061
:1021800001042402020524060001052401000107C0
:102190000581030B00FA09040100020A0000000790
:1021A0000502024000010705820240000100F76AB3
:1021B000BE0FF66E210EF7220900F5501200020044
:1021C000F76AD00FF66E210EF7220900F5501200C3
:1021D00012171B20FFFFFFFFF76AE80FF66E210EB4
:1021E000F7220900F5501200120110010200004010
:1021F00061043300000101020001F76A0A0FF66E64
:10220000220EF7220900F550120004030904080306
:102210004300430053001803530045005200490097
:1022200041004C002000440045004D004F00F60ED8
:10223000B36E9F0EB26E1AA008D029501C5C03E347
:1022400093908A8002D093908A901AA208D0295045
:102250001D5C03E393928A8202D093928A921AA41D
:1022600008D029501E5C03E393948A8402D093948F
:102270008A941AA608D029501F5C03E393968A8695
:1022800002D093968A961AA808D02950205C03E3BE
:1022900093988A8802D093988A981AAA08D02950CD
:1022A000215C03E3939A8A8A02D0939A8A9A1AACA1
:1022B00008D02950225C03E3939C8A8C02D0939C23
:1022C0008A9C1AAE08D02950235C03E3939E8A8E21
:1022D00002D0939E8A9E1BA008D02950245C03E361
:1022E00095908C8002D095908C901BA208D029509C
:1022F000265C03E395928C8202D095928C921BA46B
:1023000008D02950275C03E395948C8402D09594DF
:102310008C941BA608D02950285C03E392988988E6
:1023200002D092988998292A29500A0802E2010EBF
:10233000296EA19236EF10F06D92699468A402D0D4
:102340006894FCD73DEF18F0400E0401016F040EB5
:10235000036F180E026F880E006F046B040E076F78
:10236000580E066F0001120070A002D0EDDF7090D1
:10237000689A46EF18F06A6A68924CEF18F0CA91B2
:10238000C9BFCA81C99FC951100803E2000E016E7E
:1023900016D0CAA10BD0036AC9518FDEFF0802E133
:1023A000000E01D0010E016E0AD009D0036AC95196
:1023B00094DEFF0802E1000E01D0010E016E120052
:1023C000CE51D003F3CF01F0F4CF00F0D103F3509E
:1023D0000026CF51D003F3500020026E1200036A92
:1023E000C851700FE96E0F0E0320EA6EEF6AC8C085
:1023F000C9F0C5DF015222E0CF6BC8C0CEF0D16B6F
:10240000080ED06FDDDF01C0E9FF040E0224EA6E82
:10241000EF6ACF6BC8C0CEF0D16B080ED06FD0DFA3
:1024200002C0CAF001C0C9F0040EC927000ECA23B9
:10243000C9C0E9FF040ECA25EA6EEF6A1200010E58
:10244000C76FC7510F0805E3C7C0C8F0C8DFC72B67
:10245000F8D71200C16BC06B250EBF6F800EBE6F28
:10246000EA6A3C0EE96EE26ABE0EE16E020E016E91
:10247000E6CFEEFF012EFCD73E6A3F6ABE6BEA6AEA
:10248000400EE96EE26ABE0EE16EE6CFEEFFBE6B75
:10249000EA6A410EE96EE26ABE0EE16EE6CFEEFF39
:1024A000080EBE6FEA6A420EE96EE26ABE0EE16E87
:1024B000E6CFEEFF906B1B9C446A436A8C6B8D9158
:1024C000916B1200396A386ABD6BBD5101080AE38D
:1024D000036ABD513A0FE96E000E0320EA6EEF6AFF
:1024E000BD2BF3D7B7DF2C6A010E2D6E2B6A1200BD
:1024F000689612006A6A686A9F0E6B6E3D0E696E7E
:102500006E6A9DDFDFDF160E706E68A602D0F0DF08
:10251000FCD76D9819DF030E336E52EF18F0698403
:1025200068986D8258EF18F0689C5EEF18F0C2C092
:1025300034F0120034681200C06B385039102DE0AE
:10254000C0513F082AE32E5005E0020A09E0010AC3
:102550000DE011D037C003F03650FFDDC16F0BD056
:1025600037C003F0365049DEC16F05D037C003F0E5
:10257000365032DEC16F362AD8B4372A3850D8B434
:1025800039063806C051C02B580FE96E040EEA6EAA
:10259000D8B0EA2AC1C0EFFFD0D73850391004E1D3
:1025A000C051400801E02B6AC0C0C2F0C0DF120079
:1025B000376A366A2E6A04011B51010A000107E0DE
:1025C000030A0BE0010A0DE0220A22E03AD0396A40
:1025D000120E386E030E2E6E36D0396A430E386EE8
:1025E00032D0020E2E6E036A04011A512F0FE96ECB
:1025F000000E0320EA6E376AEFCF36F037C003F0E3
:1026000036500001FADD036A386E03C039F01BD082
:10261000036A04011A510001D3DD036A366E03C058
:1026200037F0363C02D037520AE037C003F036505C
:1026300094DD036A386E03C039F005D002D07ADF2A
:1026400011D078DF0FD004011F5308E1395203E1A4
:1026500038501E5D03E2396A1EC438F0010E2B6E3D
:1026600000016ADF55EF14F0BF5304E1040E336E2E
:10267000E6DEC9D0050E336E040EC26F980EC16F30
:10268000010EC06FC0510F08D8A0BDD0C0C0C8F0A7
:10269000A6DEC36B036AC05120DDFF0859E0040EBB
:1026A000C36FD890C035036A40DD0900F5CF03F051
:1026B000C46F03C0C5F0CF6BC0C0CEF0D16B080EA5
:1026C000D06F7EDE01C0C7F0010E0124016E000E46
:1026D0000220036E01C0E9FF040E0324EA6EC4C0A9
:1026E000EFFFCF6BC0C0CEF0D16B080ED06F68DEAD
:1026F00001C0C7F0020E0124016E000E0220036E1D
:1027000001C0E9FF040E0324EA6EC2C0ECFFED52E3
:10271000C1C0EFFFD890C035036A07DD0900F5CFCF
:1027200003F0C1270350C223880EC66FC5B1C6810E
:10273000C5B3C683CF6BC0C0CEF0D16B080ED06FCF
:102740003FDE01C0E9FF040E0224EA6EC6C0EFFFBF
:10275000036AC051B2DCFF0840E0C383CF6BC0C046
:10276000CEF0D16B080ED06F2BDE02C0C8F001C0D6
:10277000C7F0040EC727000EC823020EC725016E3E
:10278000000EC821036E01C0E9FF040E0324EA6EA7
:10279000C2C0ECFFED52C1C0EFFFD890C035036A54
:1027A000ACDC0900F5CF03F0C1270350C223CF6B87
:1027B000C0C0CEF0D16B080ED06F02DE02C0C8F0F0
:1027C00001C0C7F0040EC727000EC823C7C0E9FF29
:1027D000040EC825EA6E400EEF6EC351060802E1F2
:1027E0000E0EC36F036AC05168DC0108D8A4C38908
:1027F000036AC051700FE96E0F0E0320EA6EC3C06A
:10280000EFFFC02B3FD750EF14F004011951000A1D
:1028100000010DE0010A14E0020A1EE0060A27E0AA
:10282000030A2CE00E0A2CE0010A30E03DD02DC056
:1028300058F40401596B020E0001C26F78DE35D0E6
:1028400004011A2D06D0010E2D160001C26B6FDE99
:1028500002D000016FDE29D004011A2D05D02D828F
:102860000001C26B64DE02D0000164DE1ED0020EE5
:102870002B6E1AC435F0C26B5ADE17D099D615D01C
:102880002CC058F4010EC26F52DE0FD004011A5151
:10289000010808E31AC42CF01AC4BFF00001E4D602
:1028A000C26B45DE000101D045DEC5EF15F02CC03E
:1028B000BFF004011951000A000105E00A0A0BE00B
:1028C000010A26E037D00401586B596B020E000153
:1028D000C26F2DDE30D0BF5319E0010EBF5D036A19
:1028E00066DC016E04011C5DD8A002D000010ED090
:1028F000036A1C513A0FE96E000E0320EA6EEFCF17
:1029000058F4010E0001C26F12DE01D013DE13D0A5
:10291000BF530EE0036A04011C513A0FE96E000E2A
:102920000320EA6E1AC4EFFF0001C26B00DE01D083
:1029300001DE01D0FFDDC5EF15F0C091BFBFC08142
:10294000BF9FC0A117D0CF6BBFC0CEF0D16B080E18
:10295000D06F36DD02C0C2F001C0C1F0040EC12745
:10296000000EC223C1C0E9FF040EC225EA6E880E24
:10297000EF6E0DD0CF6BBFC0CEF0D16B080ED06F15
:102980001FDD01C0E9FF040E0224EA6EEF6A3DEF8D
:1029900015F0C091BFBFC081BF9FC0A117D0CF6B42
:1029A000BFC0CEF0D16B080ED06F0ADD02C0C2F0FE
:1029B00001C0C1F0040EC127000EC223C1C0E9FF4F
:1029C000040EC225EA6E840EEF6E0ED0CF6BBFC030
:1029D000CEF0D16B080ED06FF3DC01C0E9FF040E1E
:1029E0000224EA6E840EEF6E43EF15F0C091BFBF74
:1029F000C081BF9FC0A117D0CF6BBFC0CEF0D16B3D
:102A0000080ED06FDDDC02C0C3F001C0C2F0040EBE
:102A1000C227000EC323C2C0E9FF040EC325EA6E1D
:102A2000EFCFC1F00ED0CF6BBFC0CEF0D16B080E90
:102A3000D06FC6DC01C0E9FF040E0224EA6EEFCFBE
:102A4000C1F0C1AF02D0C1B502D0000E01D0010E5D
:102A5000016E4DEF15F01CC4C9F091DC015228E065
:102A600004011951010A000105E0020A09E0030A04
:102A70000DE01DD01CC4BFF060D7C26B58DD18D06C
:102A80001CC4BFF086D7C26B52DD12D00401586B54
:102A9000596B1CC4BFF00001A9D7015204E0010E1C
:102AA0000401586F0001020EC26F41DD01D042DD0A
:102AB000C5EF15F0FE0E346E120004011C2D01D07E
:102AC00002D01C5348E11951000A00010BE0010A31
:102AD0000DE0210A1CE0010A1FE0030A2EE0010AB2
:102AE00031E037D0010E916FE5DF34D0040EEA6E8D
:102AF000580EE96EE26A450EE16E080E016EE6CFF1
:102B0000EEFF012EFCD71EC4C2F011DD23D0020E51
:102B1000916F1B8CCFDF1ED0040EEA6E580EE96E4B
:102B2000E26A3C0EE16E070E016EE6CFEEFF012E6B
:102B3000FCD7070EC26FFBDC0DD01AC490F0C26B3D
:102B4000F6DC08D01AC444F01BC443F0C26BEFDCBF
:102B500001D0F0DC04010001C5EF15F02B6A04017F
:102B600018517F0B000A000107E0010A07E0030A81
:102B700007E0230A07E008D048D607D098D605D04A
:102B80006AD703D09AD701D0D5DCE7EF17F0CF6B27
:102B9000C0C0CEF0D16B080ED06F12DC01C0E9FFCF
:102BA000040E0224EA6EEFCFC2F0C151020806E122
:102BB000C2AD02D0C16B02D0010EC16FC15103087A
:102BC0001AE1840EC26FCF6BC0C0CEF0D16B080E7D
:102BD000D06FE0EC11F002C0C6F001C0C5F0040EE9
:102BE000C527000EC623C5C0E9FF040EC625EA6E40
:102BF000840EEF6E07D0C12D03D0C80EC26F02D075
:102C0000880EC26FD890C035036A95EC10F00900A9
:102C1000F5CF03F0C36F03C0C4F0CF6BC0C0CEF0DC
:102C2000D16B080ED06FE0EC11F001C0C5F0010EC1
:102C30000124016E000E0220036E01C0E9FF040EA4
:102C40000324EA6EC3C0EFFFC4B1C281C4B3C28320
:102C5000CF6BC0C0CEF0D16B080ED06FE0EC11F09E
:102C600001C0E9FF040E0224EA6EC2C0EFFF1200A9
:102C7000036ACD51700FE96E0F0E0320EA6EEF521A
:102C800019E0CF6BCDC0CEF0D16B080ED06FE0EC69
:102C900011F002C0CFF001C0CEF0040ECE27000E1E
:102CA000CF23CEC0E9FF040ECF25EA6EEFCFD0F0E0
:102CB000D0AF02D0000E01D0010E016E1200C8C0CC
:102CC000CDF0D6DF0152D8B47BD0CF6BC8C0CEF0E8
:102CD000D16B080ED06FE0EC11F002C0CEF001C055
:102CE000CDF0040ECD27000ECE23010ECD25016EB2
:102CF000000ECE21036E01C0E9FF040E0324EA6E2C
:102D0000C9C0EFFFCB5102081EE1CF6BC8C0CEF0A7
:102D1000D16B080ED06FE0EC11F002C0CEF001C014
:102D2000CDF0040ECD27000ECE23CDC0E9FF040E5A
:102D3000CE25EA6EEFCFCCF0CCAD02D0CB6B02D07B
:102D4000010ECB6F18D0CB51040815E1CF6BC8C072
:102D5000CEF0D16B080ED06FE0EC11F001C0E9FFAE
:102D6000040E0224EA6EEFCFCCF0CCAD03D0010EFE
:102D7000CB6F01D0CB6BCB2D03D0C80ECC6F02D064
:102D8000880ECC6FCAB1CC81CAB3CC83CF6BC8C01C
:102D9000CEF0D16B080ED06FE0EC11F002C0CEF097
:102DA00001C0CDF0040ECD27000ECE23CDC0E9FF2B
:102DB000040ECE25EA6ECCC0EFFF010E016E02D0EC
:102DC000000E016E12009151010A03E0030A13E0A4
:102DD00024D0EA6A450EE96E040EE26E180EE16E2A
:102DE000080E016EE6CFEEFF012EFCD7C26B97EC0A
:102DF00012F0916B13D0EA6A3C0EE96E040EE26E9B
:102E0000180EE16E070E016EE6CFEEFF012EFCD725
:102E1000916BC26B97EC12F001D0916B44EF17F0FD
:102E2000CF6BC0C0CEF0D16B080ED06FE0EC11F0CC
:102E300002C0C2F001C0C1F0010E0124016E000EFB
:102E40000220036E01C0E9FF040E0324EA6E036A48
:102E5000EFCF01F003C002F03AEF17F08D91020EB0
:102E6000C06FC16F94DE3FEF17F08D818F6B020E44
:102E7000C06FD6D701C08EF08E5301E1EFD749EF76
:102E800017F0BF5302E19FD704D0BF51020801E100
:102E9000ECD71200C0C06EFFC05303E0040E336EC7
:102EA00002D0020E336E5AEF17F02C6A2B6A35C02F
:102EB000C0F0F0D7C6EF17F0C0C0CDF0D9DE015298
:102EC00043E0CF6BC0C0CEF0D16B080ED06FE0EC0A
:102ED00011F002C0C9F001C0C8F0040EC827000EEE
:102EE000C923020EC825016E000EC921036E01C060
:102EF000E9FF040E0324EA6EECCFC7F0ED52EFCFEA
:102F0000C6F0C7C0EAFFC6C0E9FFC2C0E2FFC1C049
:102F1000E1FFC4C002F0C3C001F0015202E0022A86
:102F200002D0025206E0E6CFEEFF012EFCD7022EC1
:102F3000FAD7C0C0C8F0C4C0CAF0C3C0C9F0C5C089
:102F4000CBF0BDDE015002D0000E016E12008C539A
:102F50000EE0020EC06FC26B4D0EC16FC46B8CC011
:102F6000C3F0020EC56FA8DF015201E08C6B1200A6
:102F7000EEDFCBEF17F0BF530AE12B2C03D09CEC14
:102F800012F004D02B50020801E18FD704D0BF51BA
:102F9000020801E1EDD712003230BD6FBD33BD3301
:102FA0001F0EBD17325241E1040100513C0B0001DC
:102FB000BE6F430E040100170001BE5134081EE12C
:102FC00004010451800B01E0046B0001C7D56D982A
:102FD000343C05D0C06B030EC16FD9DD0ED0C06B81
:102FE000020EC16FD4DD3450FE0807E0C86BCA6B17
:102FF00034C0C9F0040ECB6F62DE16D0BE51040897
:1030000013E1BF6B3EDFC06B020EC16FC0DD3450F9
:10301000FE080AE0343C01D007D0C86BCA6B34C04C
:10302000C9F0010ECB6F4BDE1AD0325004080EE10E
:103030003468BF6BA0DF343C01D007D0C86BCA6BCB
:1030400034C0C9F0020ECB6F3ADE09D032B404D0DE
:10305000BDC0BFF016DF03D0BDC0BFF08CDF68EF8E
:1030600018F0A19A335201E139D0685237E068A4D0
:1030700004D069A402D09CEF11F06DA201D02ED033
:1030800068AA04D069AA02D0B4EF11F068A204D0F3
:1030900069A202D0BBEF11F068A004D069A002D0F1
:1030A0007AEF12F068A804D069A802D08FEF12F06E
:1030B00068AC04D069AC02D094EF12F0BC6B68A687
:1030C00008D069A606D06CCF32F078EC12F064D745
:1030D00001D004D0BC51BC2B0308F1E236EF10F054
:1030E00054656D70657261747572613A2025662051
:1030F000430A0D006D6A696A080E6F6E94503009BC
:10310000946E336A196AF2BE198EF29E62EC12F066
:1031100019BEF28E8DEF18F0EDD7B3EF18F0196AE3
:10312000F2BE198EF29E62EC12F019BEF28E6D6A3A
:10313000140E6F6E696A6D86010E336EA3EF18F080
:103140006DB601D0ECD7332C0BD06DBA09D0686ABC
:10315000696AA08AC00EF212110E696E020E336EF9
:10316000B4EF18F0D9D7ECD733500208FCE1A2EF46
:103170001CF0080E016E110E006E002EFED78A9014
:103180009390110E006E002EFED79E378A92D8B013
:103190009382D8A09392938081A0FED7012EEBD783
:1031A000110E006E002EFED78A909390000093823D
:1031B000110E006E002EFED7110E006E002EFED7EF
:1031C000938081A0FED7016A110E006E002EFED7FB
:1031D00081B201808A9093908A9293921200938296
:1031E000110E006E002EFED79380110E006E002E81
:1031F000FED78A929392110E006E002EFED78A900F
:103200009390900E9E6FB5DFAC0E9E6FB2DF9AC0AA
:103210009EF0AFDF93920000938081A0FED7110E45
:10322000006E002EFED700D000009382110E006EBB
:10323000002EFED74BEF19F093928A8293908A80EA
:103240009382110E006E002EFED79380110E006E39
:10325000002EFED78A929392110E006E002EFED79A
:103260008A909390900E9E6F84DFEE0E9E6F81DFAA
:1032700093920000938081A0FED7110E006E002E65
:10328000FED700D000009382110E006E002EFED7F4
:10329000080E9A6FA4D7A3EF1CF0EA6A9B0EE96EA2
:1032A000EF500EE00F0E016E006A002EFED7012EC9
:1032B000FBD78F0E006E002EFED70000EF2EF2D748
:1032C0001200080E9F6F00C0A0F09382110E006ED6
:1032D000002EFED7938081A0FED781B2D88081A234
:1032E000D8900136110E006E002EFED793908A9072
:1032F0009F2FEBD79382110E006E002EFED78A927D
:10330000A051D8A493920000938081A0FED7110E03
:10331000006E002EFED78A909390110E006E002E44
:10332000FED78A92939212009F51A119800BA36F2E
:103330009FAF05D09E1F9F1F9E2BD8B49F2BA1AF80
:1033400005D0A01FA11FA02BD8B4A12B9E51A00374
:10335000F3CF01F0F4CF00F0A103F35000269F510A
:10336000A003F3500020026EA3AF05D0011E021E81
:10337000012AD8B4022A4FEF1AF09F51A119800BED
:10338000A36F9FAF05D09E1F9F1F9E2BD8B49F2B6E
:10339000A1AF05D0A01FA11FA02BD8B4A12B016AFB
:1033A000026A006A036AA15102E1A05118E0100EFE
:1033B000A26FD8909E379F3700360336A151035C29
:1033C00002E1A051005C07E3A051005ED8A0030613
:1033D000A151035ED88001360236A22FEAD7A3AFEF
:1033E00005D0011E021E012AD8B4022A69EF1AF084
:1033F0009382110E006E002EFED79380110E006E88
:10340000002EFED78A929392110E006E002EFED7E8
:103410008A909390900E9E6FACDEAA0E9E6FA9DEEE
:103420009382110E006E002EFED79380110E006E57
:10343000002EFED781A0FED78A929392110E006EC5
:10344000002EFED78A909390910E9E6F92DE010E11
:10345000006E37DF01C09AF0006A33DF01C09BF0D5
:1034600093920000938081A0FED7110E006E002E73
:10347000FED700D000009382110E006E002EFED702
:10348000036A9A51E8BE03069C6F03C09DF09DC07D
:103490009FF09CC09EF0A16B090EA06F45D702C0A3
:1034A0009DF001C09CF09BAF0CD09DBF01D005D01A
:1034B000040E9C5F000E9D5B04D0040E9C27000E42
:1034C0009D239DC09FF09CC09EF0A16B050EA06F38
:1034D00054D7200E01249C6F000E02209D6F9CC0CB
:1034E00001F09DC002F0ABEF1CF08E0E006E9BC091
:1034F00001F09AC002F0036A9BAF05D0011E021EC4
:10350000022A01E1012A015209E102C001F0026A26
:10351000080E005E015202E1006A0AD0D89001BE96
:1035200004D0023601360006F9D79BBF01D0019EB8
:10353000B0EF1CF0AA91F2BEAA81F29E8C513E0817
:1035400002E23E0E8C6F8C518C2B036A4D0FE96E9C
:10355000000E0320EA6EA9C0EFFFF29EAAB1F28E20
:10356000B5EF1AF0A8C0A9F0E5D7196AF2BE198E16
:10357000F29E020ECD6F38EC16F019BEF28E01529B
:1035800007E0196AF2BE198EF29EE1DC19BEF28ED6
:10359000D1EF1AF08C513E0801E2FCD7A7C0A8F089
:1035A000E1D712000900F6CF9BF0F7CF9CF0F5CFE2
:1035B000A7F0F0DF9BC0F6FF9CC0F7FF9A2FF2D771
:1035C0001200A751D8B471D0006EAB51D8B46DD0F1
:1035D000002604E3810E002668E204D07F0E005E20
:1035E00064E363E0A8C0AFF0AC51AF1BA88FAC8F11
:1035F000AA51AE03F4CFB1F0A951AD03F4CF03F05B
:10360000F3CFB0F0AE03F350B127F450B023000E67
:103610000322AA51AD03F350B127F450B023000E9A
:10362000026A03220222A851AE03F350B027F450DD
:103630000322000E0222A851AD03F3500326F450DA
:103640000222000E016A0122AA51AC03F350B027F6
:10365000F4500322000E02220122A951AC03F350C0
:103660000326F4500222000E0122A851AC03F350AD
:103670000226F4500122002A01BE05D0B0370336DD
:10368000023601360006000EB0AF0AD0032A02222D
:103690000122015005E1025003E1035001E1002A3B
:1036A000AFBF018EAFAF019E04D0006A016A026A0B
:1036B000036AD6EF1BF0A751B608A76F036AA8C02C
:1036C000ABF0A88FD890A833A933AA3303320232C3
:1036D00001320032A72FF6D7ABAF0BD0001E011E70
:1036E000021E031E002AD8B4012AD8B4022AD8B474
:1036F000032AE9EF1BF0D8B203D0EA6AAF0EE96EF5
:10370000006A016A026A036AAF6BB06BB16BB26B9D
:10371000AE51AD11AC11AB112CE0200EB36FD890AF
:10372000A737A837A937AA37AF37B037B137B2377D
:10373000AE51B25D08E1AD51B15D05E1AC51B05D96
:1037400002E1AB51AF5D0FE3AB51AF5FAC51D8A01D
:10375000AC3DB05FAD51D8A0AD3DB15FAE51D8A08A
:10376000AE3DB25FD8800036013602360336B32F45
:10377000D6D7AFC0EFFFB0C0ECFFB1C0ECFFB2C016
:10378000ECFF1200E9509F6F9E51A16F19E09DC0A0
:10379000AAF09CC0A9F09BC0A8F09AC0A7F0AE6B9D
:1037A000AD6B200EAC6F820EAB6F0BD703C09DF0DC
:1037B00002C09CF001C09BF000C09AF0A12FE7D797
:1037C0009DC0AAF09CC0A9F09BC0A8F09AC0A7F029
:1037D00072D703C09DF002C09CF001C09BF000C0F6
:1037E0009AF09DAF0DD09F079F8B9A1F9B1F9C1F28
:1037F0009D1F9A2BD8B49B2BD8B49C2BD8B49D2B4F
:103800003B0EA66F9A0EA56FCA0EA46FA36B0A0E8D
:10381000A16F9E51D8B49F2BD882EA6A9A0EE96EA6
:103820009DC0AAF09CC0A9F09BC0A8F09AC0A7F0C8
:10383000A6C0AEF0A5C0ADF0A4C0ACF0A3C0ABF084
:103840005ADF015000520FE19E29A15D0CE09F510B
:103850000CE00F0BA15D01E037E29FBF35D09FBDAB
:1038600004D0200E2DD0200E9F179FAB0CD09F9B15
:103870009E51D8A49F0700509F6F2D0EA76F8ADE20
:103880009F51006E9F6B9E51A15D0AE100509F6F9A
:103890002E0EA76F7FDE9F51006E200E9F17000E29
:1038A000300E9FAB0DD09F9B9E51D8A49F07005018
:1038B0009F6F2D0EA76F6EDE9F51006E9F6B300EB7
:1038C000002600C0A7F066DED892A6C0AAF0A5C068
:1038D000A9F0A4C0A8F0A3C0A7F0AE6BAD6BAC6B11
:1038E0000A0EAB6F08DF03C0A6F002C0A5F001C04E
:1038F000A4F000C0A3F0A12F8FD7CCEF1CF0F86A82
:10390000D09E078EEA6AE96A1B981B9A010E296EFF
:103910002A6AB886E10EAF6E040EB06EA60EAC6ECB
:10392000900EAB6E95988C88959C8C8CC150C00B7A
:103930000F09C16E070EB46E2F6A040E306E0C0EA6
:10394000316E10D479D4020E9A6FFA0E9B6FA5DCFB
:103950009A2FFBD74DD502C09BF001C09AF0C5D578
:1039600003C095F002C094F001C093F000C092F043
:10397000E00EF66E300EF76E0D0E9A6F13DE890EA6
:10398000E96E95C09DF094C09CF093C09BF092C0EE
:103990009AF0020E9E6FF6D6EF0EF66E300EF76EB0
:1039A000040E9A6FFFDD040E9A6FFA0E9B6F75DCA2
:0839B0009A2FFBD7CFD70300CB
:020000040030CA
:0E00000024CE3E1E0085A1000FC00FE00F4071
:00000001FF
;PIC18F4550
;CRC=AC1A  CREATED="08-sep-13 15:04"
