:100000004DEF01F0F76A140FF66E000EF7220900AB
:10001000F5501200280C01060C0A445554593A2098
:10002000254C7500EA6A100EE96EEF500EE00F0ED7
:10003000016E006A002EFED7012EFBD78F0E006ED8
:10004000002EFED70000EF2EF2D712001738F00B6B
:10005000006E0F0E8A1400108A6E00008A80070E50
:10006000006E002EFED700D08A9012008150006EE4
:1000700000380F0B016E12000F0E9314F009936EEF
:100080008A8400008A800000F1DF01C017F08A90A6
:1000900000008A80030E006E002EFED700D0E6DF3F
:1000A00001C016F08A900F0E9314936E1738006EED
:1000B000F00E001600501610016E64EF00F09390E1
:1000C000939293948A92D8D701C016F001BEFBD7C1
:1000D0008A9214B08A8200008A9400008A901538AF
:1000E000166E0F0E161616C017F0B0DF15500F0B58
:1000F000166E176EABDF12000F0E9314936E939073
:10010000939293948A928A948A900F0E106E8ADF4B
:10011000010E066E0650030808E3030E176E96DF05
:10012000050E106E7FDF062AF5D7020E176E8EDFE2
:10013000050E106E77DF066A0650030809E3036AAE
:10014000065060DF076E146A156EB9DF062AF4D711
:100150005AEF01F0112C01D003D0400E126E01D0E5
:10016000126A010E105C122612508009136E146A76
:10017000156EA5DF12000F50070A07E00B0A0AE010
:10018000060A10E0020A14E018D0010E106E116E7B
:10019000E1DF18D0146A010E156E91DF020E106EA9
:1001A00041DF10D0010E106E020E116ED3DF0AD0A7
:1001B000146A100E156E83DF05D0010E146E0FC089
:1001C00015F07DDF12000900F6CF07F0F7CF08F039
:1001D000F5CF0FF0D0DF07C0F6FF08C0F7FF062EFF
:1001E000F2D76EEF01F0EACF0EF0E9CF0DF007384D
:1001F000F009096E0926E20F0A6E320F0C6E0750E5
:100200000F0B0A260A260C26E90F0B6E0B260B266F
:1002100006380F0B0B260C260B360C360C1E0C3634
:1002200006500F0B0C260936070E086E0A0E0B0639
:100230000C26FDE30A060B26FDE309060A26FDE36C
:1002400008060926FDE3EA6A080EE96E070E0D149A
:100250000D9CE9260C0EE95CD8B40D8CEF50006EB5
:1002600008E10DBC06D00DB813D00DB602D0200E9B
:1002700003D00D860D98300E0026EACF07F0E9CFA7
:1002800006F000C00FF077DF07C0EAFF06C0E9FF05
:10029000EE500DACDFD775EF01F0F86AD09EEA6A38
:1002A000E96A056A046AC150C00B0F09C16E070EE6
:1002B000B46E22D794948B940C0EBD6E000E05097B
:1002C000CA6EFF0ECB6E020E0426000E0522180E1B
:1002D000F66E000EF76E080E066E75D7100EE96EFC
:1002E00005C007F004C006F07ED705C002F004C0C8
:1002F00001F00232013202320132023201C0BEFF8D
:1003000002320230300B006EBD50CF0B0010BD6EBC
:10031000020E066E960E106E85DE062EFBD7055079
:0C032000000802E2056A046ACED7030060
:020000040030CA
:0E00000021CE3E1E008581000FC00FE00F4094
:00000001FF
;PIC18F2550
;CRC=0825  CREATED="02-may-13 11:00"
