:0410000003EF09F001
:08100800F76A180FF66E100ED6
:10101000F7220900F5501200280C01060C457370E8
:101020006572616E646F2044617461000C47756184
:101030007264616E646F00000C4C6579656E646F5C
:101040000000EA6A080EE96EEF500EE00F0E016E26
:10105000006A002EFED7012EFBD78F0E006E002EE9
:10106000FED70000EF2EF2D712000F38F00B006E03
:101070000F0E8A1400108A6E00008A80070E006E20
:10108000002EFED700D08A9012008150006E0038EA
:101090000F0B016E12000F0E9314F009936E8A84E9
:1010A00000008A800000F1DF01C00FF08A9000008C
:1010B0008A80030E006E002EFED700D0E6DF01C04E
:1010C0000EF08A900F0E9314936E0F38006EF00E90
:1010D000001600500E10016E73EF08F0939093927B
:1010E00093948A92D8D701C00EF001BEFBD78A92A2
:1010F0000CB08A8200008A9400008A900D380E6E2F
:101100000F0E0E160EC00FF0B0DF0D500F0B0E6E4F
:101110000F6EABDF12000F0E9314936E93909392A9
:1011200093948A928A948A900F0E086E8ADF010E39
:10113000056E0550030808E3030E0F6E96DF050EDB
:10114000086E7FDF052AF5D7020E0F6E8EDF050EC3
:10115000086E77DF056A0550030809E3036A055046
:1011600053DF066E0C6A0D6EB9DF052AF4D717EF50
:1011700009F0092C01D003D0400E0A6E01D00A6A92
:10118000010E085C0A260A5080090B6E0C6A0D6E6F
:10119000A5DF12000750070A07E00B0A0AE0060A5B
:1011A00010E0020A14E018D0010E086E096EE1DFAB
:1011B00018D00C6A010E0D6E91DF020E086E41DF31
:1011C00010D0010E086E020E096ED3DF0AD00C6A31
:1011D000100E0D6E83DF05D0010E0C6E07C00DF0F2
:1011E0007DDFFDEF08F00900F5520CE0F6CF05F0C9
:1011F000F7CF06F0F5CF07F0CDD705C0F6FF06C054
:10120000F7FFF1D71200F86AD09EEA6AE96AB88659
:10121000E10EAF6E040EB06EA60EAC6E900EAB6E0D
:10122000C150C00B0F09C16E070EB46E74D71C0EEF
:10123000F66E100EF76ED7DF040E056EFA0E086E0E
:1012400000DF052EFBD79EAA1FD09EAAFED7AECFE9
:1012500004F00450470802E0045209E12C0EF66E37
:10126000100EF76EC0DF320E086EEBDE0DD00450AC
:101270004C0802E0042C08D0380EF66E100EF76E03
:0C128000B2DF320E086EDDDEDED70300A8
:020000040030CA
:0E00000021CE3E1E008581000FC00FE00F4094
:00000001FF
;PIC18F2455
;CRC=9428  CREATED="29-may-15 08:07"
