:0420000028EF12F0C3
:08200800046ED8CF05F0E0CF13
:1020100006F00001E9CF0CF0EACF07F0E1CF08F0BD
:10202000E2CF09F0D9CF0AF0DACF0BF0F3CF12F0FC
:10203000F4CF13F0FACF14F0F5CF15F0F6CF16F079
:10204000F7CF17F000C00EF001C00FF002C010F083
:1020500003C011F0F2A830EF10F0F2B2D7EF11F098
:102060000EC000F00FC001F010C002F011C003F06C
:102070000CC0E9FF07C0EAFF078E08C0E1FF09C0F6
:10208000E2FF0AC0D9FF0BC0DAFF12C0F3FF13C092
:10209000F4FF14C0FAFF15C0F5FF16C0F6FF17C015
:1020A000F7FF045006C0E0FF05C0D8FF1000C05085
:1020B000C00B0709C06EC08EC280C150C00BC16E7C
:1020C0001D34006E0036FC0E0016C250C30B00100B
:1020D000C26E270E006E002EFED700D0C282C2B2A2
:1020E000FED7C3CF1EF0C4CF1FF0C150C00B0F09E5
:1020F000C16E1EC001F01FC002F0D9EF11F08E0EAC
:10210000006E1EC001F01DC002F0036A015209E119
:1021100002C001F0026A080E005E015202E1006A8C
:1021200008D0D89001BE04D0023601360006F9D797
:10213000019EDEEF11F01D50D8B4A5D02A6E2150BB
:10214000D8B4A1D02A5E05E37F0E2A26D8B09BD052
:1021500006D0810E2A5ED8A096D0D8B494D02AC0DA
:1021600000F0016A026A036A296A1EC028F0288EFC
:102170001FC027F020C026F0190E2A6E2450265EBC
:102180000DE2010E275E0AE2285E08E2295E06E201
:10219000292A282A272A2450262628D02350275E99
:1021A00012E2010E285E0FE2295E0DE2292A282A9A
:1021B000235027262450262619E3272A17E1282A08
:1021C00015E1292A13D022508009285E0EE2010E63
:1021D000295E0BE2292A225080092826235027262F
:1021E000E9E3282AE7E1292AE5D703802A2E01D04E
:1021F0000BD0D8902636273628362936D890033685
:10220000023601362B36BAD72BA006D0D890013231
:10221000023203322B3202D0000635E02BBE1ED034
:10222000D89026362736283629362450265E07E2EF
:10223000010E275E04E2285E02E2295E1AE32350C3
:10224000275E05E2010E285E02E2295E12E32250BB
:102250008009285E03E2010E295E0BE3032A09E1EF
:10226000022A07E1012A05E1002A0DE001320232CB
:1022700003321EC02AF022502A1A2AAE02D0018E42
:1022800006D0019E04D0006A016A026A036AF4EF74
:1022900011F02150D8B471D0006E2650D8B46DD052
:1022A000002604E3810E002668E204D07F0E005E63
:1022B00064E363E022C02AF027502A1A228E278E78
:1022C00024502902F4CF2CF023502802F4CF03F03D
:1022D000F3CF2BF02902F3502C26F4502B22000EC2
:1022E000032224502802F3502C26F4502B22000EF7
:1022F000026A0322022222502902F3502B26F450B4
:102300000322000E022222502802F3500326F4502A
:102310000222000E016A012224502702F3502B26CC
:10232000F4500322000E0222012223502702F35010
:102330000326F4500222000E012222502702F350FD
:102340000226F4500122002A01BE05D02B360336A6
:10235000023601360006000E2BAE0AD0032A0222F6
:102360000122015005E1025003E1035001E1002A7E
:102370002ABE018E2AAE019E04D0006A016A026A5A
:10238000036A0AEF12F0EA6A1E0EE96EEF500EE0E1
:102390000F0E016E006A002EFED7012EFBD78F0EA6
:1023A000006E002EFED70000EF2EF2D712001D6A3D
:1023B0007ED602C01EF001C01DF0A1D603C01CF0E5
:1023C00002C01BF001C01AF000C019F01CC020F0C0
:1023D0001BC01FF01AC01EF019C01DF0246A236A2A
:1023E000226A890E216EA7D600C01DF001C01EF022
:1023F00002C01FF003C020F003C024F002C023F08D
:1024000001C022F000C021F0296A286A276A820EE2
:10241000266E3FD703C01CF002C01BF001C01AF0AB
:1024200000C019F01AC01DF01D2A1D06D8B403D033
:102430001E68A9DFFAD719C01EF0A5DF95948C8419
:10244000010E1E6EA0DF95948C94F29230EF10F086
:10245000F86AD09E078EEA6AE96AC150C00B0F097C
:10246000C16E070EB46EC00EF212F288FFD70300E1
:020000040030CA
:0E00000024CE3E1E0085A1000FC00FE00F4071
:00000001FF
;PIC18F4550
;CRC=3CA8  CREATED="14-oct-13 15:43"
