:042000002BEF19F0B9
:08200800046ED8CF05F0E0CF13
:1020100006F00001E9CF0CF0EACF07F0E1CF08F0BD
:10202000E2CF09F0D9CF0AF0DACF0BF0F3CF12F0FC
:10203000F4CF13F0FACF14F0F5CF15F0F6CF16F079
:10204000F7CF17F000C00EF001C00FF002C010F083
:1020500003C011F0A0AA30EF10F0A1BAA6EF17F05C
:102060000EC000F00FC001F010C002F011C003F06C
:102070000CC0E9FF07C0EAFF078E08C0E1FF09C0F6
:10208000E2FF0AC0D9FF0BC0DAFF12C0F3FF13C092
:10209000F4FF14C0FAFF15C0F5FF16C0F6FF17C015
:1020A000F7FF045006C0E0FF05C0D8FF1000F76A34
:1020B000BE0FF66E200EF7220900F5501200000345
:1020C00002FFFFFFFFFFFFFFFFFFFFFFFFFFF76ABA
:1020D000DE0FF66E200EF7220900F550120000FF09
:1020E00002FFFFFFFFFFFFFFFFFFFFFFFFFFF76A9A
:1020F000FE0FF66E200EF7220900F5501200400088
:102100000B00400000000000000000000000000084
:102110000000000000000000000000000000F76A5E
:102120002E0FF66E210EF7220900F5501200400026
:10213000000040000000000000000000000000005F
:102140000000000000000000000000000000F76A2E
:102150005E0FF66E210EF7220900F55012000902FB
:102160004300020100803209040000010202010064
:1021700005240010010424020205240600010524A0
:10218000010001070581030B00FA09040100020A9E
:10219000000000070502024000010705820240001E
:1021A0000100F76AB20FF66E210EF7220900F55012
:1021B00012000200F76AC40FF66E210EF722090022
:1021C000F550120012171B20FFFFFFFFF76ADC0F0C
:1021D000F66E210EF7220900F550120012011001CF
:1021E0000200004061043300000101020001F76AAF
:1021F000FE0FF66E210EF7220900F55012000403BF
:10220000090408034300430053001803530045002A
:102210005200490041004C002000440045004D00A0
:102220004F006D92699468A402D06894FCD7B2EF15
:1022300017F0400E0401016F040E036F180E026FB9
:10224000880E006F046B040E076F580E066F0001B6
:10225000120070A002D0EDDF7090689ABBEF17F00B
:102260006A6A6892C1EF17F0B191B0BFB181B09FB7
:10227000B051100803E2000E016E16D0B1A10BD0D0
:10228000036AB05114DFFF0802E1000E01D0010E15
:10229000016E0AD009D0036AB05119DFFF0802E1CC
:1022A000000E01D0010E016E1200B551B703F3CF3D
:1022B00001F0F4CF00F0B803F3500026B651B70395
:1022C000F3500020026E1200036AAF51700FE96EE6
:1022D0000F0E0320EA6EEF6AAFC0B0F0C5DF015207
:1022E00022E0B66BAFC0B5F0B86B080EB76FDDDF9C
:1022F00001C0E9FF040E0224EA6EEF6AB66BAFC0BC
:10230000B5F0B86B080EB76FD0DF02C0B1F001C0F6
:10231000B0F0040EB027000EB123B0C0E9FF040EE8
:10232000B125EA6EEF6A1200010EAE6FAE510F08D2
:1023300005E3AEC0AFF0C8DFAE2BF8D71200A86B34
:10234000A76B250EA66F800EA56FEA6A2C0EE96EAC
:10235000E26AA50EE16E020E016EE6CFEEFF012EDF
:10236000FCD72E6A2F6AA56BEA6A300EE96EE26A24
:10237000A50EE16EE6CFEEFFA56BEA6A310EE96EBF
:10238000E26AA50EE16EE6CFEEFF080EA56FEA6ADF
:10239000320EE96EE26AA50EE16EE6CFEEFF816BCA
:1023A0008091346A336A7C6B7D91826B1200296A5A
:1023B000286AA46BA45101080AE3036AA4512A0FF6
:1023C000E96E000E0320EA6EEF6AA42BF3D7B7DFA5
:1023D0001B6A010E1C6E1A6A1200689612006A6A65
:1023E000686A9F0E6B6E3D0E696E6E6A9DDFDFDF61
:1023F000160E706E68A602D0F0DFFCD76D9819DF5C
:10240000030E226EC7EF17F0698468986D82CDEFD6
:1024100017F0689CD3EF17F0A9C023F012002368CF
:102420001200A76B285029102DE0A7513F082AE37E
:102430001D5005E0020A09E0010A0DE011D027C095
:1024400003F0265084DEA86F0BD027C003F026507F
:10245000CEDEA86F05D027C003F02650B7DEA86FE8
:10246000262AD8B4272A2850D8B429062806A751E6
:10247000A72B580FE96E040EEA6ED8B0EA2AA8C05E
:10248000EFFFD0D72850291004E1A751400801E000
:102490001A6AA7C0A9F0C0DF1200276A266A1D6A5F
:1024A00004011B51010A000107E0030A0BE0010AC5
:1024B0000DE0220A22E03AD0296A120E286E030E9D
:1024C0001D6E36D0296A430E286E32D0020E1D6E64
:1024D000036A04011A511E0FE96E000E0320EA6E12
:1024E000276AEFCF26F027C003F0265000017FDED9
:1024F000036A286E03C029F01BD0036A04011A5135
:10250000000158DE036A266E03C027F0263C02D085
:1025100027520AE027C003F0265019DE036A286E0E
:1025200003C029F005D002D07ADF11D078DF0FD0B8
:1025300004011F5308E1295203E128501E5D03E204
:10254000296A1EC428F0010E1A6E00016ADFCAEF64
:1025500013F0A65304E1040E226EE6DEC9D0050E88
:10256000226E040EA96F980EA86F010EA76FA751D7
:102570000F08D8A0BDD0A7C0AFF0A6DEAA6B036A33
:10258000A751A5DDFF0859E0040EAA6FD890A73522
:10259000036AC5DD0900F5CF03F0AB6F03C0ACF0F3
:1025A000B66BA7C0B5F0B86B080EB76F7EDE01C082
:1025B000AEF0010E0124016E000E0220036E01C078
:1025C000E9FF040E0324EA6EABC0EFFFB66BA7C0B1
:1025D000B5F0B86B080EB76F68DE01C0AEF0020E42
:1025E0000124016E000E0220036E01C0E9FF040EFB
:1025F0000324EA6EA9C0ECFFED52A8C0EFFFD8900B
:10260000A735036A8CDD0900F5CF03F0A827035036
:10261000A923880EAD6FACB1AD81ACB3AD83B66B01
:10262000A7C0B5F0B86B080EB76F3FDE01C0E9FF79
:10263000040E0224EA6EADC0EFFF036AA75137DD36
:10264000FF0840E0AA83B66BA7C0B5F0B86B080ED0
:10265000B76F2BDE02C0AFF001C0AEF0040EAE27A4
:10266000000EAF23020EAE25016E000EAF21036EE9
:1026700001C0E9FF040E0324EA6EA9C0ECFFED528D
:10268000A8C0EFFFD890A735036A31DD0900F5CF68
:1026900003F0A8270350A923B66BA7C0B5F0B86B09
:1026A000080EB76F02DE02C0AFF001C0AEF0040E3C
:1026B000AE27000EAF23AEC0E9FF040EAF25EA6ED1
:1026C000400EEF6EAA51060802E10E0EAA6F036AD1
:1026D000A751EDDC0108D8A4AA89036AA751700F9D
:1026E000E96E0F0E0320EA6EAAC0EFFFA72B3FD7BB
:1026F000C5EF13F004011951000A00010DE0010AB1
:1027000014E0020A1EE0060A27E0030A2CE00E0A83
:102710002CE0010A30E03DD01CC058F40401596B94
:10272000020E0001A96F78DE35D004011A2D06D003
:10273000010E1C160001A96B6FDE02D000016FDED6
:1027400029D004011A2D05D01C820001A96B64DE7A
:1027500002D0000164DE1ED0020E1A6E1AC424F0EC
:10276000A96B5ADE17D099D615D01BC058F4010EAC
:10277000A96F52DE0FD004011A51010808E31AC4F0
:102780001BF01AC4A6F00001E4D6A96B45DE0001D7
:1027900001D045DE3AEF15F01BC0A6F00401195137
:1027A000000A000105E00A0A0BE0010A26E037D022
:1027B0000401586B596B020E0001A96F2DDE30D059
:1027C000A65319E0010EA65D036AEBDC016E04015D
:1027D0001C5DD8A002D000010ED0036A1C512A0F44
:1027E000E96E000E0320EA6EEFCF58F4010E0001EF
:1027F000A96F12DE01D013DE13D0A6530EE0036AD8
:1028000004011C512A0FE96E000E0320EA6E1AC45F
:10281000EFFF0001A96B00DE01D001DE01D0FFDD7A
:102820003AEF15F0A791A6BFA781A69FA7A117D041
:10283000B66BA6C0B5F0B86B080EB76F36DD02C038
:10284000A9F001C0A8F0040EA827000EA923A8C073
:10285000E9FF040EA925EA6E880EEF6E0DD0B66B67
:10286000A6C0B5F0B86B080EB76F1FDD01C0E9FF59
:10287000040E0224EA6EEF6AB2EF14F0A791A6BF2D
:10288000A781A69FA7A117D0B66BA6C0B5F0B86B5D
:10289000080EB76F0ADD02C0A9F001C0A8F0040E4F
:1028A000A827000EA923A8C0E9FF040EA925EA6EF7
:1028B000840EEF6E0ED0B66BA6C0B5F0B86B080EE6
:1028C000B76FF3DC01C0E9FF040E0224EA6E840E48
:1028D000EF6EB8EF14F0A791A6BFA781A69FA7A19E
:1028E00017D0B66BA6C0B5F0B86B080EB76FDDDCBD
:1028F00002C0AAF001C0A9F0040EA927000EAA2365
:10290000A9C0E9FF040EAA25EA6EEFCFA8F00ED009
:10291000B66BA6C0B5F0B86B080EB76FC6DC01C0C9
:10292000E9FF040E0224EA6EEFCFA8F0A8AF02D0B0
:10293000A8B502D0000E01D0010E016EC2EF14F056
:102940001CC4B0F091DC015228E004011951010AC5
:10295000000105E0020A09E0030A0DE01DD01CC4D5
:10296000A6F060D7A96B58DD18D01CC4A6F086D796
:10297000A96B52DD12D00401586B596B1CC4A6F030
:102980000001A9D7015204E0010E0401586F0001B3
:10299000020EA96F41DD01D042DD3AEF15F0FE0EC7
:1029A000236E120004011C2D01D002D01C5348E1FB
:1029B0001951000A00010BE0010A0DE0210A1CE098
:1029C000010A1FE0030A2EE0010A31E037D0010EB0
:1029D000826FE5DF34D0040EEA6E580EE96EE26ACB
:1029E000350EE16E080E016EE6CFEEFF012EFCD72C
:1029F0001EC4A9F011DD23D0020E826F8081CFDFCB
:102A00001ED0040EEA6E580EE96EE26A2C0EE16EDC
:102A1000070E016EE6CFEEFF012EFCD7070EA96F61
:102A2000FBDC0DD01AC481F0A96BF6DC08D01AC407
:102A300034F01BC433F0A96BEFDC01D0F0DC0401EF
:102A400000013AEF15F01A6A040118517F0B000AD1
:102A5000000107E0010A07E0030A07E0230A07E094
:102A600008D048D607D098D605D06AD703D09AD7D1
:102A700001D0D5DC5CEF17F0B66BA7C0B5F0B86B32
:102A8000080EB76F12DC01C0E9FF040E0224EA6EE3
:102A9000EFCFA9F0A851020806E1A9AD02D0A86BBA
:102AA00002D0010EA86FA85103081AE1840EA96F85
:102AB000B66BA7C0B5F0B86B080EB76F55EC11F048
:102AC00002C0ADF001C0ACF0040EAC27000EAD2387
:102AD000ACC0E9FF040EAD25EA6E840EEF6E07D0A0
:102AE000A82D03D0C80EA96F02D0880EA96FD89068
:102AF000A735036A8FEC10F00900F5CF03F0AA6F39
:102B000003C0ABF0B66BA7C0B5F0B86B080EB76FDB
:102B100055EC11F001C0ACF0010E0124016E000E65
:102B20000220036E01C0E9FF040E0324EA6EAAC06E
:102B3000EFFFABB1A981ABB3A983B66BA7C0B5F06A
:102B4000B86B080EB76F55EC11F001C0E9FF040E29
:102B50000224EA6EA9C0EFFF1200036AB451700F9D
:102B6000E96E0F0E0320EA6EEF5219E0B66BB4C0A7
:102B7000B5F0B86B080EB76F55EC11F002C0B6F0A7
:102B800001C0B5F0040EB527000EB623B5C0E9FFAD
:102B9000040EB625EA6EEFCFB7F0B7AF02D0000E45
:102BA00001D0010E016E1200AFC0B4F0D6DF0152A9
:102BB000D8B47BD0B66BAFC0B5F0B86B080EB76FAA
:102BC00055EC11F002C0B5F001C0B4F0040EB4270A
:102BD000000EB523010EB425016E000EB521036E63
:102BE00001C0E9FF040E0324EA6EB0C0EFFFB2514A
:102BF00002081EE1B66BAFC0B5F0B86B080EB76F38
:102C000055EC11F002C0B5F001C0B4F0040EB427C9
:102C1000000EB523B4C0E9FF040EB525EA6EEFCF70
:102C2000B3F0B3AD02D0B26B02D0010EB26F18D0C8
:102C3000B251040815E1B66BAFC0B5F0B86B080E21
:102C4000B76F55EC11F001C0E9FF040E0224EA6EE3
:102C5000EFCFB3F0B3AD03D0010EB26F01D0B26BC2
:102C6000B22D03D0C80EB36F02D0880EB36FB1B1CE
:102C7000B381B1B3B383B66BAFC0B5F0B86B080E18
:102C8000B76F55EC11F002C0B5F001C0B4F0040EFE
:102C9000B427000EB523B4C0E9FF040EB525EA6ED3
:102CA000B3C0EFFF010E016E02D0000E016E1200E4
:102CB0008251010A03E0030A13E024D0EA6A350EC8
:102CC000E96E040EE26E180EE16E080E016EE6CF9C
:102CD000EEFF012EFCD7A96B0CEC12F0826B13D027
:102CE000EA6A2C0EE96E040EE26E180EE16E070E13
:102CF000016EE6CFEEFF012EFCD7826BA96B0CECC8
:102D000012F001D0826BB9EF16F0B66BA7C0B5F028
:102D1000B86B080EB76F55EC11F002C0A9F001C0F6
:102D2000A8F0010E0124016E000E0220036E01C006
:102D3000E9FF040E0324EA6E036AEFCF01F003C03B
:102D400002F0AFEF16F07D91020EA76FA86F94DE30
:102D5000B4EF16F07D817F6B020EA76FD6D701C04E
:102D60007EF07E5301E1EFD7BEEF16F0A65302E1ED
:102D70009FD704D0A651020801E1ECD71200A7C0EA
:102D80006EFFA75303E0040E226E02D0020E226EE5
:102D9000CFEF16F01B6A1A6A24C0A7F0F0D73BEFFA
:102DA00017F0A7C0B4F0D9DE015243E0B66BA7C05C
:102DB000B5F0B86B080EB76F55EC11F002C0B0F06B
:102DC00001C0AFF0040EAF27000EB023020EAF25F6
:102DD000016E000EB021036E01C0E9FF040E032452
:102DE000EA6EECCFAEF0ED52EFCFADF0AEC0EAFF41
:102DF000ADC0E9FFA9C0E2FFA8C0E1FFABC002F08F
:102E0000AAC001F0015202E0022A02D0025206E0FA
:102E1000E6CFEEFF012EFCD7022EFAD7A7C0AFF007
:102E2000ABC0B1F0AAC0B0F0ACC0B2F0BDDE015092
:102E300002D0000E016E12007C530EE0020EA76F4E
:102E4000A96B3D0EA86FAB6B7CC0AAF0020EAC6FF5
:102E5000A8DF015201E07C6B1200EEDF40EF17F0BB
:102E6000A6530AE11A2C03D011EC12F004D01A5028
:102E7000020801E18FD704D0A651020801E1EDD785
:102E800012002130A46FA433A4331F0EA4172152C3
:102E900041E1040100513C0B0001A56F430E040108
:102EA00000170001A55134081EE104010451800BF4
:102EB00001E0046B0001C7D56D98233C05D0A76BDA
:102EC000030EA86FD9DD0ED0A76B020EA86FD4DD5C
:102ED0002350FE0807E0AF6BB16B23C0B0F0040EC7
:102EE000B26F62DE16D0A551040813E1A66B3EDF77
:102EF000A76B020EA86FC0DD2350FE080AE0233C3A
:102F000001D007D0AF6BB16B23C0B0F0010EB26F30
:102F10004BDE1AD0215004080EE12368A66BA0DF17
:102F2000233C01D007D0AF6BB16B23C0B0F0020ED1
:102F3000B26F3ADE09D021B404D0A4C0A6F016DFE7
:102F400003D0A4C0A6F08CDFDDEF17F0A19A2252C7
:102F500001E139D0685237E068A404D069A402D0F6
:102F600011EF11F06DA201D02ED068AA04D069AA89
:102F700002D029EF11F068A204D069A202D030EF8C
:102F800011F068A004D069A002D0EFEF11F068A89A
:102F900004D069A802D004EF12F068AC04D069AC88
:102FA00002D009EF12F0A36B68A608D069A606D07C
:102FB0006CCF21F0EDEC11F064D701D004D0A35117
:102FC000A32B0308F1E230EF10F045737461732016
:102FD00061206D617320646520324D20646520643A
:102FE000697374616E6369610A0D000044697374EA
:102FF000616E6369613A20254C7520636D730A0D1B
:1030000000006D6A696A080E6F6E94503009946E04
:10301000226A196AF2BE198EF29ED7EC11F019BE1F
:10302000F28E14EF18F0EDD73AEF18F0196AF2BEED
:10303000198EF29ED7EC11F019BEF28E6D6A140E45
:103040006F6E696A6D86010E226E2AEF18F06DB6FA
:1030500001D0ECD7222C0BD06DBA09D0686A696A0E
:10306000A08AC00EF212110E696E020E226E3BEFA4
:1030700018F0D9D7ECD722500208FCE13EEF19F046
:10308000866B856B93928A82C70E006E002EFED7E8
:1030900000D093928A92938081A0FDD7938081A0E3
:1030A00009D0852BD8B4862BE70E006E002EFED7F4
:1030B00000D0F4D7C70E006E002EFED700D085C01A
:1030C00001F086C002F03FEF19F09191F2BE9181BC
:1030D000F29E7C513E0802E23E0E7C6F7C517C2BBE
:1030E000036A3D0FE96E000E0320EA6E90C0EFFF09
:1030F000F29E91B1F28E80EF18F08FC090F0E5D77C
:10310000196AF2BE198EF29E020EB46F26DD19BE48
:10311000F28E015207E0196AF2BE198EF29E8CDE21
:1031200019BEF28E9BEF18F07C513E0801E2FCD7ED
:103130008EC08FF0E2D712000900F5520CE0F6CFF6
:1031400085F0F7CF86F0F5CF8EF0EEDF85C0F6FF85
:1031500086C0F7FFF1D750EF19F00900F6CF86F0DF
:10316000F7CF87F0F5CF8EF0DFDF86C0F6FF87C0A0
:10317000F7FF852FF2D71200EACF8DF0E9CF8CF060
:103180008639F009886F8827E20F896F320F8B6FBD
:1031900086510F0B892789278B27E90F8A6F8A278A
:1031A0008A2785390F0B8A278B278A378B378B1F06
:1031B0008B3785510F0B8B278837070E876F0A0EC9
:1031C0008A078B27FDE389078A27FDE3880789277C
:1031D000FDE387078827FDE3EA6A870EE96E070E9D
:1031E0008C158C9DE9268B0EE95CD8B48C8DEF5044
:1031F000006E08E18CBD06D08CB913D08CB702D01C
:10320000200E03D08C878C99300E0026EACF86F0F2
:10321000E9CF85F000C08EF087DF86C0EAFF85C069
:10322000E9FFEE508CADDFD75FEF19F0EA6A860E4A
:10323000E96EEF500EE00F0E016E006A002EFED711
:10324000012EFBD78F0E006E002EFED70000EF2E52
:10325000F2D76BEF19F0F86AD09E078EEA6AE96A36
:10326000846B836BC150C00B0F09C16E070EB46E27
:103270001E6A040E1F6E0C0E206EFBD601D702C014
:1032800084F001C083F0845106080BE2FF0A03E1D9
:103290008351D00806E2CA0EF66E2F0EF76E4CD799
:1032A00015D0EC0EF66E2F0EF76E0B0E856F55DFF8
:1032B000100EE96E84C086F083C085F05DD7FA0EEB
:1032C000F66E2F0EF76E060E856F47DF020E856FC6
:0E32D000FA0E866FABD7852FFBD7D0D7030041
:020000040030CA
:0E00000024CE3E1E0085A1000FC00FE00F4071
:00000001FF
;PIC18F4550
;CRC=9BF6  CREATED="04-oct-13 12:09"
