:0420000000EF1AF0E3
:08200800046ED8CF05F0E0CF13
:1020100006F00001E9CF0CF0EACF07F0E1CF08F0BD
:10202000E2CF09F0D9CF0AF0DACF0BF0F3CF12F0FC
:10203000F4CF13F0FACF14F0F5CF15F0F6CF16F079
:10204000F7CF17F000C00EF001C00FF002C010F083
:1020500003C011F0A0A230EF10F0A1B217EF11F001
:10206000A0AA36EF10F0A1BA30EF18F00EC000F0C1
:102070000FC001F010C002F011C003F00CC0E9FF66
:1020800007C0EAFF078E08C0E1FF09C0E2FF0AC0EF
:10209000D9FF0BC0DAFF12C0F3FF13C0F4FF14C066
:1020A000FAFF15C0F5FF16C0F6FF17C0F7FF045082
:1020B00006C0E0FF05C0D8FF1000F76ACA0FF66E31
:1020C000200EF7220900F5501200000302FFFFFF67
:1020D000FFFFFFFFFFFFFFFFFFFFF76AEA0FF66E4C
:1020E000200EF7220900F550120000FF02FFFFFF4B
:1020F000FFFFFFFFFFFFFFFFFFFFF76A0A0FF66E0C
:10210000210EF7220900F550120040000B0040009C
:1021100000000000000000000000000000000000BF
:1021200000000000000000000000F76A3A0FF66EA1
:10213000210EF7220900F550120040000000400077
:10214000000000000000000000000000000000008F
:1021500000000000000000000000F76A6A0FF66E41
:10216000210EF7220900F550120009024300020176
:102170000080320904000001020201000524001061
:1021800001042402020524060001052401000107C0
:102190000581030B00FA09040100020A0000000790
:1021A0000502024000010705820240000100F76AB3
:1021B000BE0FF66E210EF7220900F5501200020044
:1021C000F76AD00FF66E210EF7220900F5501200C3
:1021D00012171B20FFFFFFFFF76AE80FF66E210EB4
:1021E000F7220900F5501200120110010200004010
:1021F00061043300000101020001F76A0A0FF66E64
:10220000220EF7220900F550120004030904080306
:102210004300430053001803530045005200490097
:1022200041004C002000440045004D004F00F60ED8
:10223000B36E9F0EB26E1AA008D029501C5C03E347
:1022400093908A8002D093908A901AA208D0295045
:102250001D5C03E393928A8202D093928A921AA41D
:1022600008D029501E5C03E393948A8402D093948F
:102270008A941AA608D029501F5C03E393968A8695
:1022800002D093968A961AA808D02950205C03E3BE
:1022900093988A8802D093988A981AAA08D02950CD
:1022A000215C03E3939A8A8A02D0939A8A9A1AACA1
:1022B00008D02950225C03E3939C8A8C02D0939C23
:1022C0008A9C1AAE08D02950235C03E3939E8A8E21
:1022D00002D0939E8A9E1BA008D02950245C03E361
:1022E00095908C8002D095908C901BA208D029509C
:1022F000265C03E395928C8202D095928C921BA46B
:1023000008D02950275C03E395948C8402D09594DF
:102310008C941BA608D02950285C03E392988988E6
:1023200002D092988998292A29500A0802E2010EBF
:10233000296EA19236EF10F06D92699468A402D0D4
:102340006894FCD73CEF18F0400E0401016F040EB6
:10235000036F180E026F880E006F046B040E076F78
:10236000580E066F0001120070A002D0EDDF7090D1
:10237000689A45EF18F06A6A68924BEF18F0BC91C2
:10238000BBBFBC81BB9FBB51100803E2000E016EB6
:1023900016D0BCA10BD0036ABB518FDEFF0802E14F
:1023A000000E01D0010E016E0AD009D0036ABB51A4
:1023B00094DEFF0802E1000E01D0010E016E120052
:1023C000C051C203F3CF01F0F4CF00F0C303F350C8
:1023D0000026C151C203F3500020026E1200036AAE
:1023E000BA51700FE96E0F0E0320EA6EEF6ABAC0A1
:1023F000BBF0C5DF015222E0C16BBAC0C0F0C36BB5
:10240000080EC26FDDDF01C0E9FF040E0224EA6E90
:10241000EF6AC16BBAC0C0F0C36B080EC26FD0DFE9
:1024200002C0BCF001C0BBF0040EBB27000EBC23F1
:10243000BBC0E9FF040EBC25EA6EEF6A1200010E74
:10244000B96FB9510F0805E3B9C0BAF0C8DFB92BAD
:10245000F8D71200B36BB26B250EB16F800EB06F60
:10246000EA6A3C0EE96EE26AB00EE16E020E016E9F
:10247000E6CFEEFF012EFCD73E6A3F6AB06BEA6AF8
:10248000400EE96EE26AB00EE16EE6CFEEFFB06B91
:10249000EA6A410EE96EE26AB00EE16EE6CFEEFF47
:1024A000080EB06FEA6A420EE96EE26AB00EE16EA3
:1024B000E6CFEEFF906B1B9C446A436A8C6B8D9158
:1024C000916B1200396A386AAF6BAF5101080AE3A9
:1024D000036AAF513A0FE96E000E0320EA6EEF6A0D
:1024E000AF2BF3D7B7DF2C6A010E2D6E2B6A1200CB
:1024F000689612006A6A686A9F0E6B6E3D0E696E7E
:102500006E6A9DDFDFDF160E706E68A602D0F0DF08
:10251000FCD76D9819DF030E336E51EF18F0698404
:1025200068986D8257EF18F0689C5DEF18F0B4C0A2
:1025300034F0120034681200B26B385039102DE0BC
:10254000B2513F082AE32E5005E0020A09E0010AD1
:102550000DE011D037C003F03650FFDDB36F0BD064
:1025600037C003F0365049DEB36F05D037C003F0F3
:10257000365032DEB36F362AD8B4372A3850D8B442
:1025800039063806B251B22B580FE96E040EEA6EC6
:10259000D8B0EA2AB3C0EFFFD0D73850391004E1E1
:1025A000B251400801E02B6AB2C0B4F0C0DF1200A3
:1025B000376A366A2E6A04011B51010A000107E0DE
:1025C000030A0BE0010A0DE0220A22E03AD0396A40
:1025D000120E386E030E2E6E36D0396A430E386EE8
:1025E00032D0020E2E6E036A04011A512F0FE96ECB
:1025F000000E0320EA6E376AEFCF36F037C003F0E3
:1026000036500001FADD036A386E03C039F01BD082
:10261000036A04011A510001D3DD036A366E03C058
:1026200037F0363C02D037520AE037C003F036505C
:1026300094DD036A386E03C039F005D002D07ADF2A
:1026400011D078DF0FD004011F5308E1395203E1A4
:1026500038501E5D03E2396A1EC438F0010E2B6E3D
:1026600000016ADF55EF14F0B15304E1040E336E3C
:10267000E6DEC9D0050E336E040EB46F980EB36F4C
:10268000010EB26FB2510F08D8A0BDD0B2C0BAF0DF
:10269000A6DEB56B036AB25120DDFF0859E0040ED7
:1026A000B56FD890B235036A40DD0900F5CF03F06D
:1026B000B66F03C0B7F0C16BB2C0C0F0C36B080EF9
:1026C000C26F7EDE01C0B9F0010E0124016E000E62
:1026D0000220036E01C0E9FF040E0324EA6EB6C0B7
:1026E000EFFFC16BB2C0C0F0C36B080EC26F68DEF3
:1026F00001C0B9F0020E0124016E000E0220036E2B
:1027000001C0E9FF040E0324EA6EB4C0ECFFED52F1
:10271000B3C0EFFFD890B235036A07DD0900F5CFEB
:1027200003F0B3270350B423880EB86FB7B1B88154
:10273000B7B3B883C16BB2C0C0F0C36B080EC26F31
:102740003FDE01C0E9FF040E0224EA6EB8C0EFFFCD
:10275000036AB251B2DCFF0840E0B583C16BB2C07E
:10276000C0F0C36B080EC26F2BDE02C0BAF001C00E
:10277000B9F0040EB927000EBA23020EB925016E76
:10278000000EBA21036E01C0E9FF040E0324EA6EB5
:10279000B4C0ECFFED52B3C0EFFFD890B235036A7E
:1027A000ACDC0900F5CF03F0B3270350B423C16BB1
:1027B000B2C0C0F0C36B080EC26F02DE02C0BAF036
:1027C00001C0B9F0040EB927000EBA23B9C0E9FF61
:1027D000040EBA25EA6E400EEF6EB551060802E10E
:1027E0000E0EB56F036AB25168DC0108D8A4B58932
:1027F000036AB251700FE96E0F0E0320EA6EB5C086
:10280000EFFFB22B3FD750EF14F004011951000A2B
:1028100000010DE0010A14E0020A1EE0060A27E0AA
:10282000030A2CE00E0A2CE0010A30E03DD02DC056
:1028300058F40401596B020E0001B46F78DE35D0F4
:1028400004011A2D06D0010E2D160001B46B6FDEA7
:1028500002D000016FDE29D004011A2D05D02D828F
:102860000001B46B64DE02D0000164DE1ED0020EF3
:102870002B6E1AC435F0B46B5ADE17D099D615D02A
:102880002CC058F4010EB46F52DE0FD004011A515F
:10289000010808E31AC42CF01AC4B1F00001E4D610
:1028A000B46B45DE000101D045DEC5EF15F02CC04C
:1028B000B1F004011951000A000105E00A0A0BE019
:1028C000010A26E037D00401586B596B020E000153
:1028D000B46F2DDE30D0B15319E0010EB15D036A43
:1028E00066DC016E04011C5DD8A002D000010ED090
:1028F000036A1C513A0FE96E000E0320EA6EEFCF17
:1029000058F4010E0001B46F12DE01D013DE13D0B3
:10291000B1530EE0036A04011C513A0FE96E000E38
:102920000320EA6E1AC4EFFF0001B46B00DE01D091
:1029300001DE01D0FFDDC5EF15F0B291B1BFB2816C
:10294000B19FB2A117D0C16BB1C0C0F0C36B080E6C
:10295000C26F36DD02C0B4F001C0B3F0040EB3277D
:10296000000EB423B3C0E9FF040EB425EA6E880E4E
:10297000EF6E0DD0C16BB1C0C0F0C36B080EC26F5B
:102980001FDD01C0E9FF040E0224EA6EEF6A3DEF8D
:1029900015F0B291B1BFB281B19FB2A117D0C16B96
:1029A000B1C0C0F0C36B080EC26F0ADD02C0B4F044
:1029B00001C0B3F0040EB327000EB423B3C0E9FF87
:1029C000040EB425EA6E840EEF6E0ED0C16BB1C05A
:1029D000C0F0C36B080EC26FF3DC01C0E9FF040E48
:1029E0000224EA6E840EEF6E43EF15F0B291B1BF90
:1029F000B281B19FB2A117D0C16BB1C0C0F0C36B9F
:102A0000080EC26FDDDC02C0B5F001C0B4F0040EE8
:102A1000B427000EB523B4C0E9FF040EB525EA6E55
:102A2000EFCFB3F00ED0C16BB1C0C0F0C36B080ED6
:102A3000C26FC6DC01C0E9FF040E0224EA6EEFCFCC
:102A4000B3F0B3AF02D0B3B502D0000E01D0010E87
:102A5000016E4DEF15F01CC4BBF091DC015228E073
:102A600004011951010A000105E0020A09E0030A04
:102A70000DE01DD01CC4B1F060D7B46B58DD18D088
:102A80001CC4B1F086D7B46B52DD12D00401586B70
:102A9000596B1CC4B1F00001A9D7015204E0010E2A
:102AA0000401586F0001020EB46F41DD01D042DD18
:102AB000C5EF15F0FE0E346E120004011C2D01D07E
:102AC00002D01C5348E11951000A00010BE0010A31
:102AD0000DE0210A1CE0010A1FE0030A2EE0010AB2
:102AE00031E037D0010E916FE5DF34D0040EEA6E8D
:102AF000580EE96EE26A450EE16E080E016EE6CFF1
:102B0000EEFF012EFCD71EC4B4F011DD23D0020E5F
:102B1000916F1B8CCFDF1ED0040EEA6E580EE96E4B
:102B2000E26A3C0EE16E070E016EE6CFEEFF012E6B
:102B3000FCD7070EB46FFBDC0DD01AC490F0B46B59
:102B4000F6DC08D01AC444F01BC443F0B46BEFDCCD
:102B500001D0F0DC04010001C5EF15F02B6A04017F
:102B600018517F0B000A000107E0010A07E0030A81
:102B700007E0230A07E008D048D607D098D605D04A
:102B80006AD703D09AD701D0D5DCE6EF17F0C16B36
:102B9000B2C0C0F0C36B080EC26F12DC01C0E9FF07
:102BA000040E0224EA6EEFCFB4F0B351020806E13E
:102BB000B4AD02D0B36B02D0010EB36FB3510308B2
:102BC0001AE1840EB46FC16BB2C0C0F0C36B080EC3
:102BD000C26FE0EC11F002C0B8F001C0B7F0040E13
:102BE000B727000EB823B7C0E9FF040EB825EA6E78
:102BF000840EEF6E07D0B32D03D0C80EB46F02D091
:102C0000880EB46FD890B235036A95EC10F00900C5
:102C1000F5CF03F0B56F03C0B6F0C16BB2C0C0F022
:102C2000C36B080EC26FE0EC11F001C0B7F0010EEB
:102C30000124016E000E0220036E01C0E9FF040EA4
:102C40000324EA6EB5C0EFFFB6B1B481B6B3B48366
:102C5000C16BB2C0C0F0C36B080EC26FE0EC11F0E4
:102C600001C0E9FF040E0224EA6EB4C0EFFF1200B7
:102C7000036ABF51700FE96E0F0E0320EA6EEF5228
:102C800019E0C16BBFC0C0F0C36B080EC26FE0ECAF
:102C900011F002C0C1F001C0C0F0040EC027000E48
:102CA000C123C0C0E9FF040EC125EA6EEFCFC2F018
:102CB000C2AF02D0000E01D0010E016E1200BAC0E8
:102CC000BFF0D6DF0152D8B47BD0C16BBAC0C0F020
:102CD000C36B080EC26FE0EC11F002C0C0F001C07F
:102CE000BFF0040EBF27000EC023010EBF25016EEA
:102CF000000EC021036E01C0E9FF040E0324EA6E3A
:102D0000BBC0EFFFBD5102081EE1C16BBAC0C0F0ED
:102D1000C36B080EC26FE0EC11F002C0C0F001C03E
:102D2000BFF0040EBF27000EC023BFC0E9FF040E92
:102D3000C025EA6EEFCFBEF0BEAD02D0BD6B02D0B3
:102D4000010EBD6F18D0BD51040815E1C16BBAC0AA
:102D5000C0F0C36B080EC26FE0EC11F001C0E9FFD8
:102D6000040E0224EA6EEFCFBEF0BEAD03D0010E1A
:102D7000BD6F01D0BD6BBD2D03D0C80EBE6F02D09C
:102D8000880EBE6FBCB1BE81BCB3BE83C16BBAC07E
:102D9000C0F0C36B080EC26FE0EC11F002C0C0F0CF
:102DA00001C0BFF0040EBF27000EC023BFC0E9FF63
:102DB000040EC025EA6EBEC0EFFF010E016E02D008
:102DC000000E016E12009151010A03E0030A13E0A4
:102DD00024D0EA6A450EE96E040EE26E180EE16E2A
:102DE000080E016EE6CFEEFF012EFCD7B46B97EC18
:102DF00012F0916B13D0EA6A3C0EE96E040EE26E9B
:102E0000180EE16E070E016EE6CFEEFF012EFCD725
:102E1000916BB46B97EC12F001D0916B43EF17F00C
:102E2000C16BB2C0C0F0C36B080EC26FE0EC11F012
:102E300002C0B4F001C0B3F0010E0124016E000E17
:102E40000220036E01C0E9FF040E0324EA6E036A48
:102E5000EFCF01F003C002F039EF17F08D91020EB1
:102E6000B26FB36F94DE12008D818F6B020EB26F62
:102E7000D7D701C08EF08E5301E1F0DF48EF17F095
:102E8000B15302E1A0D704D0B151020801E1ECD75F
:102E90001200B2C06EFFB25303E0040E336E02D0D4
:102EA000020E336E59EF17F02C6A2B6A35C0B2F060
:102EB000F0D7C5EF17F0B2C0BFF0DADE015243E041
:102EC000C16BB2C0C0F0C36B080EC26FE0EC11F072
:102ED00002C0BBF001C0BAF0040EBA27000EBB233B
:102EE000020EBA25016E000EBB21036E01C0E9FF80
:102EF000040E0324EA6EECCFB9F0ED52EFCFB8F038
:102F0000B9C0EAFFB8C0E9FFB4C0E2FFB3C0E1FF57
:102F1000B6C002F0B5C001F0015202E0022A02D0B0
:102F2000025206E0E6CFEEFF012EFCD7022EFAD7C2
:102F3000B2C0BAF0B6C0BCF0B5C0BBF0B7C0BDF00F
:102F4000BEDE015002D0000E016E12008C530EE066
:102F5000020EB26FB46B4D0EB36FB66B8CC0B5F092
:102F6000020EB76FA8DF015201E08C6B1200EEDF9A
:102F7000CAEF17F0B1530AE12B2C03D09CEC12F0EE
:102F800004D02B50020801E18FD704D0B1510208C0
:102F900001E1EDD712003230AF6FAF33AF331F0E08
:102FA000AF17325241E1040100513C0B0001B06FF8
:102FB000430E040100170001B05134081EE1040162
:102FC0000451800B01E0046B0001C8D56D98343CBE
:102FD00005D0B26B030EB36FDADD0ED0B26B020E0A
:102FE000B36FD5DD3450FE0807E0BA6BBC6B34C05C
:102FF000BBF0040EBD6F63DE16D0B051040813E1C0
:10300000B16B3EDFB26B020EB36FC1DD3450FE0810
:103010000AE0343C01D007D0BA6BBC6B34C0BBF0C3
:10302000010EBD6F4CDE1AD0325004080EE1346838
:10303000B16BA0DF343C01D007D0BA6BBC6B34C09D
:10304000BBF0020EBD6F3BDE09D032B404D0AFC07E
:10305000B1F016DF03D0AFC0B1F08CDF67EF18F02E
:10306000A19A335201E139D0685237E068A404D004
:1030700069A402D09CEF11F06DA201D02ED068AAF5
:1030800004D069AA02D0B4EF11F068A204D069A2FA
:1030900002D0BBEF11F068A004D069A002D07AEF93
:1030A00012F068A804D069A802D08FEF12F068ACC3
:1030B00004D069AC02D094EF12F0AE6B68A608D0D1
:1030C00069A606D06CCF32F078EC12F064D701D04C
:1030D00004D0AE51AE2B0308F1E236EF10F056618A
:1030E0006C6F72206F7074656E69646F3A20256929
:1030F0000A0D00006D6A696A080E6F6E94503009FF
:10310000946E336A196AF2BE198EF29E62EC12F066
:1031100019BEF28E8DEF18F0EDD7B3EF18F0196AE3
:10312000F2BE198EF29E62EC12F019BEF28E6D6A3A
:10313000140E6F6E696A6D86010E336EA3EF18F080
:103140006DB601D0ECD7332C0BD06DBA09D0686ABC
:10315000696AA08AC00EF212110E696E020E336EF9
:10316000B4EF18F0D9D7ECD733500208FCE123EFC5
:103170001AF08DB101D0FDD78F518F2BA30FE96EBF
:10318000040EEA6ED8B0EA2AEFCF93F08E518F5D2D
:1031900007E3196AF2BE198EF29E60DE19BEF28E46
:1031A00093C001F024EF1AF0080E016E110E006EAC
:1031B000002EFED78A929392110E006E002EFED73B
:1031C00094378A90D8B09380D8A09390938281A2AC
:1031D000FED7012EEBD7110E006E002EFED78A927D
:1031E000939200009380110E006E002EFED7110EF8
:1031F000006E002EFED7938281A2FED7016A110EC7
:10320000006E002EFED781B001808A9293928A9040
:1032100093901200EA6A940EE96EEF500EE00F0EE2
:10322000016E006A002EFED7012EFBD78F0E006EB6
:10323000002EFED70000EF2EF2D71200929689865C
:103240009380110E006E002EFED79382110E006E39
:10325000002EFED78A909390110E006E002EFED79E
:103260008A929392040E946F9FDF93C094F09CDF38
:1032700093900000938281A2FED7110E006E002E63
:10328000FED700D000009380110E006E002EFED7F6
:10329000320E946FBFDF9296899629EF1AF09C91B7
:1032A000F2BE9C81F29E8C513E0802E23E0E8C6F73
:1032B0008C518C2B036A4D0FE96E000E0320EA6ED1
:1032C0009BC0EFFFF29E9CB1F28E6AEF19F09AC09C
:1032D0009BF0E5D7196AF2BE198EF29E020EBF6FFF
:1032E000C7DC19BEF28E015207E0196AF2BE198ED0
:1032F000F29E2CDE19BEF28E85EF19F08C513E083D
:1033000001E2FCD799C09AF0E2D712000900F6CF8B
:1033100094F0F7CF95F0F5CF99F0F0DF94C0F6FF79
:1033200095C0F7FF932FF2D730EF1AF09A51016A48
:10333000995D03E299C000F00CD0006A080E9B6F03
:10334000993700369A51005CD8B0006E01369B2F39
:10335000F7D71200200E94A9300E956F93C000F09D
:1033600093AF08D0001E002A00C093F02D0E956F79
:10337000948F9481015093C099F0640E9A6FD6DFB8
:1033800000C093F0300E0124966F93C099F00A0E9E
:103390009A6FCCDF300E0024986F300E0124976FA7
:1033A00095C000F0300E965D04E0948394BF948540
:1033B00012D095C096F0200E956F300E975D04E008
:1033C000948194BF948307D0D8A4948104E196C0DB
:1033D00097F0200E966F94B505D094B306D094B1B3
:1033E00007D009D095C099F089DF96C099F086DFA3
:1033F00097C099F083DF98C099F080DF35EF1AF01D
:10340000F86AD09E078EEA6AE96A1B981B9A010E39
:10341000296E2A6AB886E10EAF6E040EB06EA60E53
:10342000AC6E900EAB6E95988C88959C8C8CC15030
:10343000C00B0F09C16E070EB46E2F6A040E306EFA
:103440000C0E316E8FD695D601C092F092C093F0DB
:10345000F5D6DE0EF66E300EF76E100E936F56D761
:1034600092C093F0180E946F75D70A0E996F46DFCD
:103470000D0E996F43DF640E946FCCDEE4D703002A
:020000040030CA
:0E00000024CE3E1E0085A1000FC00FE00F4071
:00000001FF
;PIC18F4550
;CRC=45AC  CREATED="08-sep-13 20:58"
