:04200000F0EF10F0FD
:08200800046ED8CF05F0E0CF13
:1020100006F00001E9CF0CF0EACF07F0E1CF08F0BD
:10202000E2CF09F0D9CF0AF0DACF0BF0F3CF12F0FC
:10203000F4CF13F0FACF14F0F5CF15F0F6CF16F079
:10204000F7CF17F000C00EF001C00FF002C010F083
:1020500003C011F0A0A230EF10F0A1B257EF10F0C2
:102060000EC000F00FC001F010C002F011C003F06C
:102070000CC0E9FF07C0EAFF078E08C0E1FF09C0F6
:10208000E2FF0AC0D9FF0BC0DAFF12C0F3FF13C092
:10209000F4FF14C0FAFF15C0F5FF16C0F6FF17C015
:1020A000F7FF045006C0E0FF05C0D8FF1000F60E91
:1020B000B36E9F0EB26E19A008D028501B5C03E3CC
:1020C00093908A8002D093908A9019A208D02850C9
:1020D0001C5C03E393928A8202D093928A9219A4A1
:1020E00008D028501D5C03E393948A8402D0939413
:1020F0008A9419A608D028501E5C03E393968A861A
:1021000002D093968A9619A808D028501F5C03E342
:1021100093988A8802D093988A9819AA08D0285050
:10212000205C03E3939A8A8A02D0939A8A9A19AC24
:1021300008D02850215C03E3939C8A8C02D0939CA6
:102140008A9C19AE08D02850225C03E3939E8A8EA5
:1021500002D0939E8A9E1AA008D02850235C03E3E5
:1021600095908C8002D095908C901AA208D028501F
:10217000245C03E395928C8202D095928C921AA4EF
:1021800008D02850265C03E395948C8402D0959463
:102190008C941AA608D02850275C03E3929889886B
:1021A00002D092988998282A28500A0802E2010E43
:1021B000286EA19230EF10F0EA6A2B0EE96EEF5014
:1021C0000EE00F0E016E006A002EFED7012EFBD727
:1021D0008F0E006E002EFED70000EF2EF2D71200F9
:1021E000F86AD09E078EEA6AE96A1A981A9A010E6E
:1021F000286E296AC150C00B0F09C16E070EB46E5C
:1022000093908A80020E2A6EFA0E2B6ED5DF2A2E4C
:10221000FBD793908A90020E2A6EFA0E2B6ECCDFBB
:082220002A2EFBD7EDD70300C5
:020000040030CA
:0E00000024CE3E1E0085A1000FC00FE00F4071
:00000001FF
;PIC18F4550
;CRC=7BFA  CREATED="25-sep-14 20:18"
