:042000002AEF18F0BB
:08200800046ED8CF05F0E0CF13
:1020100006F00001E9CF0CF0EACF07F0E1CF08F0BD
:10202000E2CF09F0D9CF0AF0DACF0BF0F3CF12F0FC
:10203000F4CF13F0FACF14F0F5CF15F0F6CF16F079
:10204000F7CF17F000C00EF001C00FF002C010F083
:1020500003C011F0A0A230EF10F0A1B281EF11F097
:10206000A0AA36EF10F0A1BA1AEF17F00EC000F0D8
:102070000FC001F010C002F011C003F00CC0E9FF66
:1020800007C0EAFF078E08C0E1FF09C0E2FF0AC0EF
:10209000D9FF0BC0DAFF12C0F3FF13C0F4FF14C066
:1020A000FAFF15C0F5FF16C0F6FF17C0F7FF045082
:1020B00006C0E0FF05C0D8FF1000F76ACA0FF66E31
:1020C000200EF7220900F5501200000303FFFFFF66
:1020D000FFFFFFFFFFFFFFFFFFFFF76AEA0FF66E4C
:1020E000200EF7220900F550120000FF03FFFFFF4A
:1020F000FFFFFFFFFFFFFFFFFFFFF76A0A0FF66E0C
:10210000210EF7220900F5501200400008000800D7
:1021100000000000000000000000000000000000BF
:1021200000000000000000000000F76A3A0FF66EA1
:10213000210EF7220900F5501200400000000400B3
:10214000000000000000000000000000000000008F
:1021500000000000000000000000F76A6A0FF66E41
:10216000210EF7220900F550120005010902A10114
:102170000901A1000509190129031500250195038D
:10218000750181029501750581010501093009314B
:1021900009381581257F750895038106C0C00501A2
:1021A0000906A101050719E029E7150025017501B8
:1021B000950881029501750881019505750105084D
:1021C000190129059102950175039101950575087D
:1021D000150025650507190029658100C000F76A0B
:1021E000EE0FF66E210EF7220900F55012000000E6
:1021F0003400F76A020FF66E220EF7220900F5503E
:10220000120034003F00F76A160FF66E220EF72216
:102210000900F55012000902420002010080FA098B
:102220000400000103010200092100010001223421
:10223000000705810308000A0904010002030101E7
:1022400000092100010001223F0007058203080068
:102250000A0705020304000AF76A680FF66E220EE9
:10226000F7220900F55012000200F76A7A0FF66EA5
:10227000220EF7220900F550120012002B00F76A17
:102280008E0FF66E220EF7220900F5501200120191
:10229000100100000040610455000001010200012E
:1022A000F76AB00FF66E220EF7220900F550120001
:1022B00000040C00F76AC40FF66E220EF722090024
:1022C000F5501200040309040803430043005300BF
:1022D000320347002D0050006900430020005500E4
:1022E0005300420020004B006500790062006F003F
:1022F0006100720064002F004D006F0075007300D4
:102300006500F60EB36E9F0EB26E1AA008D029506B
:102310001C5C03E393908A8002D093908A901AA267
:1023200008D029501D5C03E393928A8202D09392D5
:102330008A921AA408D029501E5C03E393948A84DD
:1023400002D093948A941AA608D029501F5C03E304
:1023500093968A8602D093968A961AA808D0295016
:10236000205C03E393988A8802D093988A981AAAEB
:1023700008D02950215C03E3939A8A8A02D0939A69
:102380008A9A1AAC08D02950225C03E3939C8A8C69
:1023900002D0939C8A9C1AAE08D02950235C03E398
:1023A000939E8A8E02D0939E8A9E1BA008D02950AD
:1023B000245C03E395908C8002D095908C901BA2B6
:1023C00008D02950265C03E395928C8202D0959226
:1023D0008C921BA408D02950275C03E395948C842D
:1023E00002D095948C941BA608D02950285C03E356
:1023F0009298898802D092988998292A29500A08A7
:1024000002E2010E296EA19236EF10F06D926994EE
:1024100068A402D06894FCD726EF17F0400E0401A0
:10242000016F040E036F180E026F880E006F046BAD
:10243000040E076F580E066F0001120070A002D044
:10244000EDDF7090689A2FEF17F06A6A689235EFA7
:1024500017F0639162BF6381629F6251100803E2CB
:10246000000E016E16D063A10BD0036A625125DE07
:10247000FF0802E1000E01D0010E016E0AD009D062
:10248000036A62512ADEFF0802E1000E01D0010E4C
:10249000016E1200036A6151700FE96E0F0E032086
:1024A000EA6EEF6A61C062F0D4DF015218E0615158
:1024B000080DF350636BE96E040E6325EA6EEF6A54
:1024C0006151080DF350636B626F040E6227000EBA
:1024D000632362C0E9FF040E6325EA6EEF6A12000F
:1024E000010E606F60510F0805E360C061F0D2DF3C
:1024F000602BF8D71200566A565001080AE3036AA7
:102500005650350FE96E000E0320EA6EEF6A562A28
:10251000F3D72C6A010E2D6E2B6A120068961200FA
:102520006A6A686A9F0E6B6E3D0E696E6E6AD8DFCE
:10253000E2DF160E706E68A602D0F0DFFCD76D9851
:102540006DDF030E306E3BEF17F0698468986D8283
:1025500041EF17F0689C47EF17F05BC031F01200B5
:1025600031681200596A345229E059503F0826E375
:102570002E50FC0F16E2040FE8EF12F0036A3350FE
:1025800042DE5A6E0ED0036A3350E7DD5A6E09D030
:10259000036A33508FDE5A6E04D0036A33506FDE05
:1025A0005A6E332A34065950592A036A580FE96E75
:1025B000040E0320EA6E5AC0EFFFD5D7345204E16F
:1025C0005950400801E02B6A59C05BF0C6DF120089
:1025D000E824F76AF736EB0FF66E250EF7220A00AD
:1025E000F550FA6E0800F550F96E7C258625902589
:1025F0009A25336A2E6A04011B51010A000109E081
:10260000030A0CE0010A0DE0220A18E0030A2BE09D
:1026100047D0120E346E030E2E6E44D0420E346E2E
:1026200041D0020E2E6E036A04011A51000138DEF9
:10263000336E036A33503EDE346E34D0D8900401DA
:102640001A35036A000111DE0900F5CF03F0336E7D
:10265000333C01D006D0036A3350D5DD346E22D02E
:1026600002D07EDF2BD0D89004011C35036A000114
:10267000B6DD0900F5CF03F0336E333C01D00ED048
:10268000010E2E6ED89004011C35036A0001B1DDE5
:102690000900F5CF03F0346E05D002D061DF0ED013
:1026A0005FDF0CD004011F5305E134501E5D02E2D0
:1026B0001EC434F0010E2B6E000154DF120058527C
:1026C00004E1040E306E0CDFB1D0050E306E040E46
:1026D0005B6E980E5A6E010E596E59500F08D8A0B5
:1026E000A5D059C061F0D6DE5C6A036A5950F5DCAA
:1026F000FF084DE0040E5C6ED8905934036A15DD76
:102700000900F5CF03F05D6E03C05EF05950080D6F
:10271000F350616B606F010E6025016E000E612148
:10272000036E01C0E9FF040E0324EA6E5DC0EFFFF3
:102730005950080DF350616B606F020E6025016EF9
:10274000000E6121036E01C0E9FF040E0324EA6E4E
:102750005BC0ECFFED525AC0EFFFD8905934036ACA
:10276000E4DC0900F5CF03F05A2603505B22880E03
:102770005F6E5EB05F805EB25F825950080DF350AD
:10278000616BE96E040E6125EA6E5FC0EFFF036ABC
:10279000595093DCFF0834E05C825950080DF35027
:1027A000616B606F040E6027000E6123020E6025CE
:1027B000016E000E6121036E01C0E9FF040E0324C7
:1027C000EA6E5BC0ECFFED525AC0EFFFD89059346F
:1027D000036A93DC0900F5CF03F05A2603505B220D
:1027E0005950080DF350616B606F040E6027000EA6
:1027F000612360C0E9FF040E6125EA6E400EEF6EB2
:102800005C50060802E10E0E5C6E036A595055DCFE
:102810000108D8A45C88036A5950700FE96E0F0E46
:102820000320EA6E5CC0EFFF592A57D763EF14F01C
:1028300004011951000A00010DE0010A14E0020A26
:102840001EE0060A27E0030A2CE00E0A2CE0010A2B
:1028500030E03DD02DC058F40401596B020E5B6E80
:1028600000017BDE35D004011A2D06D0010E2D1695
:102870005B6A000172DE02D0000172DE29D0040121
:102880001A2D05D02D825B6A000167DE02D000019F
:1028900067DE1ED0020E2B6E1AC432F05B6A5DDE5C
:1028A00017D0A7DE15D02CC058F4010E5B6E55DE94
:1028B0000FD004011A51010808E31AC42CF01AC4FD
:1028C00058F00001FCD65B6A48DE000101D048DE0A
:1028D00070EF15F02CC058F004011951000A0001E6
:1028E00007E00A0A0DE0010A28E00D0A38E039D0B5
:1028F0000401586B596B020E5B6E00012EDE32D064
:10290000585219E0010E585C036AA6DC016E0401FE
:102910001C5DD8A002D000010ED0036A1C51350FF7
:10292000E96E000E0320EA6EEFCF58F4010E5B6EE5
:10293000000113DE01D014DE15D058520EE0036AF8
:1029400004011C51350FE96E000E0320EA6E1AC413
:10295000EFFF5B6A000101DE01D002DE03D049DE39
:1029600001D0FEDD70EF15F0599058BE5980589E89
:1029700059A011D05850080DF3505B6A5A6E040EDE
:102980005A26000E5B225AC0E9FF040E5B24EA6E51
:10299000880EEF6E09D05850080DF3505B6AE96E4F
:1029A000040E5B24EA6EEF6A36EF15F0599058BEBC
:1029B0005980589E59A011D05850080DF3505B6AA9
:1029C0005A6E040E5A26000E5B225AC0E9FF040E0E
:1029D0005B24EA6E840EEF6E0AD05850080DF35057
:1029E0005B6AE96E040E5B24EA6E840EEF6E3CEFC8
:1029F00015F0599058BE5980589E59A011D0585082
:102A0000080DF3505C6A5B6E040E5B26000E5C22C0
:102A10005BC0E9FF040E5C24EA6EEFCF5AF00AD0E7
:102A20005850080DF3505C6AE96E040E5C24EA6E9F
:102A3000EFCF5AF05AAE02D05AB402D0000E01D0F5
:102A4000010E016E46EF15F01CC462F002DD01526A
:102A500028E004011951010A000105E0020A09E019
:102A6000030A0DE01DD01CC458F07ED75B6A75DDEB
:102A700018D01CC458F09AD75B6A6FDD12D00401DD
:102A8000586B596B1CC458F00001B3D7015204E0D5
:102A9000010E0401586F0001020E5B6E5EDD01D075
:102AA0005FDD70EF15F004011951000159DD70EF81
:102AB00015F02B6A040118517F0B000A000107E092
:102AC000010A07E0030A07E0230A07E008D0B0D6AE
:102AD00007D000D705D0B8D703D0E5D701D040DD67
:102AE0008EEF16F05850080DF3505E6AE96E040E32
:102AF0005E24EA6EEFCF5AF05950020806E15AAC54
:102B000002D0596A02D0010E596E5950030813E1E0
:102B1000840E5A6E5850080DF3505E6A5D6E040EB6
:102B20005D26000E5E225DC0E9FF040E5E24EA6EA3
:102B3000840EEF6E07D0592C03D0C80E5A6E02D007
:102B4000880E5A6ED8905834036A95EC10F009003C
:102B5000F5CF03F05B6E03C05CF05850080DF350E6
:102B60005E6A5D6E010E5D24016E000E5E20036ED6
:102B700001C0E9FF040E0324EA6E5BC0EFFF5CB006
:102B80005A805CB25A825850080DF3505E6AE96E62
:102B9000040E5E24EA6E5AC0EFFF1200036A5D5015
:102BA000700FE96E0F0E0320EA6EEF5212E05D50D7
:102BB000080DF3505F6A5E6E040E5E26000E5F2203
:102BC0005EC0E9FF040E5F24EA6EEFCF60F060AFF5
:102BD00002D0000E01D0010E016E120058C05DF04F
:102BE000DDDF015261E05850080DF3505E6A5D6E02
:102BF000040E5D26000E5E22010E5D24016E000EA5
:102C00005E20036E01C0E9FF040E0324EA6E59C082
:102C1000EFFF5B50020817E15850080DF3505E6A51
:102C20005D6E040E5D26000E5E225DC0E9FF040E9F
:102C30005E24EA6EEFCF5CF05CAC02D05B6A02D03F
:102C4000010E5B6E13D05B50040810E15850080D64
:102C5000F3505E6AE96E040E5E24EA6EEFCF5CF01C
:102C60005CAC03D0010E5B6E01D05B6A5B2C03D0C1
:102C7000C80E5C6E02D0880E5C6E5AB05C805AB290
:102C80005C825850080DF3505E6A5D6E040E5D263E
:102C9000000E5E225DC0E9FF040E5E24EA6E5CC099
:102CA000EFFF010E016E02D0000E016E12005852AD
:102CB00000E1120059C06EFF595203E0040E306E5D
:102CC00002D0020E306E6AEF16F02C6A2B6A32C008
:102CD00059F0F0D776EF16F0585208E12B2C02D0BD
:102CE00041DC04D02B50020801E1EFD712002F3055
:102CF000566E563256321F0E56162F5241E10401BF
:102D000000513C0B576E430E0017575034081EE11C
:102D10000451800B01E0046B0001CBD66D98313C6F
:102D200005D0586A030E596EDDDE0ED0586A020EC9
:102D3000596ED8DE3150FE0807E0586A5A6A31C031
:102D400059F0040E5B6E4ADF18D004015750040896
:102D500015E1586A0001ABDF586A020E596EC2DEF7
:102D60003150FE080AE0313C01D007D0586A5A6A57
:102D700031C059F0010E5B6E31DF040158D0000103
:102D80002F50040812E1430E040104173168586AF9
:102D90000001A2DF313C01D007D0586A5A6A31C025
:102DA00059F0020E5B6E1ADF41D02FB41BD0565083
:102DB000080DF350596A016E040E5924036E5650E3
:102DC000080DF3505D6AE96E040E5D24EA6EEF5063
:102DD000430B03C0EAFF01C0E9FFEF6E56C058F095
:102DE00066DF24D05650080DF350596A586E040E11
:102DF0005826000E5922040E5924036E5650080D11
:102E0000F3505D6A5C6E040E5C26000E5D225CC0B1
:102E1000E9FF040E5D24EA6EEF50430B03C0EAFFA6
:102E200058C0E9FFEF6E56C058F056DF04010001AC
:102E300051EF17F0A19A305201E139D0685237E0D2
:102E400068A404D069A402D006EF12F06DA201D0EC
:102E50002ED068AA04D069AA02D01EEF12F068A290
:102E600004D069A202D025EF12F068A004D069A0B6
:102E700002D090EF12F068A804D069A802D0A5EFA4
:102E800012F068AC04D069AC02D0AAEF12F0556A17
:102E900068A608D069A606D06CCF2FF08EEC12F091
:102EA00026D701D004D05550552A0308F1E236EF59
:102EB00010F06D6A696A080E6F6E94503009946E56
:102EC000306A196AF2BE198EF29E7BEC12F019BEBE
:102ED000F28E6CEF17F0EDD792EF17F0196AF2BE91
:102EE000198EF29E7BEC12F019BEF28E6D6A140EF2
:102EF0006F6E696A6D86010E306E82EF17F06DB6E7
:102F000001D0ECD7302C0BD06DBA09D0686A696A51
:102F1000A08AC00EF212110E696E020E306E93EF8F
:102F200017F0D9D7ECD730500208FCE1ADEF17F01D
:102F3000EA6A440EE96EEF500EE00F0E016E006A71
:102F4000002EFED7012EFBD78F0E006E002EFED76F
:102F50000000EF2EF2D71200E4D7020E436EFA0EF5
:102F6000446EE6DF432EFBD74AEF18F0196AF2BE33
:102F7000198EF29E44C05DF011DE19BEF28E015230
:102F800042E04450080DF3504D6A4C6E040E4C263E
:102F9000000E4D22020E4C24016E000E4D20036ED9
:102FA00001C0E9FF040E0324EA6EECCF4BF0ED52B2
:102FB000EFCF4AF04BC0EAFF4AC0E9FF46C0E2FF4C
:102FC00045C0E1FF48C002F047C001F0015202E0F5
:102FD000022A02D0025206E0E6CFEEFF012EFCD715
:102FE000022EFAD7196AF2BE198EF29E44C058F02A
:102FF00048C05AF047C059F049C05BF0EFDD19BE38
:10300000F28E015002D0000E016E12003E6A3F6A3D
:10301000406A416A010E446E466A3E0E456E486A39
:10302000040E476E020E496EA1DF28EF18F043C070
:103030003EF0010E446E466A3E0E456E486A040E2E
:10304000476E020E496E92DF640E446E71DFDED76A
:1030500050EF18F0F86AD09E078EEA6AE96A1B986A
:103060001B9A010E296E2A6AB886E10EAF6E040E15
:10307000B06EA60EAC6E900EAB6E95988C88959C3B
:103080008C8C306A346AC150C00B0F09C16E070EB8
:10309000B46E62D7928880B80AD0010E436EC7D74B
:1030A000020E436EFA0E446E43DF432EFBD7F2D777
:0230B00003001B
:020000040030CA
:0E00000024CE3E1E0085A1000FC00FE00F4071
:00000001FF
;PIC18F4550
;CRC=32D6  CREATED="18-Feb-13 11:38"
