:04200000ECEF1BF0F6
:08200800046ED8CF05F0E0CF13
:1020100006F00001E9CF0CF0EACF07F0E1CF08F0BD
:10202000E2CF09F0D9CF0AF0DACF0BF0F3CF12F0FC
:10203000F4CF13F0FACF14F0F5CF15F0F6CF16F079
:10204000F7CF17F000C00EF001C00FF002C010F083
:1020500003C011F0A0AA30EF10F0A1BACBEF17F037
:102060000EC000F00FC001F010C002F011C003F06C
:102070000CC0E9FF07C0EAFF078E08C0E1FF09C0F6
:10208000E2FF0AC0D9FF0BC0DAFF12C0F3FF13C092
:10209000F4FF14C0FAFF15C0F5FF16C0F6FF17C015
:1020A000F7FF045006C0E0FF05C0D8FF1000F76A34
:1020B000BE0FF66E200EF7220900F5501200000345
:1020C00002FFFFFFFFFFFFFFFFFFFFFFFFFFF76ABA
:1020D000DE0FF66E200EF7220900F550120000FF09
:1020E00002FFFFFFFFFFFFFFFFFFFFFFFFFFF76A9A
:1020F000FE0FF66E200EF7220900F5501200400088
:102100000800400000000000000000000000000087
:102110000000000000000000000000000000F76A5E
:102120002E0FF66E210EF7220900F5501200400026
:10213000000040000000000000000000000000005F
:102140000000000000000000000000000000F76A2E
:102150005E0FF66E210EF7220900F55012000902FB
:102160004300020100803209040000010202010064
:1021700005240010010424020205240600010524A0
:10218000010001070581030800FA09040100020AA1
:10219000000000070502024000010705820240001E
:1021A0000100F76AB20FF66E210EF7220900F55012
:1021B00012000200F76AC40FF66E210EF722090022
:1021C000F550120012171B20FFFFFFFFF76ADC0F0C
:1021D000F66E210EF7220900F550120012011001CF
:1021E0000200004061043300000101020001F76AAF
:1021F000FE0FF66E210EF7220900F55012000403BF
:10220000090408034300430053001803530045002A
:102210005200490041004C002000440045004D00A0
:102220004F006D92699468A402D06894FCD7D7EFF0
:1022300017F0400E0401016F040E036F180E026FB9
:10224000880E006F046B040E076F580E066F0001B6
:10225000000C70A002D0EDDF7090689AE0EF17F0EC
:102260006A6A6892E6EF17F0B691B5BFB681B59F7E
:10227000B551100803E2000E016E17D0B6A10BD0C5
:10228000036AB55114DFFF0802E1000E01D0010E10
:10229000016E0BD00AD0036AB55119DFFF0802E1C5
:1022A000000E01D0010E016E00D0000CBA51BC032B
:1022B000F3CF01F0F4CF00F0BD03F3500026BB5183
:1022C000BC03F3500020026E000C036AB451700F7F
:1022D000E96E0F0E0320EA6EEF6AB4C0B5F0C4DFFA
:1022E000015222E0BB6BB4C0BAF0BD6B080EBC6FEC
:1022F000DDDF01C0E9FF040E0224EA6EEF6ABB6B6A
:10230000B4C0BAF0BD6B080EBC6FD0DF02C0B6F02F
:1023100001C0B5F0040EB527000EB623B5C0E9FF25
:10232000040EB625EA6EEF6A000C010EB36FB351CE
:102330000F0805E3B3C0B4F0C8DFB32BF8D7000C27
:102340002C6A2B6A250E2A6E800E296E2D6A2E6A43
:10235000080E2F6E7E6B7D91316A306A796B7A91AF
:10236000000CA96BA95101080AE3036AA951270FC0
:10237000E96E000E0320EA6EEF6AA92BF3D7E0DFC7
:102380001B6A010E1C6E1A6A000C6896000C6A6AC1
:10239000686A9F0E6B6E3D0E696E6E6AC6DFE1DF86
:1023A000160E706E68A602D0F0DFFCD76D9841DF84
:1023B000030E226EECEF17F0698468986D82F2EFDD
:1023C00017F0689CF8EF17F0AEC023F0000CFF0E7A
:1023D000236E000CAC6B265226E0AC513F0823E381
:1023E0001D5005E0020A08E0010A0BE00FD0036A65
:1023F0002550ADDEAD6F0AD0036A2550F8DEAD6F13
:1024000005D0036A2550E2DEAD6F00D0252A2606EE
:10241000AC51AC2B580FE96E040EEA6ED8B0EA2A24
:10242000ADC0EFFFD8D7265204E1AC51400801E01F
:102430001A6AACC0AEF0C8DF000C256A1D6A040140
:102440001B51010A000107E0030A0AE0010A0BE040
:10245000220A1BE02BD0120E266E030E1D6E28D012
:10246000430E266E25D0020E1D6E036A04011A511A
:102470001E0FE96E000E0320EA6EEFCF25F0036A0F
:1024800025500001B4DE266E13D0036A04011A51F0
:10249000000190DE256E253C01D006D0036A255050
:1024A00056DE266E05D002D092DF0ED090DF0CD023
:1024B00004011F5305E126501E5D02E21EC426F0F2
:1024C000010E1A6E000186DF88EF13F0AB5304E1B2
:1024D000040E226E2ADFC9D0050E226E040EAE6FE6
:1024E000980EAD6F010EAC6FAC510F08D8A0BDD0E7
:1024F000ACC0B4F0EADEAF6B036AAC51E8DDFF08B4
:1025000059E0040EAF6FD890AC35036A08DE0900BD
:10251000F5CF03F0B06F03C0B1F0BB6BACC0BAF045
:10252000BD6B080EBC6FC2DE01C0B3F0010E01240A
:10253000016E000E0220036E01C0E9FF040E0324A9
:10254000EA6EB0C0EFFFBB6BACC0BAF0BD6B080E5B
:10255000BC6FACDE01C0B3F0020E0124016E000EB0
:102560000220036E01C0E9FF040E0324EA6EAEC030
:10257000ECFFED52ADC0EFFFD890AC35036ACFDD74
:102580000900F5CF03F0AD270350AE23880EB26FDC
:10259000B1B1B281B1B3B283BB6BACC0BAF0BD6BA9
:1025A000080EBC6F83DE01C0E9FF040E0224EA6E50
:1025B000B2C0EFFF036AAC517ADDFF0840E0AF83A1
:1025C000BB6BACC0BAF0BD6B080EBC6F6FDE02C057
:1025D000B4F001C0B3F0040EB327000EB423020E12
:1025E000B325016E000EB421036E01C0E9FF040E95
:1025F0000324EA6EAEC0ECFFED52ADC0EFFFD89001
:10260000AC35036A74DD0900F5CF03F0AD27035044
:10261000AE23BB6BACC0BAF0BD6B080EBC6F46DE20
:1026200002C0B4F001C0B3F0040EB327000EB4230F
:10263000B3C0E9FF040EB425EA6E400EEF6EAF5151
:10264000060802E10E0EAF6F036AAC5130DD0108DF
:10265000D8A4AF89036AAC51700FE96E0F0E032046
:10266000EA6EAFC0EFFFAC2B3FD782EF13F004014F
:102670001951000A00010DE0010A14E0020A1EE0EF
:10268000060A27E0030A2CE00E0A2CE0010A30E0DB
:102690003DD01CC058F40401596B020E0001AE6F0E
:1026A00093DE36D004011A2D06D0010E1C1600014F
:1026B000AE6B8ADE02D000018ADE2AD004011A2D18
:1026C00005D01C820001AE6B7FDE02D000017FDEF0
:1026D0001FD0020E1A6E1AC424F0AE6B75DE18D02D
:1026E000ACD616D01BC058F4010EAE6F6DDE10D004
:1026F00004011A51010808E31AC41BF01AC4ABF014
:102700000001E4D6AE6B60DE000102D060DE00D0D6
:10271000FCEF14F01BC0ABF004011951000A0001DA
:1027200005E00A0A0BE0010A26E037D00401586BE5
:10273000596B020E0001AE6F47DE31D0AB5319E08A
:10274000010EAB5D036A2DDD016E04011C5DD8A096
:1027500002D000010ED0036A1C51270FE96E000E53
:102760000320EA6EEFCF58F4010E0001AE6F2CDEAD
:1027700001D02DDE14D0AB530EE0036A04011C51CE
:10278000270FE96E000E0320EA6E1AC4EFFF000166
:10279000AE6B1ADE01D01BDE02D019DE00D0FCEFDA
:1027A00014F0AC91ABBFAC81AB9FACA117D0BB6BAD
:1027B000ABC0BAF0BD6B080EBC6F78DD02C0AEF0E6
:1027C00001C0ADF0040EAD27000EAE23ADC0E9FF91
:1027D000040EAE25EA6E880EEF6E0DD0BB6BABC05B
:1027E000BAF0BD6B080EBC6F61DD01C0E9FF040EDD
:1027F0000224EA6EEF6A71EF14F0AC91ABBFAC81CA
:10280000AB9FACA117D0BB6BABC0BAF0BD6B080ED1
:10281000BC6F4CDD02C0AEF001C0ADF0040EAD27C0
:10282000000EAE23ADC0E9FF040EAE25EA6E840EA5
:10283000EF6E0ED0BB6BABC0BAF0BD6B080EBC6FB9
:1028400035DD01C0E9FF040E0224EA6E840EEF6E4E
:1028500077EF14F0AC91ABBFAC81AB9FACA117D0BC
:10286000BB6BABC0BAF0BD6B080EBC6F1FDD02C006
:10287000AFF001C0AEF0040EAE27000EAF23AEC025
:10288000E9FF040EAF25EA6EEFCFADF00ED0BB6BC3
:10289000ABC0BAF0BD6B080EBC6F08DD01C0E9FF2C
:1028A000040E0224EA6EEFCFADF0ADAF02D0ADB5AD
:1028B00002D0000E01D0010E016E81EF14F01CC495
:1028C000B5F0D2DC015229E004011951010A0001DE
:1028D00005E0020A09E0030A0DE01DD01CC4ABF0BC
:1028E00060D7AE6B71DD19D01CC4ABF086D7AE6B70
:1028F0006BDD13D00401586B596B1CC4ABF00001A5
:10290000A9D7015204E0010E0401586F0001020E24
:10291000AE6F5ADD02D05BDD00D0FCEF14F0FE0E8E
:10292000236E000C04011C2D01D002D01C5349E180
:102930001951000A00010BE0010A0DE0210A1CE018
:10294000010A1FE0030A2EE0010A31E037D0010E30
:10295000806FE5DF35D0040EEA6E580EE96EE26A4C
:10296000320EE16E080E016EE6CFEEFF012EFCD7AF
:102970001EC4AEF029DD24D0020E806F7D81CFDF32
:102980001FD0040EEA6E580EE96EE26A290EE16E5F
:10299000070E016EE6CFEEFF012EFCD7070EAE6FDD
:1029A00013DD0ED01AC47EF0AE6B0EDD09D01AC452
:1029B00031F01BC430F0AE6B07DD02D008DD00D073
:1029C00004010001FCEF14F01A6A040118517F0B96
:1029D000000A000107E0010A07E0030A07E0230AF2
:1029E00007E008D044D608D095D606D068D704D0E2
:1029F00099D702D0ECDC00D020EF17F0BB6BACC055
:102A0000BAF0BD6B080EBC6F51DC01C0E9FF040ECB
:102A10000224EA6EEFCFAEF0AD51020806E1AEAD92
:102A200002D0AD6B02D0010EAD6FAD51030819E1BC
:102A3000840EAE6FBB6BACC0BAF0BD6B080EBC6F42
:102A400035DC02C0B2F001C0B1F0040EB127000EB7
:102A5000B223B1C0E9FF040EB225EA6E840EEF6E18
:102A600007D0AD2D03D0C80EAE6F02D0880EAE6F6A
:102A7000D890AC35036A8FEC10F00900F5CF03F065
:102A8000AF6F03C0B0F0BB6BACC0BAF0BD6B080E4B
:102A9000BC6F0CDC01C0B1F0010E0124016E000E10
:102AA0000220036E01C0E9FF040E0324EA6EAFC0EA
:102AB000EFFFB0B1AE81B0B3AE83BB6BACC0BAF0C8
:102AC000BD6B080EBC6F56EC11F001C0E9FF040E9F
:102AD0000224EA6EAEC0EFFF000C036AB951700F1A
:102AE000E96E0F0E0320EA6EEF5219E0BB6BB9C01E
:102AF000BAF0BD6B080EBC6F56EC11F002C0BBF013
:102B000001C0BAF0040EBA27000EBB23BAC0E9FF19
:102B1000040EBB25EA6EEFCFBAF0BAAF02D0000EBA
:102B200001D0010E016E000CB4C0B9F0D6DF015225
:102B3000D8B47CD0BB6BB4C0BAF0BD6B080EBC6F10
:102B400056EC11F002C0BAF001C0B9F0040EB9277A
:102B5000000EBA23010EB925016E000EBA21036ED4
:102B600001C0E9FF040E0324EA6EB5C0EFFFB751C0
:102B700002081EE1BB6BB4C0BAF0BD6B080EBC6F9F
:102B800056EC11F002C0BAF001C0B9F0040EB9273A
:102B9000000EBA23B9C0E9FF040EBA25EA6EEFCFE2
:102BA000B8F0B8AD02D0B76B02D0010EB76F18D035
:102BB000B751040815E1BB6BB4C0BAF0BD6B080E89
:102BC000BC6F56EC11F001C0E9FF040E0224EA6E5E
:102BD000EFCFB8F0B8AD03D0010EB76F01D0B76B2F
:102BE000B72D03D0C80EB86F02D0880EB86FB6B13B
:102BF000B881B6B3B883BB6BB4C0BAF0BD6B080E76
:102C0000BC6F56EC11F002C0BAF001C0B9F0040E6E
:102C1000B927000EBA23B9C0E9FF040EBA25EA6E3F
:102C2000B8C0EFFF010E016E03D000D0000E016EA0
:102C3000000C8051010A03E0030A13E024D0EA6A81
:102C4000320EE96E040EE26E180EE16E080E016E91
:102C5000E6CFEEFF012EFCD7AE6BE4EC11F0806BFB
:102C600014D0EA6A290EE96E040EE26E180EE16EC7
:102C7000070E016EE6CFEEFF012EFCD7806BAE6B28
:102C8000E4EC11F002D0806B00D07AEF16F0BB6B51
:102C9000ACC0BAF0BD6B080EBC6F56EC11F002C0B0
:102CA000AEF001C0ADF0010E0124016E000E022055
:102CB000036E01C0E9FF040E0324EA6E036AEFCF3E
:102CC00001F003C002F070EF16F07A91020EAC6FC3
:102CD000AD6F94DE000C7A817C6B020EAC6FD7D79F
:102CE00001C07BF07B5301E1F0DF7FEF16F0AB53C7
:102CF00002E19FD704D0AB51020801E1ECD7000CF0
:102D0000ACC06EFFAC5303E0040E226E02D0020E84
:102D1000226E90EF16F01B6A1A6A24C0ACF0F0D74E
:102D2000FFEF16F0ACC0B9F0D8DE015246E0BB6B45
:102D3000ACC0BAF0BD6B080EBC6F56EC11F002C00F
:102D4000B5F001C0B4F0040EB427000EB523020E96
:102D5000B425016E000EB521036E01C0E9FF040E1B
:102D60000324EA6EECCF03F0ED52EFCFB2F003C0D4
:102D7000B3F0B3C0EAFFB2C0E9FFAEC0E2FFADC03E
:102D8000E1FFB0C002F0AFC001F0015202E0022A40
:102D900002D0025206E0E6CFEEFF012EFCD7022E53
:102DA000FAD7ACC0B4F0B0C0B6F0AFC0B5F0B1C0A7
:102DB000B7F0BADE015003D000D0000E016E000C57
:102DC000020EAC6FAE6B3A0EAD6FB06B79C0AFF068
:102DD000020EB16FA7DF79C07FF0796B000C7953D9
:102DE00001E0EEDF04EF17F0AB530AE11A2C03D039
:102DF000EAEC11F004D01A50020801E18CD704D09B
:102E0000AB51020801E1EBD7000C2130A96FA933C7
:102E1000A9331F0EA917215242E1040100513C0BB6
:102E20000001AA6F430E040100170001AA513408E3
:102E30001EE104010451800B01E0046B0001C4D5C4
:102E40006D98233C05D0AC6B030EAD6FD7DD0ED073
:102E5000AC6B020EAD6FD2DD2350FE0807E0B46B01
:102E6000B66B23C0B5F0040EB76F5EDE17D0AA5163
:102E7000040814E1AB6B3BDFAC6B020EAD6FBEDD43
:102E80002350FE080AE0233C01D007D0B46BB66B98
:102E900023C0B5F0010EB76F47DE00D07AD02150C5
:102EA000040814E1430E04010417FF0E236E000111
:102EB000AB6B9ADF233C01D008D0B46BB66B23C058
:102EC000B5F0020EB76F30DE00D063D021B42AD047
:102ED000BB6BA9C0BAF0BD6B080EBC6F56EC11F00D
:102EE00001C0ABF001C001F0040E0224036E01C06A
:102EF000ABF0AC6FBB6BA9C0BAF0BD6B080EBC6F7A
:102F000056EC11F001C0E9FF040E0224EA6EEF5006
:102F1000430BACC0EAFFABC0E9FFEF6EA9C0ABF05A
:102F2000E6DE37D0BB6BA9C0BAF0BD6B080EBC6F34
:102F300056EC11F002C0ACF001C0ABF0040EAB27B0
:102F4000000EAC23ABC001F0040EAC25036EABC089
:102F5000ABF0AC6FBB6BA9C0BAF0BD6B080EBC6F19
:102F600056EC11F002C0AEF001C0ADF0040EAD277A
:102F7000000EAE23ADC0E9FF040EAE25EA6EEF50A1
:102F8000430BACC0EAFFABC0E9FFEF6EA9C0ABF0EA
:102F90002BDF02EF18F0A19A225201E139D06852DA
:102FA00037E068A404D069A402D011EF11F06DA23B
:102FB00001D02ED068AA04D069AA02D029EF11F05E
:102FC00068A204D069A202D030EF11F068A004D04A
:102FD00069A002D0C7EF11F068A804D069A802D098
:102FE000DCEF11F068AC04D069AC02D0E1EF11F075
:102FF000A86B68A608D069A606D06CCF21F0C5ECF6
:1030000011F003D701D004D0A851A82B0308F1E296
:1030100030EF10F06D6A696A080E6F6E94503009D7
:10302000946E226A196AF2BE198EF29EB1EC11F00A
:1030300019BEF28E1DEF18F0EDD742EF18F0196AA5
:10304000F2BE198EF29EB1EC11F019BEF28E6D6ACD
:10305000140E6F6E696A6D86010E226E33EF18F0E2
:103060006DB601D0ECD7222C0BD06DBA09D0686AAE
:10307000696AA08AC00EF212110E696E020E226EEB
:10308000000CDAD7EDDF22500208FCE103EF1CF060
:103090001B50016E08EF1CF07AB101D0FDD77C51B6
:1030A0007C2BA00FE96E040EEA6ED8B0EA2AEFCFAF
:1030B00086F07B517C5D07E3196AF2BE198EF29EA1
:1030C00004DE19BEF28E86C001F00BEF1CF0010E7B
:1030D000915F0CE3EA6A910EE96EEF5007E0020E91
:1030E000006E002EFED700D0EF2EF9D7000C93967D
:1030F0008A96020E8F6FFA0E916FE9DF8F2FFBD742
:103100009386020E8F6FFA0E916FE1DF8F2FFBD740
:103110009386000C906B905107081BE393968A9658
:10312000070E006E002EFED700D0D8908F3302E23B
:103130008A9601D08A869396EF0E006E002EFED7F7
:1031400000D09386070E006E002EFED700D0902B85
:10315000E2D7000C8F6B8F51070819E393968A967C
:10316000070E006E002EFED700D093861F0E006E55
:10317000002EFED700D0938681B602D0D89001D021
:10318000D8809033780E916FA2DF8F2BE4D790C058
:1031900001F0000C8E0E006E90C001F08FC002F0A6
:1031A000036A90AF05D0011E021E022A01E1012A26
:1031B000015209E102C001F0026A080E005E0152EC
:1031C00002E1006A0AD0D89001BE04D0023601366E
:1031D0000006F9D790BF01D0019ED6EF19F09351A8
:1031E000D8B4A5D09F6F9751D8B4A1D09F5F05E305
:1031F0007F0E9F27D8B09BD006D0810E9F5FD8A0AE
:1032000096D0D8B494D09FC000F0016A026A036AD5
:103210009E6B94C09DF09D8F95C09CF096C09BF0D6
:10322000190E9F6F9A519B5F0DE2010E9C5F0AE29F
:103230009D5F08E29E5F06E29E2B9D2B9C2B9A5180
:103240009B2728D099519C5F12E2010E9D5F0FE2EF
:103250009E5F0DE29E2B9D2B99519C279A519B2797
:1032600019E39C2B17E19D2B15E19E2B13D0985150
:1032700080099D5F0EE2010E9E5F0BE29E2B98512E
:1032800080099D2799519C27E9E39D2BE7E19E2B1F
:10329000E5D703809F2F01D00BD0D8909B379C3768
:1032A0009D379E37D890033602360136A037BAD7FD
:1032B000A0A106D0D890013202320332A03302D04E
:1032C000000635E0A0BF1ED0D8909B379C379D37B5
:1032D0009E379A519B5F07E2010E9C5F04E29D5F5F
:1032E00002E29E5F1AE399519C5F05E2010E9D5F29
:1032F00002E29E5F12E3985180099D5F03E2010E96
:103300009E5F0BE3032A09E1022A07E1012A05E196
:10331000002A0DE001320232033294C09FF098512E
:103320009F1B9FAF02D0018E06D0019E04D0006A81
:10333000016A026A036AECEF19F0EA6A8F0EE96E1D
:10334000EF500EE00F0E016E006A002EFED7012E28
:10335000FBD78F0E006E002EFED70000EF2EF2D7A7
:10336000F7EF19F0866BC3DECC0E8F6FD3DE440E01
:103370008F6FD0DE865304E1EDDE01C086F0FAD710
:10338000B6DECC0E8F6FC6DEBE0E8F6FC3DEE2DE02
:1033900001C087F0DFDE01C088F088C08AF087C0F6
:1033A00089F08AC090F089C08FF0F4D600C08FF009
:1033B00001C090F002C091F003C092F003C096F0FB
:1033C00002C095F001C094F000C093F09A6B996B25
:1033D000986B830E976F03D703C08EF002C08DF0F9
:1033E00001C08CF000C08BF0C80E8F6FA6D78BC0C9
:1033F00000F08CC001F08DC002F08EC003F011EF20
:103400001CF09351D8B471D0006E9751D8B46DD0E0
:10341000002604E3810E002668E204D07F0E005EE1
:1034200064E363E094C09BF098519B1B948F988F4A
:1034300096519A03F4CF9DF095519903F4CF03F080
:10344000F3CF9CF09A03F3509D27F4509C23000E79
:10345000032296519903F3509D27F4509C23000EAC
:10346000026A0322022294519A03F3509C27F450DB
:103470000322000E022294519903F3500326F450C4
:103480000222000E016A012296519803F3509C27F4
:10349000F4500322000E0222012295519803F350AA
:1034A0000326F4500222000E012294519803F35097
:1034B0000226F4500122002A01BE05D09C370336B3
:1034C000023601360006000E9CAF0AD0032A022203
:1034D0000122015005E1025003E1035001E1002AFD
:1034E0009BBF018E9BAF019E04D0006A016A026AF5
:1034F000036A43EF1BF09351B608936F036A94C0BD
:1035000097F0948FD89094339533963303320232E8
:1035100001320032932FF6D797AF0BD0001E011E59
:10352000021E031E002AD8B4012AD8B4022AD8B435
:10353000032A56EF1BF0D8B203D0EA6A9B0EE96E5D
:10354000006A016A026A036A9B6B9C6B9D6B9E6BAF
:103550009A519911981197112CE0200E9F6FD890D5
:1035600093379437953796379B379C379D379E37DF
:103570009A519E5D08E199519D5D05E198519C5DD0
:1035800002E197519B5D0FE397519B5F9851D8A043
:10359000983D9C5F9951D8A0993D9D5F9A51D8A0C4
:1035A0009A3D9E5FD88000360136023603369F2F43
:1035B000D6D79BC0EFFF9CC0ECFF9DC0ECFF9EC028
:1035C000ECFF000C9691F2BE9681F29E79513E0876
:1035D00002E23E0E796F7951792B036A3A0FE96E58
:1035E000000E0320EA6E95C0EFFFF29E96B1F28EB8
:1035F000FDEF1AF094C095F0E5D7196AF2BE198E66
:10360000F29E020EB96F6DEC15F019BEF28E0152EA
:1036100008E0196AF2BE198EF29EE0EC16F019BEAF
:10362000F28E2EEF1BF079513E0815E2196AF2BEB8
:10363000198EF29E020EB96F6DEC15F019BEF28E66
:10364000015208E0196AF2BE198EF29EE0EC16F003
:1036500019BEF28EE8D793C094F0CCD7000CE95095
:103660008B6F8A518D6F19E089C096F088C095F0F4
:1036700087C094F086C093F09A6B996B200E986F78
:10368000820E976FBED603C089F002C088F001C0D9
:1036900087F000C086F08D2FE7D789C096F088C0EC
:1036A00095F087C094F086C093F025D703C089F0C9
:1036B00002C088F001C087F000C086F089AF0DD04D
:1036C0008B078B8B861F871F881F891F862BD8B47B
:1036D000872BD8B4882BD8B4892B3B0E926F9A0EC7
:1036E000916FCA0E906F8F6B0A0E8D6F8A51D8B48E
:1036F0008B2BD882EA6A860EE96E89C096F088C064
:1037000095F087C094F086C093F092C09AF091C073
:1037100099F090C098F08FC097F00DDF01500052E3
:103720000FE18A298D5D0CE08B510CE00F0B8D5D54
:1037300001E037E28BBF35D08BBD04D0200E2DD0F9
:10374000200E8B178BAB0CD08B9B8A51D8A48B0788
:1037500000508B6F2D0E936F66DF8B51006E8B6B5D
:103760008A518D5D0AE100508B6F2E0E936F5BDFE7
:103770008B51006E200E8B17000E300E8BAB0DD0D0
:103780008B9B8A51D8A48B0700508B6F2D0E936FA3
:103790004ADF8B51006E8B6B300E002600C093F019
:1037A00042DFD89292C096F091C095F090C094F00C
:1037B0008FC093F09A6B996B986B0A0E976FBBDE74
:1037C00003C092F002C091F001C090F000C08FF0F1
:1037D0008D2F8FD726EF1CF0F86AD09E078EEA6AED
:1037E000E96A226A266A796B806BC150C00B0F09A7
:1037F000C16E070EB46E1E6A040E1F6E0C0E206E94
:10380000A0EC11F03ED47DB101D0FDD729DC40D42D
:1038100001521CE041D401C085F08551400816E1F9
:10382000A1D503C084F002C083F001C082F000C0C3
:1038300081F0020EE96E84C089F083C088F082C0F6
:1038400087F081C086F0010E8A6F09D7DFD70300A9
:020000040030CA
:0E0000003FCF3E1F0087A1000FC00FE00F4052
:00000001FF
;PIC18F4550
;CRC=F343  CREATED="15-jul-11 09:20"
