:0400000024EF02F0F7
:08000800046ED8CF05F0E0CF33
:1000100006F00001E9CF0CF0EACF07F0E1CF08F0DD
:10002000E2CF09F0D9CF0AF0DACF0BF0F3CF12F01C
:10003000F4CF13F0FACF14F0F5CF15F0F6CF16F099
:10004000F7CF17F000C00EF001C00FF002C010F0A3
:1000500003C011F0F2AA30EF00F0F2B461EF00F04B
:100060000EC000F00FC001F010C002F011C003F08C
:100070000CC0E9FF07C0EAFF078E08C0E1FF09C016
:10008000E2FF0AC0D9FF0BC0DAFF12C0F3FF13C0B2
:10009000F4FF14C0FAFF15C0F5FF16C0F6FF17C035
:1000A000F7FF045006C0E0FF05C0D8FF1000F76A54
:1000B000BE0FF66E000EF7220900F5501200280C54
:1000C0000106D76AD66A94928B72192A19503C0895
:1000D00003E194948B74196AF29430EF00F00C41B0
:1000E0002F442076616C7565203D20254C750000FD
:1000F00054696D6572302076616C203D2025690061
:10010000EA6A260EE96EEF500EE00F0E016E006AED
:10011000002EFED7012EFBD78F0E006E002EFED7CD
:100120000000EF2EF2D712002D38F00B006E0F0EEC
:100130008A1400108A6E00008A80070E006E002E5E
:10014000FED700D08A9012008150006E00380F0B4D
:10015000016E12000F0E9314F009936E8A84000052
:100160008A800000F1DF01C02DF08A9000008A80B3
:10017000030E006E002EFED700D0E6DF01C02CF08B
:100180008A900F0E9314936E2D38006EF00E0016A9
:1001900000502C10016ED2EF00F093909392939444
:1001A0008A92D8D701C02CF001BEFBD78A922AB020
:1001B0008A8200008A9400008A902B382C6E0F0EE1
:1001C0002C162CC02DF0B0DF2B500F0B2C6E2D6E8B
:1001D000ABDF12000F0E9314936E9390939293944F
:1001E0008A928A948A900F0E266E8ADF010E1A6E0A
:1001F0001A50030808E3030E2D6E96DF050E266ED7
:100200007FDF1A2AF5D7020E2D6E8EDF050E266EC1
:1002100077DF1A6A1A50030809E3036A1A5047DFA6
:100220001B6E2A6A2B6EB9DF1A2AF4D731EF02F05F
:10023000272C01D003D0400E286E01D0286A010E71
:10024000265C282628508009296E2A6A2B6EA5DF95
:1002500012002550070A07E00B0A0AE0060A10E020
:10026000020A14E018D0010E266E276EE1DF18D0C6
:100270002A6A010E2B6E91DF020E266E41DF10D02E
:10028000010E266E020E276ED3DF0AD02A6A100EE8
:100290002B6E83DF05D0010E2A6E25C02BF07DDF8B
:1002A00012000900F6CF1DF0F7CF1EF0F5CF25F0B4
:1002B000D0DF1DC0F6FF1EC0F7FF1C2EF2D71200C4
:1002C000EACF24F0E9CF23F01D38F0091F6E1F2676
:1002D000E20F206E320F226E1D500F0B20262026BB
:1002E0002226E90F216E212621261C380F0B2126FC
:1002F000222621362236221E22361C500F0B2226A1
:100300001F36070E1E6E0A0E21062226FDE320066A
:100310002126FDE31F062026FDE31E061F26FDE322
:10032000EA6A1E0EE96E070E2314239CE926220EAC
:10033000E95CD8B4238CEF50006E08E123BC06D0F2
:1003400023B813D023B602D0200E03D023862398DF
:10035000300E0026EACF1DF0E9CF1CF000C025F0DA
:1003600078DF1DC0EAFF1CC0E9FFEE5023ACDFD7E9
:100370006AEF02F02150016A205C03E220C000F025
:100380000CD0006A080E226E203600362150005C28
:10039000D8B0006E0136222EF7D71200200E1BA80F
:1003A000300E1C6E1AC000F01AAE08D0001E002AD3
:1003B00000C01AF02D0E1C6E1B8E1B8001501AC03F
:1003C00020F0640E216ED6DF00C01AF0300E01243A
:1003D0001D6E1AC020F00A0E216ECCDF300E0024F4
:1003E0001F6E300E01241E6E1CC000F0300E1D5C0E
:1003F00004E01B821BBE1B8412D01CC01DF0200E0B
:100400001C6E300E1E5C04E01B801BBE1B8207D0DE
:10041000D8A41B8004E11DC01EF0200E1D6E1BB46D
:1004200005D01BB206D01BB007D009D01CC025F0E8
:1004300010DF1DC025F00DDF1EC025F00ADF1FC034
:1004400025F007DF7BEF02F0F86AD09E078EEA6A9C
:10045000E96A196AC150C00B0F09C16E070EB46E6C
:10046000B9D6C050C00B0709C06EC08EC280C15043
:10047000C00B0E09C16E000E016EC250C30B0110FD
:10048000C26E270E006E002EFED700D0840ED56EF1
:10049000FC0ED76E1D0ED66EC00EF212F28A010E41
:1004A000266E276EC5DEC282C2B2FED7C4CF03F06D
:1004B000C3CF1AF0C4CF1BF0DE0EF66E000EF76E3F
:1004C0000D0E1C6EEEDE100EE96E1BC01DF01AC084
:1004D0001CF0F6D6010E266E020E276EA9DEF00E77
:1004E000F66E000EF76E0D0E1C6EDBDE19C01AF0F4
:1004F000180E1B6E53D7020E1A6EFA0E266E00DE11
:080500001A2EFBD7CCD7030033
:020000040030CA
:0E00000021CE3E1E008581000FC00FE00F4094
:00000001FF
;PIC18F2550
;CRC=B60F  CREATED="02-may-13 00:47"
