:0420000020EF19F0C4
:08200800046ED8CF05F0E0CF13
:1020100006F00001E9CF0CF0EACF07F0E1CF08F0BD
:10202000E2CF09F0D9CF0AF0DACF0BF0F3CF12F0FC
:10203000F4CF13F0FACF14F0F5CF15F0F6CF16F079
:10204000F7CF17F000C00EF001C00FF002C010F083
:1020500003C011F0A0A230EF10F0A1B217EF11F001
:10206000A0AA36EF10F0A1BA30EF18F00EC000F0C1
:102070000FC001F010C002F011C003F00CC0E9FF66
:1020800007C0EAFF078E08C0E1FF09C0E2FF0AC0EF
:10209000D9FF0BC0DAFF12C0F3FF13C0F4FF14C066
:1020A000FAFF15C0F5FF16C0F6FF17C0F7FF045082
:1020B00006C0E0FF05C0D8FF1000F76ACA0FF66E31
:1020C000200EF7220900F5501200000302FFFFFF67
:1020D000FFFFFFFFFFFFFFFFFFFFF76AEA0FF66E4C
:1020E000200EF7220900F550120000FF02FFFFFF4B
:1020F000FFFFFFFFFFFFFFFFFFFFF76A0A0FF66E0C
:10210000210EF7220900F550120040000B0040009C
:1021100000000000000000000000000000000000BF
:1021200000000000000000000000F76A3A0FF66EA1
:10213000210EF7220900F550120040000000400077
:10214000000000000000000000000000000000008F
:1021500000000000000000000000F76A6A0FF66E41
:10216000210EF7220900F550120009024300020176
:102170000080320904000001020201000524001061
:1021800001042402020524060001052401000107C0
:102190000581030B00FA09040100020A0000000790
:1021A0000502024000010705820240000100F76AB3
:1021B000BE0FF66E210EF7220900F5501200020044
:1021C000F76AD00FF66E210EF7220900F5501200C3
:1021D00012171B20FFFFFFFFF76AE80FF66E210EB4
:1021E000F7220900F5501200120110010200004010
:1021F00061043300000101020001F76A0A0FF66E64
:10220000220EF7220900F550120004030904080306
:102210004300430053001803530045005200490097
:1022200041004C002000440045004D004F00F60ED8
:10223000B36E9F0EB26E1AA008D029501C5C03E347
:1022400093908A8002D093908A901AA208D0295045
:102250001D5C03E393928A8202D093928A921AA41D
:1022600008D029501E5C03E393948A8402D093948F
:102270008A941AA608D029501F5C03E393968A8695
:1022800002D093968A961AA808D02950205C03E3BE
:1022900093988A8802D093988A981AAA08D02950CD
:1022A000215C03E3939A8A8A02D0939A8A9A1AACA1
:1022B00008D02950225C03E3939C8A8C02D0939C23
:1022C0008A9C1AAE08D02950235C03E3939E8A8E21
:1022D00002D0939E8A9E1BA008D02950245C03E361
:1022E00095908C8002D095908C901BA208D029509C
:1022F000265C03E395928C8202D095928C921BA46B
:1023000008D02950275C03E395948C8402D09594DF
:102310008C941BA608D02950285C03E392988988E6
:1023200002D092988998292A29500A0802E2010EBF
:10233000296EA19236EF10F06D92699468A402D0D4
:102340006894FCD73CEF18F0400E0401016F040EB6
:10235000036F180E026F880E006F046B040E076F78
:10236000580E066F0001120070A002D0EDDF7090D1
:10237000689A45EF18F06A6A68924BEF18F0B891C6
:10238000B7BFB881B79FB751100803E2000E016EC6
:1023900016D0B8A10BD0036AB7518FDEFF0802E157
:1023A000000E01D0010E016E0AD009D0036AB751A8
:1023B00094DEFF0802E1000E01D0010E016E120052
:1023C000BC51BE03F3CF01F0F4CF00F0BF03F350D4
:1023D0000026BD51BE03F3500020026E1200036AB6
:1023E000B651700FE96E0F0E0320EA6EEF6AB6C0A9
:1023F000B7F0C5DF015222E0BD6BB6C0BCF0BF6BC9
:10240000080EBE6FDDDF01C0E9FF040E0224EA6E94
:10241000EF6ABD6BB6C0BCF0BF6B080EBE6FD0DFFD
:1024200002C0B8F001C0B7F0040EB727000EB82301
:10243000B7C0E9FF040EB825EA6EEF6A1200010E7C
:10244000B56FB5510F0805E3B5C0B6F0C8DFB52BC1
:10245000F8D71200AF6BAE6B250EAD6F800EAC6F70
:10246000EA6A3C0EE96EE26AAC0EE16E020E016EA3
:10247000E6CFEEFF012EFCD73E6A3F6AAC6BEA6AFC
:10248000400EE96EE26AAC0EE16EE6CFEEFFAC6B99
:10249000EA6A410EE96EE26AAC0EE16EE6CFEEFF4B
:1024A000080EAC6FEA6A420EE96EE26AAC0EE16EAB
:1024B000E6CFEEFF906B1B9C446A436A8C6B8D9158
:1024C000916B1200396A386AAB6BAB5101080AE3B1
:1024D000036AAB513A0FE96E000E0320EA6EEF6A11
:1024E000AB2BF3D7B7DF2C6A010E2D6E2B6A1200CF
:1024F000689612006A6A686A9F0E6B6E3D0E696E7E
:102500006E6A9DDFDFDF160E706E68A602D0F0DF08
:10251000FCD76D9819DF030E336E51EF18F0698404
:1025200068986D8257EF18F0689C5DEF18F0B0C0A6
:1025300034F0120034681200AE6B385039102DE0C0
:10254000AE513F082AE32E5005E0020A09E0010AD5
:102550000DE011D037C003F03650FFDDAF6F0BD068
:1025600037C003F0365049DEAF6F05D037C003F0F7
:10257000365032DEAF6F362AD8B4372A3850D8B446
:1025800039063806AE51AE2B580FE96E040EEA6ECE
:10259000D8B0EA2AAFC0EFFFD0D73850391004E1E5
:1025A000AE51400801E02B6AAEC0B0F0C0DF1200AF
:1025B000376A366A2E6A04011B51010A000107E0DE
:1025C000030A0BE0010A0DE0220A22E03AD0396A40
:1025D000120E386E030E2E6E36D0396A430E386EE8
:1025E00032D0020E2E6E036A04011A512F0FE96ECB
:1025F000000E0320EA6E376AEFCF36F037C003F0E3
:1026000036500001FADD036A386E03C039F01BD082
:10261000036A04011A510001D3DD036A366E03C058
:1026200037F0363C02D037520AE037C003F036505C
:1026300094DD036A386E03C039F005D002D07ADF2A
:1026400011D078DF0FD004011F5308E1395203E1A4
:1026500038501E5D03E2396A1EC438F0010E2B6E3D
:1026600000016ADF55EF14F0AD5304E1040E336E40
:10267000E6DEC9D0050E336E040EB06F980EAF6F54
:10268000010EAE6FAE510F08D8A0BDD0AEC0B6F0EF
:10269000A6DEB16B036AAE5120DDFF0859E0040EDF
:1026A000B16FD890AE35036A40DD0900F5CF03F075
:1026B000B26F03C0B3F0BD6BAEC0BCF0BF6B080E11
:1026C000BE6F7EDE01C0B5F0010E0124016E000E6A
:1026D0000220036E01C0E9FF040E0324EA6EB2C0BB
:1026E000EFFFBD6BAEC0BCF0BF6B080EBE6F68DE07
:1026F00001C0B5F0020E0124016E000E0220036E2F
:1027000001C0E9FF040E0324EA6EB0C0ECFFED52F5
:10271000AFC0EFFFD890AE35036A07DD0900F5CFF3
:1027200003F0AF270350B023880EB46FB3B1B48168
:10273000B3B3B483BD6BAEC0BCF0BF6B080EBE6F4D
:102740003FDE01C0E9FF040E0224EA6EB4C0EFFFD1
:10275000036AAE51B2DCFF0840E0B183BD6BAEC08E
:10276000BCF0BF6B080EBE6F2BDE02C0B6F001C01E
:10277000B5F0040EB527000EB623020EB525016E86
:10278000000EB621036E01C0E9FF040E0324EA6EB9
:10279000B0C0ECFFED52AFC0EFFFD890AE35036A8A
:1027A000ACDC0900F5CF03F0AF270350B023BD6BBD
:1027B000AEC0BCF0BF6B080EBE6F02DE02C0B6F04A
:1027C00001C0B5F0040EB527000EB623B5C0E9FF71
:1027D000040EB625EA6E400EEF6EB151060802E116
:1027E0000E0EB16F036AAE5168DC0108D8A4B1893E
:1027F000036AAE51700FE96E0F0E0320EA6EB1C08E
:10280000EFFFAE2B3FD750EF14F004011951000A2F
:1028100000010DE0010A14E0020A1EE0060A27E0AA
:10282000030A2CE00E0A2CE0010A30E03DD02DC056
:1028300058F40401596B020E0001B06F78DE35D0F8
:1028400004011A2D06D0010E2D160001B06B6FDEAB
:1028500002D000016FDE29D004011A2D05D02D828F
:102860000001B06B64DE02D0000164DE1ED0020EF7
:102870002B6E1AC435F0B06B5ADE17D099D615D02E
:102880002CC058F4010EB06F52DE0FD004011A5163
:10289000010808E31AC42CF01AC4ADF00001E4D614
:1028A000B06B45DE000101D045DEC5EF15F02CC050
:1028B000ADF004011951000A000105E00A0A0BE01D
:1028C000010A26E037D00401586B596B020E000153
:1028D000B06F2DDE30D0AD5319E0010EAD5D036A4F
:1028E00066DC016E04011C5DD8A002D000010ED090
:1028F000036A1C513A0FE96E000E0320EA6EEFCF17
:1029000058F4010E0001B06F12DE01D013DE13D0B7
:10291000AD530EE0036A04011C513A0FE96E000E3C
:102920000320EA6E1AC4EFFF0001B06B00DE01D095
:1029300001DE01D0FFDDC5EF15F0AE91ADBFAE8178
:10294000AD9FAEA117D0BD6BADC0BCF0BF6B080E84
:10295000BE6F36DD02C0B0F001C0AFF0040EAF278D
:10296000000EB023AFC0E9FF040EB025EA6E880E5A
:10297000EF6E0DD0BD6BADC0BCF0BF6B080EBE6F6F
:102980001FDD01C0E9FF040E0224EA6EEF6A3DEF8D
:1029900015F0AE91ADBFAE81AD9FAEA117D0BD6BAE
:1029A000ADC0BCF0BF6B080EBE6F0ADD02C0B0F058
:1029B00001C0AFF0040EAF27000EB023AFC0E9FF97
:1029C000040EB025EA6E840EEF6E0ED0BD6BADC066
:1029D000BCF0BF6B080EBE6FF3DC01C0E9FF040E54
:1029E0000224EA6E840EEF6E43EF15F0AE91ADBF98
:1029F000AE81AD9FAEA117D0BD6BADC0BCF0BF6BBB
:102A0000080EBE6FDDDC02C0B1F001C0B0F0040EF4
:102A1000B027000EB123B0C0E9FF040EB125EA6E65
:102A2000EFCFAFF00ED0BD6BADC0BCF0BF6B080EEA
:102A3000BE6FC6DC01C0E9FF040E0224EA6EEFCFD0
:102A4000AFF0AFAF02D0AFB502D0000E01D0010E93
:102A5000016E4DEF15F01CC4B7F091DC015228E077
:102A600004011951010A000105E0020A09E0030A04
:102A70000DE01DD01CC4ADF060D7B06B58DD18D090
:102A80001CC4ADF086D7B06B52DD12D00401586B78
:102A9000596B1CC4ADF00001A9D7015204E0010E2E
:102AA0000401586F0001020EB06F41DD01D042DD1C
:102AB000C5EF15F0FE0E346E120004011C2D01D07E
:102AC00002D01C5348E11951000A00010BE0010A31
:102AD0000DE0210A1CE0010A1FE0030A2EE0010AB2
:102AE00031E037D0010E916FE5DF34D0040EEA6E8D
:102AF000580EE96EE26A450EE16E080E016EE6CFF1
:102B0000EEFF012EFCD71EC4B0F011DD23D0020E63
:102B1000916F1B8CCFDF1ED0040EEA6E580EE96E4B
:102B2000E26A3C0EE16E070E016EE6CFEEFF012E6B
:102B3000FCD7070EB06FFBDC0DD01AC490F0B06B61
:102B4000F6DC08D01AC444F01BC443F0B06BEFDCD1
:102B500001D0F0DC04010001C5EF15F02B6A04017F
:102B600018517F0B000A000107E0010A07E0030A81
:102B700007E0230A07E008D048D607D098D605D04A
:102B80006AD703D09AD701D0D5DCE6EF17F0BD6B3A
:102B9000AEC0BCF0BF6B080EBE6F12DC01C0E9FF17
:102BA000040E0224EA6EEFCFB0F0AF51020806E146
:102BB000B0AD02D0AF6B02D0010EAF6FAF510308C2
:102BC0001AE1840EB06FBD6BAEC0BCF0BF6B080ED7
:102BD000BE6FE0EC11F002C0B4F001C0B3F0040E1F
:102BE000B327000EB423B3C0E9FF040EB425EA6E88
:102BF000840EEF6E07D0AF2D03D0C80EB06F02D099
:102C0000880EB06FD890AE35036A95EC10F00900CD
:102C1000F5CF03F0B16F03C0B2F0BD6BAEC0BCF036
:102C2000BF6B080EBE6FE0EC11F001C0B3F0010EF7
:102C30000124016E000E0220036E01C0E9FF040EA4
:102C40000324EA6EB1C0EFFFB2B1B081B2B3B0837A
:102C5000BD6BAEC0BCF0BF6B080EBE6FE0EC11F0F8
:102C600001C0E9FF040E0224EA6EB0C0EFFF1200BB
:102C7000036ABB51700FE96E0F0E0320EA6EEF522C
:102C800019E0BD6BBBC0BCF0BF6B080EBE6FE0ECC3
:102C900011F002C0BDF001C0BCF0040EBC27000E54
:102CA000BD23BCC0E9FF040EBD25EA6EEFCFBEF028
:102CB000BEAF02D0000E01D0010E016E1200B6C0F0
:102CC000BBF0D6DF0152D8B47BD0BD6BB6C0BCF030
:102CD000BF6B080EBE6FE0EC11F002C0BCF001C08B
:102CE000BBF0040EBB27000EBC23010EBB25016EFA
:102CF000000EBC21036E01C0E9FF040E0324EA6E3E
:102D0000B7C0EFFFB95102081EE1BD6BB6C0BCF001
:102D1000BF6B080EBE6FE0EC11F002C0BCF001C04A
:102D2000BBF0040EBB27000EBC23BBC0E9FF040EA2
:102D3000BC25EA6EEFCFBAF0BAAD02D0B96B02D0C3
:102D4000010EB96F18D0B951040815E1BD6BB6C0BA
:102D5000BCF0BF6B080EBE6FE0EC11F001C0E9FFE4
:102D6000040E0224EA6EEFCFBAF0BAAD03D0010E22
:102D7000B96F01D0B96BB92D03D0C80EBA6F02D0AC
:102D8000880EBA6FB8B1BA81B8B3BA83BD6BB6C09A
:102D9000BCF0BF6B080EBE6FE0EC11F002C0BCF0DF
:102DA00001C0BBF0040EBB27000EBC23BBC0E9FF73
:102DB000040EBC25EA6EBAC0EFFF010E016E02D010
:102DC000000E016E12009151010A03E0030A13E0A4
:102DD00024D0EA6A450EE96E040EE26E180EE16E2A
:102DE000080E016EE6CFEEFF012EFCD7B06B97EC1C
:102DF00012F0916B13D0EA6A3C0EE96E040EE26E9B
:102E0000180EE16E070E016EE6CFEEFF012EFCD725
:102E1000916BB06B97EC12F001D0916B43EF17F010
:102E2000BD6BAEC0BCF0BF6B080EBE6FE0EC11F026
:102E300002C0B0F001C0AFF0010E0124016E000E1F
:102E40000220036E01C0E9FF040E0324EA6E036A48
:102E5000EFCF01F003C002F039EF17F08D91020EB1
:102E6000AE6FAF6F94DE12008D818F6B020EAE6F6E
:102E7000D7D701C08EF08E5301E1F0DF48EF17F095
:102E8000AD5302E1A0D704D0AD51020801E1ECD767
:102E90001200AEC06EFFAE5303E0040E336E02D0DC
:102EA000020E336E59EF17F02C6A2B6A35C0AEF064
:102EB000F0D7C5EF17F0AEC0BBF0DADE015243E049
:102EC000BD6BAEC0BCF0BF6B080EBE6FE0EC11F086
:102ED00002C0B7F001C0B6F0040EB627000EB7234B
:102EE000020EB625016E000EB721036E01C0E9FF88
:102EF000040E0324EA6EECCFB5F0ED52EFCFB4F040
:102F0000B5C0EAFFB4C0E9FFB0C0E2FFAFC0E1FF67
:102F1000B2C002F0B1C001F0015202E0022A02D0B8
:102F2000025206E0E6CFEEFF012EFCD7022EFAD7C2
:102F3000AEC0B6F0B2C0B8F0B1C0B7F0B3C0B9F02F
:102F4000BEDE015002D0000E016E12008C530EE066
:102F5000020EAE6FB06B4D0EAF6FB26B8CC0B1F0A6
:102F6000020EB36FA8DF015201E08C6B1200EEDF9E
:102F7000CAEF17F0AD530AE12B2C03D09CEC12F0F2
:102F800004D02B50020801E18FD704D0AD510208C4
:102F900001E1EDD712003230AB6FAB33AB331F0E14
:102FA000AB17325241E1040100513C0B0001AC6F00
:102FB000430E040100170001AC5134081EE1040166
:102FC0000451800B01E0046B0001C8D56D98343CBE
:102FD00005D0AE6B030EAF6FDADD0ED0AE6B020E16
:102FE000AF6FD5DD3450FE0807E0B66BB86B34C068
:102FF000B7F0040EB96F63DE16D0AC51040813E1CC
:10300000AD6B3EDFAE6B020EAF6FC1DD3450FE081C
:103010000AE0343C01D007D0B66BB86B34C0B7F0CF
:10302000010EB96F4CDE1AD0325004080EE134683C
:10303000AD6BA0DF343C01D007D0B66BB86B34C0A9
:10304000B7F0020EB96F3BDE09D032B404D0ABC08A
:10305000ADF016DF03D0ABC0ADF08CDF67EF18F03A
:10306000A19A335201E139D0685237E068A404D004
:1030700069A402D09CEF11F06DA201D02ED068AAF5
:1030800004D069AA02D0B4EF11F068A204D069A2FA
:1030900002D0BBEF11F068A004D069A002D07AEF93
:1030A00012F068A804D069A802D08FEF12F068ACC3
:1030B00004D069AC02D094EF12F0AA6B68A608D0D5
:1030C00069A606D06CCF32F078EC12F064D701D04C
:1030D00004D0AA51AA2B0308F1E236EF10F0456E96
:1030E00063656E6469646F0A0D00417061676164B5
:1030F0006F0A0D006D6A696A080E6F6E9450300990
:10310000946E336A196AF2BE198EF29E62EC12F066
:1031100019BEF28E8DEF18F0EDD7B3EF18F0196AE3
:10312000F2BE198EF29E62EC12F019BEF28E6D6A3A
:10313000140E6F6E696A6D86010E336EA3EF18F080
:103140006DB601D0ECD7332C0BD06DBA09D0686ABC
:10315000696AA08AC00EF212110E696E020E336EF9
:10316000B4EF18F0D9D7ECD733500208FCE143EFA5
:1031700019F02C50016E44EF19F08DB101D0FDD73C
:103180008F518F2BA30FE96E040EEA6ED8B0EA2A96
:10319000EFCF93F08E518F5D07E3196AF2BE198E5F
:1031A000F29E5CDE19BEF28E93C001F047EF19F07B
:1031B0009891F2BE9881F29E8C513E0802E23E0E3A
:1031C0008C6F8C518C2B036A4D0FE96E000E03201F
:1031D000EA6E97C0EFFFF29E98B1F28EF3EF18F00F
:1031E00096C097F0E5D7196AF2BE198EF29E020ECC
:1031F000BB6F3EDD19BEF28E015207E0196AF2BEC6
:10320000198EF29EA3DE19BEF28E0EEF19F08C51CC
:103210003E0801E2FCD795C096F0E2D71AEF19F00C
:103220000900F5520CE0F6CF93F0F7CF94F0F5CF0C
:1032300095F0EDD793C0F6FF94C0F7FFF1D71200D9
:10324000F86AD09E078EEA6AE96A1B981B9A010EFB
:10325000296E2A6AB886E10EAF6E040EB06EA60E15
:10326000AC6E900EAB6E95988C88959C8C8CC150F2
:10327000C00B0F09C16E070EB46E2F6A040E306EBC
:103280000C0E316E6FD775D701521DE076D701C095
:1032900092F0922D01D003D09251310808E192981A
:1032A0008988DE0EF66E300EF76EBADF0CD09253C0
:1032B00003E09251300807E192988998EA0EF66E81
:0A32C000300EF76EADDFDFD703001C
:020000040030CA
:0E00000024CE3E1E0085A1000FC00FE00F4071
:00000001FF
;PIC18F4550
;CRC=51D8  CREATED="17-ago-13 15:33"
